:100000000C943C030C9459030C9459030C9459031D
:100010000C9459030C9459030C9459030C945903F0
:100020000C9459030C9459030C94D7270C94A928C9
:100030000C947A220C9459030C9459030C94590390
:100040000C9459030C9459030C9459030C945903C0
:100050000C9459030C9403230C9459030C945903E6
:100060000C9459030C9459030C9459030C945903A0
:100070000C9459030C9459030C9459030C94590390
:100080000C9459030C9459030C9459030C94590380
:100090000C9459030C9459030C9459030C94590370
:1000A0000C9459030C9459030C94590364036B0387
:1000B00072037903800387038E0395039C03A303D4
:1000C000AA03B103B803BF03C603CD03D403DB0304
:1000D000E203E903F003F703FE0305040C04130431
:1000E0001A04210428042F0436043D0444044B045C
:1000F000520459046004600460046B046B046B04D4
:10010000760476047604810481048F048F048F04BE
:10011000940498049C049804A204A804AE04B404B3
:10012000E207E2070E080E086F088D086B096B09DD
:100130009208FA080B090B09291A9B1A311AFB19A4
:10014000FF19351A021A381A431A0D1A911A111A80
:10015000471A151A4B1A751A191A4F1A7F1A1F1AAD
:10016000551A5F1A061A3C1A091A3F1A241A5A1A03
:100170006B1A8B1A8D1AF7192D1AA41A571F5D1FA7
:100180004B1F511F631F691F6F1F6C206F20A6201C
:10019000B920C120CC20CF20CF20CF20172117217C
:1001A000D420D720DC20E920F620F920FD200A21E8
:1001B00011293829302A3829302A8429A729302AB8
:1001C000FE290D2A300039003800370001012B00CC
:1001D0002F002C002E003F002100270001012900E4
:1001E00001012900010128000101280001014C0042
:1001F00001014C0001012A0001012A002000200019
:10020000670064007A006C00760070006D006A0080
:10021000780066006E00770062006B006300750076
:1002200071006800164117001500044612420C00C8
:100230001C000843010020001F001E0001002300D5
:10024000220021000100A900A800AE000100AA00C0
:10025000AC00AB0031003300350020022E002D0031
:100260001F020100D900D200CD00D100DA00CF007A
:10027000CE00D0004B004A0052004D004E0050000E
:1002800051004F002F022F002602010030023000E3
:1002900027020100230022000000220021000000AC
:1002A00020001F0000001F001E000000D100D2002F
:1002B000CE000000044617001C00000052004F0052
:1002C00050000000150008430C000000D100CD00D4
:1002D000D200D900D000CE00CF00DA0000004D00DF
:1002E00052004A004B004F00510050004E000000E9
:1002F000044615001700164108431C000C0012426A
:1003000000004D00510050004E00000004461C004B
:100310000C0012420000D900CF0000004B0050003A
:10032000000016410C000000D900CE0000004B0078
:100330005100000016411C000000D900D000000050
:100340004B004F0000001641084300000843150011
:100350001700164100000446150017001242000065
:1003600004461242000004461C00000004460C0033
:10037000000016411242000017000C00000015009A
:100380001C0000004D0052004E0000000446150005
:10039000124200004D004F000000044608430000D8
:1003A00052004F00000015000843000050005200AA
:1003B00000000C00150000004F00510050004E00DE
:1003C000000008431C000C0012420000150017003A
:1003D0000000044615001700000004461500170031
:1003E0001641000008431C000C00000015001641D7
:1003F000000008430C00124200001C000C001242D6
:1004000000001700164100001500170016410000FB
:100410000446150000000C0012420000044616417C
:1004200000000843124200001C0012420000084372
:100430001C0000001C000C000000044617001641C0
:10044000000008430C000000000000000000000055
:100450002A2B28000000000000000000000000001F
:1004600000000029000000002C1E3420212224342A
:100470002627252E362D3738271E1F2021222324FC
:1004800025263333362E37381F0405060708090A98
:100490000B0C0D0E0F101112131415161718191A34
:1004A0001B1C1D2F3130232D350405060708090AB2
:1004B0000B0C0D0E0F101112131415161718191A14
:1004C0001B1C1D2F3130354C0000000000000000C7
:1004D000000000000000000000000000000000001C
:1004E0000000000000000000000000007E0F00D4AB
:1004F000FFFFFFC70000007816035000610069008D
:100500006E007400620072007500730068000000E5
:100510001403480061006E006400770069007200F7
:100520006500640000000403090409025B00030184
:1005300000A0FA09040000010301010009211101D2
:10054000000122440007058103080001090401009D
:100550000203000000092111010001222200070509
:1005600082032000010705030320000109040200A3
:100570000103000000092111010001227B00070591
:100580008403200001120100020000000800CB9F3C
:10059000F00100010200010660FF0961A10109628A
:1005A000150026FF009520750881020963150026B5
:1005B000FF00952075089102C005010902A101857F
:1005C000020901A100050919012908150025019555
:1005D00008750181020501093009311581257F95D2
:1005E000027508810609381581257F9501750881F6
:1005F00006050C0A38021581257F950175088106CC
:10060000C0C005010980A101850319012AB70015A1
:100610000126B700950175108100C0050C0901A1E4
:1006200001850419012AA002150126A00295017571
:10063000108100C005010906A101050719E029E79D
:100640001500250195087501810295017508810144
:100650000507190029FF150026FF0095067508817A
:100660000005081901290515002501950575019159
:1006700002950175039101C011241FBECFEFDAE08E
:10068000DEBFCDBF13E0A0E0B1E0E8E6F6E502C0D2
:1006900005900D92A833B107D9F724E0A8E3B3E0A1
:1006A00001C01D92AF36B207E1F70E9473140C949B
:1006B000322B0C9400008A33910508F05CC1FC01D8
:1006C000EA5AFF4F0C94722A662309F454C160E081
:1006D00082E292E04EC1662309F44DC160E080E2FF
:1006E00092E047C1662309F446C160E08EE192E0E2
:1006F00040C1662309F43FC160E08CE192E039C15A
:10070000662309F438C160E08AE192E032C16623D1
:1007100009F431C160E088E192E02BC1662309F45D
:100720002AC160E086E192E024C1662309F423C176
:1007300060E084E192E01DC1662309F41CC160E021
:1007400082E192E016C1662309F415C160E080E100
:1007500092E00FC1662309F40EC160E08EE092E0E2
:1007600008C1662309F407C160E08CE092E001C192
:10077000662309F400C160E08AE092E0FAC06623D3
:1007800009F4F9C060E088E092E0F3C0662309F460
:10079000F2C060E086E092E0ECC0662309F4EBC0B2
:1007A00060E084E092E0E5C0662309F4E4C060E024
:1007B00082E092E0DEC0662309F4DDC060E080E004
:1007C00092E0D7C0662309F4D6C060E08EEF91E0D6
:1007D000D0C0662309F4CFC060E08CEF91E0C9C0BF
:1007E000662309F4C8C060E088EF91E0C2C06623C8
:1007F00009F4C1C060E084EF91E0BBC0662309F456
:10080000BAC060E080EF91E0B4C0662309F4B3C0E1
:1008100060E08CEE91E0ADC0662309F4ACC060E00E
:1008200088EE91E0A6C0662309F4A5C060E084EEDE
:1008300091E09FC0662309F49EC060E080EE91E0E5
:1008400098C0662309F497C060E08CED91E091C0F8
:10085000662309F490C060E08AED91E08AC06623C7
:1008600009F489C060E088ED91E083C0662309F453
:1008700082C060E086ED91E07CC0662309F47BC015
:1008800060E084ED91E075C0662309F474C060E017
:1008900082ED91E06EC0662309F46DC060E080EDEA
:1008A00091E067C0662309F466C060E08CEC91E0DB
:1008B00060C0662309F45FC082E00E94EE0E0895D6
:1008C000662309F458C00E94C40E817111F081E1C1
:1008D0001FC081E121C0662309F44DC00E94C40EEF
:1008E000887811F088E814C088E816C0662309F4F7
:1008F00042C00E94C40E847411F084E409C084E4F0
:100900000BC06623C1F10E94C40E827221F082E204
:100910000E94CD0E089582E20E94C70E08956623BC
:1009200051F10E94D40E0895662329F185E007C095
:10093000662309F180E003C06623E9F084E00E94A9
:10094000590A08956623B9F060E08AEC91E011C07D
:10095000662389F060E088EC91E00BC0662359F0D3
:1009600060E086EC91E005C0662329F060E084EC4D
:1009700091E00E94751E089581E008958730B8F4D3
:100980006230A8F4443098F470E0680F711D680F6D
:10099000711DFB01EE0FFF1FEE0FFF1FE40FF11D96
:1009A000EE0FFF1FEC5DFD4F85919491089581E05E
:1009B00090E008958AE390E0089527E0AC01249F39
:1009C000C001259F900D112480509F4F089581E014
:1009D000089581E008950E94E90408950E94EB04BF
:1009E00008950E94BC04089508950E94F404089597
:1009F000A6E0B0E0EEEFF4E00C948E2A49835A832F
:100A00009E8330913F0389819A81311115C03E81C7
:100A1000332359F0222349F00E94130B182F682F1B
:100A200089819A810E94EF0A03C00E94010B182F4E
:100A300069817A81812F04C00E94130B69817A81B8
:100A40000E9473122696E3E00C94AA2AFC01878187
:100A50009085009749F4262F4081518162817381EE
:100A6000848195810E94F80408950F931F93CF937A
:100A7000DF93EC0161E00E9426058C01BE010E941B
:100A8000EE04882329F0BE01C8010E94611602C04D
:100A900080E090E08170DF91CF911F910F910895D8
:100AA000CF93DF93EC0160E00E942605BE010E9417
:100AB000F504DF91CF91089581E008950E945C05CF
:100AC0000895CF93C82F0E94E3098C2F0E945E05E2
:100AD0002FEF84E39CE0215080409040E1F700C07C
:100AE0000000CF91089581E00E9461050E942923B2
:100AF000089580E00E9461050E943A2308950F93B3
:100B00001F93CF93DF938C0161E00E942605EC01D7
:100B1000B8010E943920882309F450C0B801CE01E1
:100B20000E94F104882309F449C0B801CE010E9453
:100B30003F1F882309F442C0B801CE010E94D31997
:100B40008823E1F1B801CE010E94A9198823B1F1EF
:100B5000B801CE010E94821F882381F1F8018581AE
:100B6000882341F1C3308CE7D807D1F040F4C11598
:100B7000FCE7DF0791F0C130DC47A1F01BC0CB35AB
:100B8000ECE7DE07A9F0CC35FCE7DF0771F0CA35EA
:100B9000DC4781F40E94B20F0DC00E9473050EC0A5
:100BA0000E94BA0F0E94790509C00E94A80F02C0D6
:100BB0000E94B60FC8010E94E70401C080E0DF91E7
:100BC000CF911F910F9108950E9451220E941F06FC
:100BD00008950E9423060E945A220895982F929504
:100BE0009F7019F0892F24E001C020E0982F96957E
:100BF000969511F02E5F892F982F969509F02F5F0B
:100C0000822F0895089581E008950895CF93DF938A
:100C1000D82F0E940306C82F882319F08D2F0E9419
:100C200005068C2FDF91CF9108950895CF93C82F9B
:100C30000E9402068C2F0E940606CF91089580E044
:100C40000E94160608950E9427210E941606089504
:100C5000CF930E942721C82F80913A03C81779F0BB
:100C6000C0933A030E94E82260933B0370933C03D5
:100C700080933D0390933E038C2F0E941606CF91E4
:100C80000895AFE0B0E0E7E4F6E00C948D2A4A87DF
:100C90005B876C877D878E879F8791110E94E40E0A
:100CA000CE01019629E0FC0111922A95E9F726E090
:100CB000FE013A96DC0101900D922A95E1F72D8113
:100CC00021110CC009811A812B813C814D815E81EB
:100CD0006F81788589850E94260E04C00E943505A3
:100CE0008111F0CF2F96E4E00C94A92AFC01248115
:100CF000213021F4808191810E94400B0895662368
:100D000019F00E94431B02C00E94B41B0E942B1CBE
:100D10000895CF93882309F488C0C82F8238A1F49E
:100D20000E94342181FD81C089E30E94E4210E9458
:100D3000460F2FEF87EE93E0215080409040E1F77F
:100D400000C0000089E315C08338C1F40E9434213B
:100D500080FD6BC083E50E94E4210E94460F2FEFC7
:100D600081EE94E0215080409040E1F700C0000007
:100D700083E50E94EC210E94460F57C08438A1F4FD
:100D80000E94342182FD51C087E40E94E4210E9428
:100D9000460F2FEF81EE94E0215080409040E1F724
:100DA00000C0000087E4E5CF8CEF8C0F813A70F42F
:100DB0008C2F0E94A921882329F08C2F0E94EC21DE
:100DC0000E94460F8C2F0E94E421D5CF80E28C0F29
:100DD000883048F4C77081E001C0880FCA95EAF7EF
:100DE0000E94C70EC8CFEBE5EC0FE33040F4F0E013
:100DF000EB51FD4F808190E00E94502116C0E8E544
:100E0000EC0FEB3150F4F0E0EE0FFF1FE155FD4F1A
:100E1000808191810E94752108C083E38C0F83310A
:100E200020F461E08C2F0E947F06CF9108958823E3
:100E300009F456C0823859F40E94342181FF50C011
:100E400089E30E94E4210E94460F89E30CC08338A5
:100E500079F40E94342180FF43C083E50E94E4219D
:100E60000E94460F83E50E94EC210E94460F0895E0
:100E7000843859F40E94342182FF32C087E40E94F2
:100E8000E4210E94460F87E4EECF9CEF980F913A41
:100E900050F390E2980F983050F4877091E001C0C1
:100EA000990F8A95EAF7892F0E94CD0EDECF9BE538
:100EB000980F933028F480E090E00E94502108952C
:100EC00098E5980F9B3128F480E090E00E9475210E
:100ED000089593E3980F933118F460E00E947F0621
:100EE00008951F93CF93DF93182FEB010E9489067B
:100EF000209741F08FE99FE00197F1F700C00000D3
:100F00002197F6CF812F0E941707DF91CF911F9174
:100F10000895893319F060E070E002C060E570E088
:100F20000E9471070895882321F00E94C70E0E9435
:100F3000460F0895882321F00E94CD0E0E94460F8F
:100F40000895A0E0B0E0E7EAF7E00C94892A7C017C
:100F5000162FC72FFC01D581068102950F700E94C4
:100F6000BD0E8823F9F0DD23E9F08C2F807F8034DB
:100F700061F080E2810F8830A8F08C2F807E803273
:100F800021F4123078F0002369F08091590482FF37
:100F900009C082E00E947C0F0E94BD0E91E0D82E15
:100FA000D92601C0D12CCC2EC2948FE0C8228C2D22
:100FB00090E08C30910508F08EC1FC01E057FF4FA6
:100FC0000C94722A8C2F807FCF70882311F0C295E9
:100FD000C07FDD2399F0CC2309F469C180E2810F41
:100FE000883010F0111104C08C2F0E94C70E03C06E
:100FF0008C2F0E94D70E0E94460F59C1812F0E944C
:101000001707CC2309F467C180E2810F883038F1DB
:10101000112329F18C2F0E94DD0E24C08C2F807F9C
:10102000CF70803211F0C295C07F112319F01130BA
:1010300099F13CC08091590482FD17C0DD2349F02D
:10104000CC2329F08C2F0E94C70E0E94460F80E00F
:101050002FC180E00E941707CC2309F43CC18C2FDC
:101060000E94CD0E0E94460F36C1DD2349F00023B9
:1010700009F1013009F02FC18C2F0E94EE0E2BC117
:10108000011129C18C2F0E949A078C2F0E94FA0E01
:101090008C2F0E944F0F1FC1DD2321F0063008F076
:1010A0001AC108C0053008F016C115C0DD2331F0A3
:1010B0000111FDC08C2F0E9493070DC1002359F030
:1010C000193309F005C1FFEF27EE83E0F15020400E
:1010D0008040E1F7FBC08C2F0E949A07FCC08C2F48
:1010E00086958695837019F0813061F0F4C0DD2318
:1010F00021F0812F9C2F937002C080E090E00E942D
:101100005021F1C0DD2321F0812F9C2F937002C06C
:1011100080E090E00E947521E6C06D2F812F0E9433
:101120007F06E1C08C2F837079F5D111D8C0412F93
:10113000429546954770440F440F212F2F70042E7F
:1011400001C0220F0A94EAF714FF08C08FE090E074
:1011500001C0880F4A95EAF7809501C080E0C695E6
:10116000C695C370822BC23049F058F4C13019F0D3
:101170000E94410AB4C00E943B0AB1C00E94470AC3
:10118000AEC00E94380AABC0DD2319F08C2F8170ED
:1011900001C08695882309F4A2C0412F4295469547
:1011A0004770440F440F212F2F70042E01C0220FCF
:1011B0000A94EAF714FF08C08FE090E001C0880F9E
:1011C0004A95EAF7809501C080E0C695C695C37040
:1011D000822BC23049F058F4C13019F00E948D0AB8
:1011E0007EC00E94870A7BC00E94930A78C00E943A
:1011F000500A75C0CF70DD2339F08C2F0E94620A2F
:10120000812F0E9493076BC0812F0E949A078C2F19
:101210000E946E0A64C0123F21F128F4103F41F091
:10122000113FC1F040C0133F19F1143F79F03BC0AA
:10123000DD2341F0053008F04EC08C2F8F710E94E5
:101240007B0A49C0063008F046C0F7CF80915904A8
:1012500082FD18C0DD2339F08C2F8F710E94620A45
:101260003AC0DD23C9F38C2F8F710E946E0A33C000
:10127000DD2329F08C2F8F710E94590A2CC00E9407
:10128000550A29C0DD2331F063E08C2F8F710E9455
:101290005E0F21C081E00E947C0F0230E0F082E00E
:1012A0000E947C0F18C0DD2331F00023A9F2812FAA
:1012B0000E94890610C00023B1F2193349F49FEF50
:1012C000E7EEF3E09150E040F040E1F700C00000AD
:1012D000812F0E94170788EF8C0D843020F40E9424
:1012E00027210E941606DD2089F00E94B90E80FD9C
:1012F0000DC0F70115820E94B30E0E94620AC70159
:101300000E94AA090E94B30E0E946E0ACDB7DEB7F2
:10131000E8E00C94A52A0F931F93CF93DF93EC0181
:101320008F819885009719F00E94561105C0688139
:1013300079818D810E944B0B8C010E94990A0E9439
:101340002B0AB801CE010E94A107DF91CF911F9116
:101350000F910895CF93DF93FC0124812223D1F0D4
:10136000EC010E947F0581110FC00E94BD0E8823F1
:1013700089F08D81882371F08091590482FF0AC021
:1013800082E00E947C0F06C0CE010E948B09CE0134
:101390000E945005DF91CF91089580E090E00E9477
:1013A000502180E090E00E9475210E94E40E0E948E
:1013B000460F0E944A1C0E942B1C08950E94F42193
:1013C0000E94CD0908950E94D40E0E94DE0908955E
:1013D00092959F70963079F010F4925001C09A5017
:1013E000923068F4803F69F018F4883E40F409C0F8
:1013F000843F29F406C0883E20F0813F11F080E050
:10140000089581E00895FC012481222371F08781F1
:101410009085009719F00E94561104C08081918137
:101420000E94400B0E94E809089580E00895A6E01C
:10143000B0E0EDE1FAE00C948F2A2696E2E00C94FD
:10144000AB2AA9E0B0E0E7E2FAE00C948D2A2996F5
:10145000E4E00C94A92A089508950E942C0A0895A6
:101460000E942D0A08950E94300A80934403089533
:101470000E94330A089590914403892B0E94330AF5
:1014800008959091440389230E94330A089590910E
:10149000440389270E94330A08950E942C0A089564
:1014A0000E944D0A80934303089580E00E94500AF1
:1014B000089591E001C0990F8A95EAF7892F0E945B
:1014C000500A089521E030E001C0220F8A95EAF722
:1014D00080914303822B0E94500A089521E030E05E
:1014E00001C0220F8A95EAF7209580914303822359
:1014F0000E94500A089521E030E001C0220F8A9531
:10150000EAF78091430382270E94500A0895909140
:101510004303892B0E94500A089590914303892325
:101520000E94500A08959091430389270E94500A0F
:1015300008950895962F9770A1E001C0AA0F9A957B
:10154000EAF793E0769567959A95E1F7FB01EE0F40
:10155000FF1F6E0F7F1FFA01E60FF71F40E050E0FC
:10156000682F70E090819B01042E02C0369527956C
:101570000A94E2F72170219529272A23292721930C
:101580004F5F5F4F4330510569F708959B01782FF6
:10159000777043E0969587954A95E1F7FC01EE0F49
:1015A000FF1F8E0F9F1FF901E80FF91F40E050E069
:1015B00080E0219130E0072E02C0369527950A94ED
:1015C000E2F721703327042E01C0220F0A94EAF7B4
:1015D000822B4F5F5F4F4330510559F70895282FF5
:1015E000923070F4843060F4862F622F70E024E033
:1015F000929F600D711D112440E453E00E949A0AED
:101600000895923070F4843060F4292F90E060E403
:1016100073E034E0239F800D911D11240E94C60ABF
:10162000089580E00895CF92DF92FF920F931F9369
:10163000CF93DF936C010091430380914403082B07
:10164000C6E0D0E010E0C8010C2E02C09595879549
:101650000A94E2F780FD04C02197A8F7F12C07C097
:10166000FC2EB6018C2F0E947F120197A9F38F2DBB
:10167000DF91CF911F910F91FF90DF90CF90089550
:10168000CF93DF93EC010E94130BBE010E947F12E7
:10169000DF91CF9108951F93CF93DF93EB0190914A
:1016A0003F03992321F0CB010E94400B13C08823F4
:1016B00049F0CB010E94130B182F682FCE010E9416
:1016C000EF0A04C0CB010E94010B182FBE01812F2D
:1016D0000E947F12DF91CF911F910895E1E0F0E029
:1016E000DF0102C0AA0FBB1F6A95E2F7BD01DF014F
:1016F00002C0AA0FBB1F4A95E2F7AD01462B01C0FD
:10170000EE0F2A95EAF7942F9823491302C08E2BE7
:101710000895E0958E230895242F462F682F8091F9
:1017200043030E946E0B0E94500A0895FF920F938C
:101730001F93CF93DF93C091450389E0F82E8091EA
:101740004603C817B1F0D0E0FC9EF001FD9EF00DFD
:101750001124E95BFC4F0081118122813381448196
:1017600055816681778180850E94210A2196C77004
:10177000E6CFCDB7DEB7E5E00C94A82A0F931F9310
:1017800000918F0310919003209191033091920367
:101790004091930350919403609195037091960347
:1017A000809197030E94210A1F910F910895CF9372
:1017B000DF938091950382958F7009F04EC08091E0
:1017C0009403882309F449C080914503409146035E
:1017D0005091900360918F03C0919103D091920337
:1017E00079E08417D1F190E0789FF001799FF00DB6
:1017F0001124DF01A95BBC4F14962C91149722236E
:1018000049F111962C911197251324C02C91261380
:1018100021C015962C91159721111CC012962D915F
:101820003C9113972C1B3D0B283C310598F480917B
:1018300095038F70806180939503E35BFC4F8081FB
:101840008F70806180838FE893E00E94AA090E94D4
:10185000960B03C001968770C4CFDF91CF91089596
:10186000209145039091460359E02917A9F030E0F3
:10187000529FF001539FF00D1124E95BFC4F7181E1
:10188000761306C07081781303C07581741306C087
:101890002F5F3F4F2770E9CF80E0089581E00895E2
:1018A000A8E1B0E0E6E5FCE00C94852A8C0186E036
:1018B000F801DE01539601900D928A95E1F7F80147
:1018C0008481E5809FE8A92E93E0B92E909193033F
:1018D000911118C0882309F4B2C1EE20D9F1C801D2
:1018E0000E94030AF82E8823A9F189E0F801D501A6
:1018F00001900D928A95E1F7C5010E9476060E943B
:10190000D70BABC0F801C080D18082809380F0906B
:1019100094032091910330919203A401421B530B35
:10192000FF2009F42EC1483C510508F0C8C08823A7
:1019300009F487C180919503282F207F909190030F
:10194000222361F09D1509F46BC0C8010E94030AAF
:10195000811186C0C8010E94AA0971C19D111EC0D3
:1019600090918F039C111AC0409196035091970358
:10197000278130854217530789F4E1100FC08F701B
:101980008061809395030E94BE0B8FE893E00E94D4
:10199000AA0980919503F80186834FC1E1103AC0EE
:1019A00040E06D2D8C2D0E94300C40E06D2D8C2D73
:1019B0000E94300CE82E811140C1CB8ADC8A8B89D1
:1019C0009C890E94400B292F22952F70243020F4EF
:1019D0009F70223028F009C02A50223080F014C0B5
:1019E000992349F0811107C013C0992321F0F80110
:1019F0009681907F69F0805E883030F409C0803F26
:101A000038F0815F833020F0C8010E94AA09EF2CD2
:101A1000FE2C17C1809195038160809395030DC1C1
:101A200090918F039C1191CF409196035091970311
:101A3000F801278130854217530709F086CFE1105E
:101A400084CF8683C8010E94AA0989E0F801AFE823
:101A5000B3E001900D928A95E1F70E94BE0BF1C0B0
:101A6000EE2009F477CF20919503822F82958F7015
:101A700090E00297BCF080918F03909190039B8738
:101A80008A879D868C86809193038E871F86288BFC
:101A900080919603909197039A8B898BCE010A9639
:101AA0000E94AA0989E0F801AFE8B3E001900D9225
:101AB0008A95E1F70E94D70B0E94BE0BC0C090919F
:101AC0009503292F207FA1F4682D9E8A8D8AA60177
:101AD0007E899E2D0E94170A8FE893E00E94AA0932
:101AE00089E0F50111928A95E9F70E94BE0BA5C025
:101AF000882309F4A6C0809190038D111AC08091AB
:101B00008F038C1116C04091960350919703F801F2
:101B1000278130854217530761F4E1100AC096838C
:101B2000C8010E94AA0989E0F50111928A95E9F796
:101B300088C0C8010E94030A882309F40BCFEE2055
:101B400009F408CF20919503822F82958F7090E041
:101B500002970CF4A7CF80918F03909190039A8302
:101B600089839C828B82809193038D831E822F8335
:101B7000809196039091970399878887CE0101966B
:101B80008FCF483C510508F04AC0882309F457C05C
:101B9000FE2CEE2009F4DECE809190038D1131C031
:101BA00080918F038C112DC0209196033091970363
:101BB000F801878190852817390719F580919503D9
:101BC00080FD16C082958F70482F50E04115510559
:101BD00079F02091950326834F30510509F432CFD7
:101BE0008F5F982F9295907F822F8F70892B29CFAE
:101BF00089E0F801AFE8B3E001900D928A95E1F732
:101C000020C0C8010E94030A81114CCF8091950326
:101C1000816080939503C8010E94AA0912C0682DB3
:101C20009E8A8D8AA6017E899E2D0E94170A89E0D0
:101C3000F50111928A95E9F710CFF12C02C0FF242B
:101C4000F3948F2D6896ECE00C94A12AA2E1B0E009
:101C5000ECE2FEE00C948C2A0A871B872C873D87D8
:101C60004E875F87688B798B8A8BCE010A960E949C
:101C7000500C882371F04E854423C1F10A851B85E1
:101C80002C853D855F85688979898A890E94210A2A
:101C90002DC089E0FE013A96DE01119601900D9269
:101CA0008A95E1F76E85662309F12091460330E0BD
:101CB000C9010196877099274091450350E0841728
:101CC000950709F43FC06D8399E0929FD001939FDF
:101CD000B00D1124A95BBC4FFE01319601900D920D
:101CE0009A95E1F7809346030E94960B89E0F82EBF
:101CF0008091450390914603891789F1F89EC001B0
:101D00001124895B9C4F0E94500C882341F1E09183
:101D10004503FE9EF0011124E95BFC4F0081118117
:101D200022813381448155816681778180850E943B
:101D3000210A8091450390E001968770992780934E
:101D40004503D6CF0E94E309109246031092450343
:101D5000EFE8F3E089E0DF011D928A95E9F76296EA
:101D6000E5E00C94A82A8091A00386958695869537
:101D700008958091A003877008959091A0039770B3
:101D800081E009F480E008958091AC03089590917A
:101D9000AC03892B8093AC03089580959091AC039C
:101DA00089238093AC0308951092AC030895909119
:101DB000AB03892B8093AB03089580959091AB037F
:101DC00089238093AB0308951092AB03089508957F
:101DD0000E94E70E08950E94E80E08959091A203D4
:101DE000292F2823821729F0982B9093A2030E9471
:101DF000EB0E08959091A203292F282331F08095AE
:101E000089238093A2030E94EB0E08958091A20380
:101E1000882329F01092A20380E00E94EB0E08951F
:101E20000F931F93CF93DF93009196021091970227
:101E3000C091AC038091AB03C82B8091A20388238F
:101E400031F0C82B0E949A2181110E94060FF801DF
:101E5000C083C0919602D091970248E050E068E9B3
:101E600073E0CE010E94CA2A892B59F088E0FE0156
:101E7000A8E9B3E001900D928A95E1F7CE010E94A6
:101E80003721DF91CF911F910F9108950E94100F7C
:101E900008950E94E70E08950E94490F08959091B9
:101EA000A103292F282331F0809589238093A10352
:101EB0000E944C0F08950E94E70E089590915904D6
:101EC00092FF11C098E0899F90011124262B209346
:101ED000A0030E94620A8091A0038695869586954C
:101EE0000E945B0F08950E94620A08951092A00359
:101EF00080E00E945B0F08959091A0038095892354
:101F00008093A003282F277069F4981759F09091B7
:101F1000590492FF07C08695869586950E946E0AA1
:101F20000E94760F08959091590492FB222720F980
:101F3000281769F080FB92F9909359048091580416
:101F4000909159040E94DC0F82E00E947C0F08955A
:101F50008091590482FB882780F991E089270E94AB
:101F6000930F089581E00E94930F089580E00E94EE
:101F7000930F08956FEF7FEF80E090E00E941C2B9D
:101F8000089580E090E00E94E82A853E9E4F19F473
:101F90000E94CD1F089580E0089582E090E00E94A5
:101FA000E02A089583E090E00E94E02A089584E00A
:101FB00090E00E94E82A0895BC0184E090E00E942D
:101FC0001C2B0895AB01BC018FE090E00E94102B08
:101FD0000895AB01BC0183E190E00E94102B0895AD
:101FE00060E070E0CB010E94E90F089560E070E0CE
:101FF000CB010E94E20F0E94F00F0895A8E0B0E02C
:10200000E4E0F0E10C948F2A65EE7EEF80E090E052
:102010000E941C2B60E082E090E00E94FE2A81E09A
:102020008093440361E083E090E00E94FE2A60E038
:1020300074E184E090E00E941C2B60E086E090E078
:102040000E94FE2A60E087E090E00E94FE2A40E0C5
:1020500050E0BA0188E090E00E94102B60E083E23B
:1020600090E00E94FE2A60E08CE090E00E94FE2A50
:1020700060E08DE090E00E94FE2A19821A821B82A5
:102080001C821D821E821F82188648E050E067E194
:1020900070E0CE0101960E94EE2A40E050E0BA01C5
:1020A0008FE190E00E94102B80E00E94E61F0E94CA
:1020B0001B200E94F60F2896E2E00C94AB2A0E94A7
:1020C000FE0F0895682F8EE090E00E94FE2A08958A
:1020D000A6E0B0E0EEE6F0E10C948D2A0E94DC224E
:1020E0008C018091AD039091AE030817190781F020
:1020F00019821A820E94DC22682F49815A81792F25
:1021000080E090E00E9441061093AE030093AD037F
:102110002696E4E00C94A92A0E94E8226093B50375
:102120007093B6038093B7039093B8036093B103A1
:102130007093B2038093B3039093B403089581E046
:10214000089581E008950E94A110089508950E94C5
:10215000A61008950E94A61008950E94AA1008953E
:102160000E94A61008950E94B01008950E94A61023
:1021700008958FE693E10E948A140E94B6100E948F
:10218000B31008950E94A7100E94A61008950E94FF
:10219000C10F811102C00E945F100E94CD0F809379
:1021A000B9030E94D70F90935904809358040E945A
:1021B000AD140E94D20F0E94380A809143030E94FE
:1021C0004D0A08950E94D3220E942B200E94EF13F3
:1021D0000E94C7100E9415060E94AD100895A6E047
:1021E000B0E0E5EFF0E10C94862A0E949F10811187
:1021F00003C00E94681050C00E94FF131091AF03EB
:1022000080E00E947113811307C01091B00381E038
:102210000E947113181769F38091B90381FD0E9420
:1022200077130E94A310A82E8FEAE82E83E0F82EE1
:1022300010E099249394812F0E947113B82EF70116
:10224000C080C82609F100E0DD24D3948C2D8D21B7
:10225000A9F0AA2099F009831A830E94DC229C83AA
:102260008B839D8291E08B2D8D2109F490E0498133
:102270005A816B817C818D810E9441060F5FDD0C4C
:10228000043021F7F701B0821F5FFFEFEF1AFF0A5A
:10229000123089F60E948C100E941A160E946C1C43
:1022A0000E9428062696EBE00C94A22A1F93CF9357
:1022B000DF930E948412EC01C11580E5D807E8F590
:1022C000C11590E4D90708F0A8C0C03ED10530F58B
:1022D000CD3CD10508F094C0C83AD10578F4C53A90
:1022E000D10508F083C0C130D10509F47CC008F4E1
:1022F000F2C0C430D10508F0F1C0EDC0C33CD10537
:1023000008F0E9C0C85AD0E0CC0FDD1FC851DD4F3E
:102310000990D881C02DCE019464E1C0C11580E23E
:10232000D80708F0CBC0C11591E0D90708F06BC001
:10233000C83ED10508F4D2C0CEC0C03682E5D80769
:1023400028F5C03492E5D90708F079C0C03282E59B
:10235000D80708F06CC0C11592E5D90708F481C010
:102360004C2F4695469580E2489FA0011124C370EA
:1023700021E030E0C90102C0880F991FCA95E2F739
:10238000EA01C82BD92BCE019D68A9C0C03A82E5CD
:10239000D807B8F48C2F8F71C03892E5D90708F0B0
:1023A0007BC08695869590E2899F90011124C37029
:1023B00081E090E002C0880F991FCA95E2F79A6801
:1023C00068C0C03C82E5D80708F46DC0C03E92E505
:1023D000D90708F080C0CF71DD27DC2FCC27CE01D4
:1023E000806F906A7CC081E090E079C0C55AD0E0EF
:1023F000C25EDC4F8881C82FD0E0CE0190646FC0F0
:10240000CE0190656CC08D2F0E942013182FCE0135
:1024100099270E9484121F715CC0CE0199270E94E7
:102420008412CC27DF70D06A8C2B9D2B58C0CF71C3
:10243000D0E0DC2FCC27CE01816F906A50C08C2F6A
:102440008F718695869590E2899F90011124C370C3
:1024500081E090E002C0880F991FCA95E2F79C685E
:1024600018C08C2F8F710E94201395E0D695C795C8
:102470009A95E1F7CF70D0E0DC2FCC27282F30E001
:1024800084FF05C084E0220F331F8A95E1F7D069ED
:10249000CE01822B932B23C090E0D82FCC27CE01E6
:1024A000846F906A1CC08C2F8F710E9420138F71D3
:1024B00090E0D82FCC27CE01906211C08D2F8F7164
:1024C0000E942013182FCE0199270E9484121F7199
:1024D0009062912B04C080E090E001C0CE01DF91BA
:1024E000CF911F910895723038F4643028F4462F4C
:1024F000672F0E94C118089580E090E008950E941F
:1025000073120E94561108958238910569F1B0F452
:102510008133910509F475C048F48932910509F4B5
:1025200067C08A32910509F471C008958533910519
:1025300009F459C089339105B9F00895833E910596
:1025400089F138F4803E9105D1F0823E910529F160
:102550000895863E9105C9F1873E9105D9F1843EE3
:10256000910509F06CC027C02091580420FD57C088
:1025700021FD55C02091590423FD5BC00895809131
:10258000580480FD48C08091590480FF48C0809164
:10259000580484FD46C083EE51C08091580482FFE8
:1025A0003CC0F5CF8091580482FD37C0809159041A
:1025B00080FD35C0ECCF8091590481FF36C08091F9
:1025C000580484FD2EC087EE39C08091580483FFE3
:1025D0002AC0F5CF8091580483FD25C0809159040D
:1025E00081FD23C0ECCF8091580485FD22C01FC01F
:1025F0008091580485FD1BC08091590483FF19C048
:102600000AC08091580486FD16C017C080915804F6
:1026100086FD13C010C089E311C082EE0FC080EEAA
:102620000DC080E00BC086EE09C084EE07C085E3D4
:1026300005C089E203C08AE201C081E390E0089509
:102640009091580492FF10C041E0282F247124304B
:1026500009F040E031E0282F2871283009F030E0FF
:10266000431711F02CE0822793FF10C041E0282F80
:102670002471243109F040E031E0282F28712831FD
:1026800009F030E0431711F02CE082273091590413
:1026900030FF10C051E0282F2171213009F050E0A7
:1026A00041E0282F2871283009F040E0541711F03C
:1026B00029E0822731FF10C041E0282F217121310C
:1026C00009F040E031E0282F2871283109F030E08E
:1026D000431711F029E0822794FD877E089580E05A
:1026E0000895E82FF0E0E45AFB4F808108950895A3
:1026F00008950E94781308950E94791308950E9406
:10270000781308950E947F130895CF93DF9341E2D9
:1027100053E0A1E0B0E020E030E0FA01E20FF31F67
:1027200080818F3FA1F0E82FE295EF70F0E061A18A
:102730008F70ED0102C0CC0FDD1F8A95E2F7CE014C
:102740009C2F9095962391A392A1892B82A32F5F12
:102750003F4F2430310509F74C5F5F4FD3E04932DA
:102760005D07C9F6DF91CF9108950F931F93CF9323
:10277000DF93DC0170E08B01000F111F000F111FB0
:1027800040E050E0F1E0E0E0CA01800F911F8F5D72
:102790009C4FEC0198819F3F89F0292F22952F7043
:1027A00030E0E90128A130E09F7002C035952795FF
:1027B0009A95E2F720FD02C02F2F02C020E030E002
:1027C000E22BFF0F4F5F5F4F44305105E9F6A60F34
:1027D000B71FEC93DF91CF911F910F9108950E9445
:1027E000851310925D0410925C0410925B041092A9
:1027F0005A0482E00E9435140E9482130895A2E0D8
:10280000B0E0E5E0F4E10C948E2A1A82198260E0CF
:10281000CE0101960E94B51361E0CE0101960E949F
:10282000B51342E050E0BE016F5F7F4F8AE594E050
:102830000E94CA2A21E0009709F420E0892B31F098
:1028400089819A8190935B0480935A0442E06CE5FD
:1028500074E08AE594E00E943614182F0E947C13DD
:10286000812F2296E3E00C94AA2A0895EF92FF921A
:102870000F931F93CF93DF937C018B01C42F2223EF
:1028800051F081E08093BC030E94DC229093BB0353
:102890008093BA0304C08091BC03811102C080E020
:1028A0001AC08091BA039091BB030E94F42205974D
:1028B000B0F3D0E0AE01B701C8010E94CA2A892B4B
:1028C00039F0AE01B701C8010E94D72A81E001C0EA
:1028D00080E01092BC03CDB7DEB7E6E00C94A72AE7
:1028E0000E94EF1008950E9473220E94D0240E943B
:1028F000B9100E94EA240E94E2100E94F7240E946C
:10290000FC240E9470140E9416250E9498230E94A5
:10291000C210F5CF909339038093380308950E9435
:10292000BA0F089581E00E947113817008950E948A
:10293000FF132FEF86E791E0215080409040E1F7B0
:1029400000C000000E94FF130E949214882321F00F
:102950000E948F140E94292308950E9497140895BD
:10296000EF92FF920F931F93CF93DF9380913004E8
:10297000882309F441C0C091BD038DE0F82E8091F9
:102980003004C817A8F5EE24E394EC0EE092BD03E2
:10299000D0E0FC9EF001FD9EF00D1124E853FC4FA9
:1029A0008481882319F187819085892B51F4818551
:1029B00092858F3F2FEF920721F061E00E945B0329
:1029C0000BC0008111812281338144815581668150
:1029D000778180850E94260EFC9EF001FD9EF00D01
:1029E0001124E853FC4F14820E94E40ECE2DC7CF71
:1029F000109230041092BD03CDB7DEB7E6E00C9420
:102A0000A72A0895CF93DF931092320410923104D5
:102A1000C0E0D0E00E94DA04C817D90758F4CE010C
:102A20000E94DD04FC018581811102C0148216829E
:102A30002196F0CFDF91CF9108951F93CF93DF932D
:102A40001091C6032091C7031217F9F0C12FD0E0EF
:102A5000FE01EE0FFF1FE254FC4F408151814817E9
:102A6000590779F40E94DD0421E0FC012483809160
:102A7000C60318130AC02196C370DD27C093C6038E
:102A800004C021961C2F1370DFCFDF91CF911F91CF
:102A90000895A0E0B0E0EFE4F5E10C94842AEB01A6
:102AA0002C8121115EC070903004A8ECB3E020E0CE
:102AB00030E0812C61E070E0271508F050C01B96D3
:102AC000AD90BC901C97C880D9804FEF5FEF912CE0
:102AD000E92CF12CF701EE0FFF1FEC0DFD1D059108
:102AE0001491A016B10609F4A7010115110511F002
:102AF0009394EECF4F3FEFEF5E0769F1FB0102C009
:102B0000EE0FFF1F4A95E2F78E2AAB01092C02C097
:102B1000440F551F0A94E2F741505109E82DF0E0A7
:102B20004E175F07A9F44A815B816DE0629FF00157
:102B3000639FF00D1124E853FC4F5087478324E036
:102B40002483108211829287818721E02D8307C020
:102B500014961C9214972F5F3F4F1D96ADCF0E9485
:102B60001D15CDB7DEB7EDE00C94A02A0F931F938F
:102B7000CF93DF93C091C6038091C703C817A1F01C
:102B8000D0E08E01000F111F02541C4FF80180810C
:102B900091810E94DD04BC01F801808191810E9435
:102BA00049152196C370E8CF0E94B0140E94021507
:102BB000DF91CF911F910F910895FF920F931F9373
:102BC000CF93DF93DC010C911196FC90119780E07C
:102BD00090E020E0E02FFF2DE20FF11DE20FF11D4C
:102BE0004591549141155105B1F0FB01108131819E
:102BF00090E0E12FF32FE90FF11DE90FF11DC591D1
:102C0000D491209731F04C175D0709F481E09F5F64
:102C1000F0CF2F5FDFCF882321F0921728F0CD016E
:102C200004C080E090E001C0CB01CDB7DEB7E5E0A5
:102C30000C94A82A80919802882341F18091330452
:102C400090913404009711F10E94F42220913104F4
:102C50003091320428173907C8F49091C603809147
:102C6000C703981759F00E94B615109232041092BB
:102C70003104109234041092330408950E94B01469
:102C800010923404109233040E9402150895109299
:102C9000340410923304109298028091C7038093F9
:102CA000C6030E9402150E94B014089580919802F4
:102CB000882319F00E944716089581E080939802B6
:102CC0000895ACE0B0E0E7E6F6E10C947F2A4C0111
:102CD0006B0180352CE7920741F4FB01158111232C
:102CE000C9F081E0809398029AC18135FCE79F0783
:102CF00039F4FB011581112369F00E9447168FC139
:102D000082359C4739F4FB011581112319F00E948B
:102D1000561685C19091430380914403892B0E94EC
:102D2000EE05182F0E940115181731F0F601608189
:102D300071810E9473124C01A12CB12C1C86662457
:102D40006394712CCE0101969B878A870E94DA04D6
:102D5000A816B90608F01CC1C5010E94DD047C015B
:102D6000FC014081518144244A94542C60E0262F78
:102D700030E0F901EE0FFF1FE40FF51F85919491EC
:102D80008816990609F42901892B11F06F5FEFCF9E
:102D9000FFEF4F165F0609F4F3C0F701748171115C
:102DA00003C08091980202C080E090E08170F6013B
:102DB0003580F70195812681332009F481C088236D
:102DC00009F47EC0911114C0C301042C01C0880F06
:102DD0000A94EAF7282B26838091310490913204DB
:102DE000C29730F482E390E09093320480933104F0
:102DF000930102C0220F331F6A95E2F72150310977
:102E0000F701868190E02817390709F0BAC0809150
:102E1000330490913404009741F00E94F422C39748
:102E200020F021E0F7012483ACC02090C60380E0AD
:102E300090E02091C703221669F1422C512CF20137
:102E4000EE0FFF1FE254FC4F808191810E94DD0450
:102E50008C01B7010E94DD150097A9F021E0FC016B
:102E60002483E816F90609F48CC02091C6032212C7
:102E70000AC00817190739F492012F5F3F4F2370DA
:102E800033272093C60392012F5F3F4F422F437099
:102E9000242ECFCFE816F90609F473C0422C512C2A
:102EA000F201EE0FFF1FE254FC4FB182A0828FEFC0
:102EB000481A580A93E0492255244092C70361C03A
:102EC000911114C0A30102C0440F551F6A95E2F787
:102ED0004150510930E04217530709F043C07723AE
:102EE00009F441C0C5010E941D153CC0822F90E02D
:102EF0009C012150310928233923042C02C09595C7
:102F000087950A94E2F7232B59F580FF29C0F70132
:102F100082819381892BE1F0EA85FB8529E011927A
:102F20002A95E9F70E94DC22282F8B839C8344E0BA
:102F30004D83F70182819381782F88879987098152
:102F40001A813C815E816F81892F0E94260E04C008
:102F500060E0C5010E945B03F701158281E003C0B8
:102F6000817001C080E09301042C01C0220F0A94FB
:102F7000EAF72095F701968129232683382E01C090
:102F8000312CFC85F329FC872FEFA21AB20ADECE82
:102F9000F6018581882379F1FC85FF2361F10E9488
:102FA000DC22909334048093330480913004883081
:102FB00098F591E0980F9093300499E0F601DE01C6
:102FC000119601900D929A95E1F72DE0829FC00134
:102FD000112488539C4F29E0FE013196DC010190B9
:102FE0000D922A95E1F72FEF3FEFFC013287218701
:102FF0009486838611C09091C6038091C703981769
:1030000019F00E94B61508C00E94B0141092340442
:10301000109233040E94021511E0FC851F27812FB6
:103020002C96E2E10C949B2A87E0089550E0440F2F
:10303000551F28E0629F400D511D11249A0160E147
:10304000869F200D311D1124C901889608950F9384
:103050001F93CF93DF938730A0F4623090F4443015
:1030600080F40E9416188C010E94E02A90E0D82F6C
:10307000CC27C80101960E94E02A9E01282BC90195
:1030800002C080E090E0DF91CF911F910F910895F1
:103090000F931F93CF93DF93873080F4623070F4E7
:1030A000443060F4E9010E9416188C016D2F0E94D3
:1030B000FE2A6C2FC80101960E94FE2ADF91CF9153
:1030C0001F910F9108951F93CF93DF93D0E0C0E03D
:1030D00010E0412F6C2F8D2F0E94BE049C01412FC8
:1030E0006C2F8D2F0E9448181F5F143091F7CF5F0F
:1030F000C23071F7DF5FD73051F7DF91CF911F9169
:103100000895EF92FF920F931F93CF93DF93EA01FD
:103110007A01E60EF71E8C01C8018896CE15DF05F0
:1031200061F00037110520F40E94E02A888301C075
:10313000188221960F5F1F4FEFCFCDB7DEB7E6E0C5
:103140000C94A72AEF92FF920F931F93CF93DF93D4
:10315000EA017A01E60EF71E8C01C8018896CE15A9
:10316000DF0551F00037110518F468810E94FE2A2E
:1031700021960F5F1F4FF1CFCDB7DEB7E6E00C947D
:10318000A72A873038F4623028F4443018F40E94BB
:103190002718089580E090E0089580E1089588E67A
:1031A00093E00895EF92FF920F931F93CF93DF93D5
:1031B000EA017A01E60EF71E8C01C80188569F4F7E
:1031C000CE15DF0569F0083623E0120720F40E94CF
:1031D000E02A888301C0188221960F5F1F4FEDCF30
:1031E000CDB7DEB7E6E00C94A72AEF92FF920F93DB
:1031F0001F93CF93DF93EA017A01E60EF71E8C014D
:10320000C80188569F4FCE15DF0559F0083623E0D8
:10321000120718F468810E94FE2A21960F5F1F4F43
:10322000EFCFCDB7DEB7E6E00C94A72ACF93DF93BC
:10323000C8E9D0E060E0CE010E94FE2A2196C115C7
:1032400084E0D807B9F7DF91CF910895A8E0B0E006
:10325000ECE2F9E10C94852AF82E8FE08F1508F442
:1032600074C08FEF93E00E94E02A81116EC008E9DC
:1032700010E0FF2071F0011594E0190709F465C012
:10328000C8010E94E02A811101C0FA940F5F1F4F0C
:10329000F0CFFE0131966F0188E011928A95E9F72F
:1032A0007801FFEFEF1AFF0AC8010E94E02A898324
:1032B0001A82882309F449C0813009F040C05801BE
:1032C00082E0A80EB11CC7010E94E02A8A838823ED
:1032D000E1F19FEF980F933060F4780193E0E90EED
:1032E000F11CC5010E94E02A8B83882371F11C82A6
:1032F00026C0843019F54E01E3E08E0E911C02E0E9
:1033000010E07501FFEFEF1AFF0AC5010E94E02AE5
:10331000F40181934F018823C1F08C3741F4E2E03E
:10332000F0E0EC0FFD1FE00FF11F108208C00F5FEF
:103330001F4F57010730110521F707C0750160E0E5
:10334000C6010E940C1E8701ABCF2896ECE00C94BE
:10335000A12ACF93DF9386319C4709F5EB010E94A8
:10336000C40E9D81992371F08A7A91E009F490E06E
:1033700090933504811102C089E201C085E30E9467
:10338000E42109C080913504811102C089E201C0A5
:1033900085E30E94EC210E94460F80E001C081E09D
:1033A000DF91CF910895CF93DF93FC01DB01159658
:1033B0008C91882309F4DDC09F01305723323105F9
:1033C00008F0D8C0EF010E94D70F90935904809362
:1033D0005804FE01E150F047E232F10520F4E456D2
:1033E000FF4F0C94722A809158048160AAC080918A
:1033F00059048860B2C0809158048260A2C0809154
:10340000580420C08091580488609BC08091590462
:103410001EC0809159048260A0C0809158048061D0
:1034200090C08091580480628CC080915804806460
:1034300088C00E94E30980915804806882C080910E
:103440005804886084607DC08091590482608160E6
:1034500084C0809158048E7F74C080915904877F06
:103460007CC0809158048D7F6CC08091580420C02E
:1034700080915804877F65C0809159041EC0809157
:1034800059048D7F6AC0809158048F7E5AC0809104
:1034900058048F7D56C0809158048F7B52C00E9483
:1034A000E309809158048F774CC080915804877F3E
:1034B0008B7F47C0809159048D7F8E7F4EC0809155
:1034C000580482FB222720F991E0922790FB82F991
:1034D00090FB83F936C080915904982F9095917094
:1034E0008E7F892B90FB81F938C08091580486FB30
:1034F000222720F991E0922790FB86F922C00E94B2
:10350000E3098091580487FB222720F991E0922754
:1035100090FB87F916C081E001C080E00E94621034
:103520001EC08091580484FB222720F991E0922745
:1035300090FB84F906C080915804982F909590FBD9
:1035400080F9809358040BC08091590483FB222793
:1035500020F991E0922790FB83F9809359048091A0
:103560005804909159040E94DC0F0E94E30980E006
:1035700001C081E0DF91CF910895282F35EB23031F
:10358000C001112497FF03C08058910902C08058E0
:103590009F4F892F089580913C0480FF06C0609161
:1035A0009E0270E0660F771F26C081FF04C0609105
:1035B0009E0284E005C082FF07C060919E0288E001
:1035C000689FB001112417C090913B049923D1F05A
:1035D00060919D02961788F720919E0288E0289FAF
:1035E00090011124929FA001939F500D112470E02F
:1035F000CA010E945E2A6038710540F461157105A8
:1036000019F406C068E070E0862F08958FE70895EA
:1036100081E0089580913C0480FF08C060919A0287
:1036200070E0759567957595679521C081FF06C017
:1036300060919A0270E07595679519C082FF04C089
:1036400060919A0270E010C090913A04992399F029
:10365000609199029617A0F780919A02899FC00104
:10366000112470E00E945E2A6038710540F46115F3
:10367000710519F406C061E070E0862F08958FE7A8
:10368000089581E0089590913F0491110CC09091AC
:103690004004911108C090914204911104C090918E
:1036A0004104992331F098E090933B0491E090938A
:1036B0003A048D3C21F40E94CB1A819504C08E3CC3
:1036C00029F40E94CB1A8093400408958F3C21F482
:1036D0000E94CB1A819504C0803D29F40E94CB1A28
:1036E00080933F040895893D19F40E940A1B05C088
:1036F0008A3D31F40E940A1B81958093410408950C
:103700008B3D21F40E940A1B819504C08C3D29F455
:103710000E940A1B8093420408959FE2980F9830FC
:1037200078F421E030E0A90102C0440F551F9A95BA
:10373000E2F7CA0190913E04892B80933E040895DC
:103740008D3D21F480913C0481600BC08E3D21F4BD
:1037500080913C04826005C08F3D29F480913C0437
:10376000846080933C0408958D3C39F4909140042A
:1037700097FF35C01092400459C08E3C29F49091B7
:1037800040041916BCF32BC090913F048F3C29F4E0
:1037900097FF25C010923F0449C0803D19F41916C7
:1037A000CCF31DC090914104893D29F41916BCF455
:1037B000109241043BC08A3D19F497FF10C0F8CF26
:1037C0008B3D39F49091420497FF09C01092420456
:1037D0002DC08C3D21F4909142041916BCF39FE258
:1037E000980F983080F421E030E0A90102C0440F26
:1037F000551F9A95E2F7CA01809590913E0489235E
:1038000080933E0413C08D3D21F480913C048E7F53
:103810000BC08E3D21F480913C048D7F05C08F3D0F
:1038200029F480913C048B7F80933C0480913F0479
:10383000811106C080914004811102C010923B04A6
:1038400080914104811106C080914204811102C01F
:1038500010923A0408950E94DC2220913F04211125
:1038600004C020914004222321F0909339048093D6
:10387000380420914104211104C0209142042223E4
:1038800021F090933704809336048DE394E00E94F6
:1038900042210895EDE3F4E086E0DF011D928A9570
:1038A000E9F710923B0410923A0410923C040895F8
:1038B000FC01828181110DC0838181110AC0848144
:1038C000811107C091E08581811101C090E0892FAD
:1038D00001C081E081700895A6E0B0E0E2E7FCE17C
:1038E0000C948E2A86E0EDE3F4E0DE01119601905F
:1038F0000D928A95E1F710923F04109240041092C5
:103900004104109242048B81811104C08C81882370
:1039100009F456C080913804909139040E94F42231
:10392000AC0190913B04992339F020919F0230E043
:103930002417350758F044C02091A0028AE0289F40
:10394000900111242417350718F03AC09F3F19F051
:103950009F5F90933B041B81112361F00E94CB1A5F
:10396000111614F09FEF01C091E0989F902D112443
:1039700090933F041C81112361F00E94CB1A111611
:1039800014F09FEF01C091E0989F902D1124909327
:10399000400480913F04882399F010914004112342
:1039A00079F00E94BD1A811101C081E080933F042B
:1039B000812F0E94BD1A811101C081E080934004D3
:1039C0008D81811104C08E81882309F456C08091B5
:1039D0003604909137040E94F422AC0190913A048D
:1039E000992339F020919B0230E02417350758F0D5
:1039F00044C020919C028AE0289F90011124241742
:103A0000350718F03AC09F3F19F09F5F90933A0432
:103A10001D81112361F00E940A1B111614F09FEF03
:103A200001C091E0989F902D1124909341041E8134
:103A3000112361F00E940A1B111614F09FEF01C0C0
:103A400091E0989F902D112490934204809141041D
:103A5000882399F010914204112379F00E94BD1A35
:103A6000811101C081E080934104812F0E94BD1A21
:103A7000811101C081E080934204BE016F5F7F4FDE
:103A80008DE394E00E94FF21811105C08DE394E055
:103A90000E94581C81110E942B1C86E0FE01319669
:103AA000ADE3B4E001900D928A95E1F72696E3E04C
:103AB0000C94AA2A8F929F92BF92CF92DF92EF929C
:103AC000FF920F931F93CF93DF93E82FF0E0E85B13
:103AD000FB4FB490282F26952695269530E0F901C6
:103AE000E851FB4FE4908770F12C082E02C0F5944A
:103AF000E7940A94E2F791E0E922FF24F901E85201
:103B0000FB4FC490D12C082E02C0D594C7940A94C0
:103B1000E2F7E1E0CE22DD24F901E853FB4FC49146
:103B2000D0E002C0D595C7958A95E2F7C170DD2730
:103B3000062F10E0E114F10471F081EE0E94890675
:103B4000C801009741F0EFE9FFE03197F1F700C0BD
:103B500000000197F6CFC114D10439F44801B8012F
:103B60008B2D0E947107C8010EC086EE0E94890647
:103B7000C801009799F3EFE9FFE03197F1F700C032
:103B800000000197F6CF009741F0EFE9FFE0319791
:103B9000F1F700C000000197F6CFCD2819F5EF2806
:103BA00079F081EE0E9417070115110549F08FE9A0
:103BB0009FE00197F1F700C0000001501109F4CF18
:103BC000CD2BF1F08CE20E94890781149104C1F0A1
:103BD000EFE9FFE03197F1F700C00000F1E08F1A44
:103BE0009108F3CF86EE0E941707C8010097B9F23B
:103BF000EFE9FFE03197F1F700C000000197F6CF41
:103C0000DF91CF911F910F91FF90EF90DF90CF90B8
:103C1000BF909F908F900895EF92FF920F931F9304
:103C2000CF93DF93EC01162F0AE08881882309F4F3
:103C300057C0813009F04FC08981813041F47E0145
:103C400082E0E80EF11C8A810E94890709C0823057
:103C500049F47E01E2E0EE0EF11C8A810E948906A1
:103C6000E7012DC0833041F47E01F2E0EF0EF11C3C
:103C70008A810E941707F4CF843011F021961FC06B
:103C80002A81229680E090E030E0205331092A30EA
:103C9000310558F4089FA001099F500D1124C90156
:103CA000840F951F21962881EFCF009741F0EFE90F
:103CB000FFE03197F1F700C000000197F6CF812FA8
:103CC00090E0009759F0EFE9FFE03197F1F700C07D
:103CD00000000197F6CF612F0E945A1D2196A5CFB3
:103CE000CDB7DEB7E6E00C94A72AEF92FF920F93D0
:103CF0001F93CF93DF938C01F62E8AE0E82EF80114
:103D00008491882309F44DC0813009F042C0E80154
:103D10002196FE018491813031F42196FE01849137
:103D20000E9489073AC0823039F4E8012296FE01E8
:103D300084910E94890631C0833039F4E8012296CB
:103D4000FE0184910E94170728C0843031F5E801F4
:103D50002296FE01249180E090E030E0205331096A
:103D60002A30310560F4E89EA001E99E500D11242F
:103D7000C901840F951F2196FE012491EECF009773
:103D800061F0EFE9FFE03197F1F700C00000019723
:103D9000F6CF6F2D0E945A1DE8018E010F5F1F4F55
:103DA000AECFCDB7DEB7E6E00C94A72A0F931F93F2
:103DB000CF93DF93C42FD22FFC0185818823B1F0EC
:103DC000409345040E94DC22909344048093430472
:103DD00080E28C0F883008F04DC0C77081E001C0D0
:103DE000880FCA95EAF70E94930744C08091450462
:103DF000481330C080914304909144040E94F422FF
:103E0000883C910538F510E21D0FCD17B9F080E21E
:103E10008C0F883040F4C77081E001C0880FCA95CC
:103E2000EAF70E949A07183010F581E09D2F9770ED
:103E300001C0880F9A95EAF70E949307802F0E948D
:103E400089071830B8F4D77081E001C0880FDA957F
:103E5000EAF70AC080E28C0F883060F4C77081E016
:103E600001C0880FCA95EAF70E949A0703C0802F05
:103E70000E948907DF91CF911F910F9108950F93B1
:103E8000FC01E851FC47E730F10590F5CB01E25425
:103E9000FF4F0C94722A06E221EE41EE6AE17CE7C4
:103EA00023C007E225EE45EE6BE17CE71DC006E28C
:103EB00021EE40EE68E17CE717C007E225EE44EE14
:103EC00069E17CE711C006E221EE42EE6CE17CE79D
:103ED0000BC007E225EE46EE6DE17CE705C008E287
:103EE00021E045EE6EE17CE70E94D61E80E008C02E
:103EF000FB018581882319F01092450401C081E0FF
:103F00000F9108951F93CF93DF9387372CE7920784
:103F100021F088379C4759F031C0FB01C581CC2383
:103F200019F00E94C41F09C00E94C41F18C0FB01E1
:103F3000C581CC2391F00E94C71F0E94620A0E9493
:103F4000CA1FD82F0E94C71FC82F0E94C41F4D2F01
:103F50006C2F0E948C0BC0E012C00E94C71F0E94F1
:103F60006E0A0E94CA1F182F0E94C71FD82F0E94D6
:103F7000C41F412F6D2F0E948C0B01C0C1E08C2FFC
:103F8000DF91CF911F9108958091A30208958091B0
:103F9000A20208958091A102089584E290E00E9417
:103FA000E02A843281F485E290E00E94E02A8930A0
:103FB00051F486E290E00E94E02A91E0843009F01A
:103FC00090E0892F01C080E081700895CF93C82FC1
:103FD000811102C06FEF01C064E284E290E00E94B0
:103FE000FE2AC11102C06FEF01C069E085E290E0D6
:103FF0000E94FE2AC11102C06FEF01C064E086E298
:1040000090E00E94FE2ACF910895089587E290E003
:104010000E94E02A682F70E080E090E00895089503
:10402000CF93C62F0E940F206C2F87E290E00E9452
:10403000FE2ACF91089580E00E94E61F60E070E0C4
:10404000CB010E9410200E9463180E94161981E083
:104050000E94E61F08950E9405200E9406200E94EB
:104060000F200E94CD1F811102C00E941B200895C5
:1040700008959C01FB018581882351F0A9015757C0
:104080004038510530F4C9010E94261980E0089596
:1040900081E008952FEFFC01208308950E944A20BB
:1040A000089580E00895A0E0B0E0E9E5F0E20C9426
:1040B000872AEC01F62E0E9451208111BEC0E881B2
:1040C0008E2F90E0FC013197E331F10508F0AFC08D
:1040D000EB53FF4F0C94722A19828CE06BC08981DC
:1040E000823089F030F4813009F0A1C00E94E822CA
:1040F0000CC0833079F0843009F099C01A821B8299
:104100001C821D8296C00E9406209A838B837C832A
:104110006D838FC0EA806E0183E0C80ED11C00E081
:1041200010E0AE2CB12CC501800F911F029708F052
:1041300080C08E2D800F0E947113F60181936F0154
:104140000F5F1F4F0C31110571F773C089818230E9
:1041500039F0853009F06BC08A810E94382069C02F
:104160006A817B818C819D810E94782A0E94102027
:1041700060C04B816A8189810E9427189C838D834E
:1041800058C02C813D813227232732274B816A81F9
:1041900089810E9448184DC00E9463184AC06F2D43
:1041A000CE010E944E2045C00E94CD1824C00E941E
:1041B000CF1899838A833DC06B8170E089819A8191
:1041C000AE014C5F5F4F9827892798270E94D2182D
:1041D00030C06B8170E089819A81AE014C5F5F4F86
:1041E0009827892798270E94F51823C00E9416193E
:1041F00020C00E94141889831CC06B8170E08981E3
:104200009A81AE014C5F5F4F9827892798270E94BB
:1042100081180FC06B8170E089819A81AE014C5F7B
:104220005F4F9827892798270E94A21802C08FEF16
:1042300088836F2DCE010E948F23CDB7DEB7EAE0D1
:104240000C94A32A90934B0480934A040895E09120
:104250004A04F0914B04309729F00190F081E02D51
:104260000995089580E008950E9427210895E0911E
:104270004A04F0914B04309721F00280F381E02D45
:1042800009950895E0914A04F0914B04309739F074
:1042900022E0DC012C930680F781E02D099508953A
:1042A000A3E0B0E0E6E5F1E20C948F2A2091480407
:1042B0003091490428173907A1F09093490480935D
:1042C0004804E0914A04F0914B04309751F023E008
:1042D00029839B838A830084F185E02DCE0101969A
:1042E00009952396E2E00C94AB2AA3E0B0E0EBE75B
:1042F000F1E20C948F2A209146043091470428174C
:104300003907A1F09093470480934604E0914A0452
:10431000F0914B04309751F024E029839B838A83EA
:104320000084F185E02DCE01019609952396E2E007
:104330000C94AB2AE0919602F0919702329697E0A6
:1043400080E0915029F021912223D9F38F5FF9CF9A
:104350000895882371F02091960230919702F90117
:104360003296285F3F4F9191891729F0E217F307A2
:10437000D1F780E0089581E008959C01FC01329618
:104380009FEF80E04191461789F09F3F19F441115A
:1043900001C0982F8F5F8630A9F79F3F39F0F90150
:1043A000E90FF11D97FDFA956283089508959C0128
:1043B0002A5F3F4FFC014281461301C012820196E1
:1043C00082179307B9F70895682F8091960290910C
:1043D00097020E94BD210895682F809196029091C6
:1043E00097020E94D7210895E0919602F0919702DA
:1043F000329686E0DF011D928A95E9F70895DC0187
:10440000FB0111969C9111978181981321C01296FE
:104410008C911297882319F09281891319C01396F1
:104420008C911397882319F09381891311C01596E5
:104430008C911597882319F09581891309C01496DA
:104440009C91992339F081E02481291304C002C092
:1044500081E001C080E08170089508950E942D22BE
:10446000089583E080934C040E942E2208958111C8
:1044700002C081E001C082E080934C040E942E22A1
:1044800008950E943722089581E080934C040E9491
:104490002E2208950E944422089508950E944D22DC
:1044A00008950E944E2208950E944D2208950E9470
:1044B0004D2208950E944D2208950E9457220E9485
:1044C000FF130E94542280E00E947113811108C0E2
:1044D00081E00E94711391E0811103C090E001C05E
:1044E00091E0892F089585B7806885BF85B780687A
:1044F00085BF08951F920F920FB60F9211248F93CC
:104500009F93AF93BF9380914D04811113C080910D
:104510005E0490915F04A0916004B09161044196A3
:10452000A11DB11D80935E0490935F04A09360046D
:10453000B0936104BF91AF919F918F910F900FBE87
:104540000F901F90189580916604843031F10E947D
:10455000E40510924D0420E488E190E00FB6F89451
:10456000A895809360000FBE2093600083B7817F81
:10457000846083BF83B7816083BF7894889583B755
:104580008E7F83BF0FB6F894A895809160008861F4
:1045900080936000109260000FBE08950E94E309AE
:1045A0000E94E905089582E084BD93E095BD9AEFED
:1045B00097BD80936E0008952FB7F89480915E04A4
:1045C00090915F04A0916004B09161042FBF0895A1
:1045D0002FB7F89460915E0470915F04809160043D
:1045E000909161042FBF08959C014FB7F89480917A
:1045F0005E0490915F04A0916004B09161044FBF8C
:10460000821B930B089578941F920F920FB60F920E
:1046100011248F939F93AF93BF9380915E049091E9
:104620005F04A0916004B09161040196A11DB11DC9
:1046300080935E0490935F04A0936004B093610440
:10464000BF91AF919F918F910F900FBE0F901F90D0
:10465000189587E797E790930108809300089AE000
:1046600088E10FB6F894A895809360000FBE9093F0
:104670006000FFCF9AE088E10FB6F894A895809388
:1046800060000FBE90936000FFCF809156040895A4
:1046900008959B01909166049430F1F48F7080939B
:1046A000E9008FEF9091E800815095FD06C095EDEF
:1046B0009A95F1F700008111F5CF8091E80085FF10
:1046C0000BC0BA01C90140E050E00E948B258091E7
:1046D000E8008E778093E800089543E050E0BC0145
:1046E00084E00E944923089546E050E0BC0184E044
:1046F0000E9449230895CF93DF93EC0148E050E0F6
:10470000BC0181E00E94492388E0FE01AEE4B4E0F0
:1047100001900D928A95E1F7DF91CF910895603273
:1047200031F4BC0140E250E082E00E944923089548
:10473000A0E2B0E0EEE9F3E20C948F2A80916604E7
:10474000843011F583E08093E9008091E80082FFD6
:104750001BC08091E80085FF0AC040E050E060E2A5
:1047600070E0CE0101960E94D02591E001C090E05A
:104770008091E8008B778093E800992329F060E22C
:10478000CE0101960E945320A096E2E00C94AB2A41
:1047900080916504811109C00E945B270E94B8279F
:1047A0008091E20084608093E20008951092650495
:1047B00008950E944A2208956091620481E0611187
:1047C00001C080E00E94312208959091660481E04A
:1047D000943009F080E0609162040E9437220895CD
:1047E00042E061EC81E00E94D42642E261EC84E088
:1047F0000E94D42642E261EC82E00E94D42642E28A
:1048000060EC83E00E94D4269091660481E09430AD
:1048100009F080E0609162040E9441220895809135
:104820006804833009F463C030F4813071F0823061
:1048300009F49DC008958A3009F489C08B3009F4C9
:104840006EC0893009F0ABC020C080916704813A06
:1048500009F0A5C08091E800877F8093E8008091EF
:104860006B0490916C04892B21F468E08EE494E051
:1048700003C060E080E090E070E00E941526809127
:10488000E8008B778093E800089580916704813277
:1048900009F085C080916B0490916C04009719F029
:1048A000029709F07CC08091E800877F8093E80040
:1048B0008091E80082FD05C0809166048111F8CFE7
:1048C0006EC02091F3008091F20090E0922B02974D
:1048D00031F48091F100813011F0863021F4809123
:1048E000F100809356048091E8008B7754C080914A
:1048F0006704813A09F053C080916B0490916C0475
:10490000892B09F04CC08091E800877F8093E800F4
:104910008091E80080FFFCCF8091AE0237C080918B
:1049200067048132E1F580916B0490916C04892BCE
:10493000B1F58091E800877F8093E8000E94092705
:10494000809169048093AE020E94E30908958091EA
:104950006704813221F58091E800877F8093E80029
:104960000E94092780916A048093570408958091DA
:104970006704813AA1F48091E800877F8093E80082
:104980008091E80080FFFCCF809157048093F10074
:104990008091E8008E778093E8000E9409270895AF
:1049A00084B7877F84BF0FB6F894A8958091600084
:1049B000886180936000109260000FBE90E080E8F4
:1049C0000FB6F89480936100909361000FBE0E942F
:1049D000442208950E945B270E94B827E2EEF0E08F
:1049E00080818460808378940E94432A089584EAB9
:1049F00092E00E9422210895809166048530A9F4F6
:104A000080916604853079F40E94A3228091640429
:104A10008823B1F30E945D22882391F30E947525BB
:104A20000E94E309EDCF0E94CE22089508959A01D5
:104A300040916D0450916E040E941F250895492FE6
:104A4000552743305105C9F060F44130510581F0DC
:104A50004230510509F041C08BE590E04AE255E053
:104A600040C041325105E1F04232510531F135C0CB
:104A700082E190E045E855E034C099278130910506
:104A800049F028F0029749F5E8EFF4E005C0E6E2C6
:104A9000F5E002C0E0E1F5E0849190E0AF0121C0D3
:104AA00063307105D0F4660F771FFB01EE5CFC4F9D
:104AB0004081518189E090E014C06330710568F451
:104AC000FB01EE0FFF1FE45DFC4F40815181FB01B4
:104AD000E75DFC4F808190E004C080E090E040E022
:104AE00050E0F90151834083089580E189BD82E15E
:104AF00089BD09B400FEFDCF8091D8008F7D8093E1
:104B0000D8008091E00082608093E0008091E00016
:104B100081FDFCCF0895A0E0B0E0E1E9F5E20C945E
:104B2000892AEC018B017A010E942827811133C068
:104B3000E114F10439F0F70180819181081B190B10
:104B4000C80FD91FC12CD12C0115110519F1809165
:104B5000E80085FD16C08091E8008E778093E8001C
:104B6000E114F10449F0F70180819181C80ED91E4A
:104B7000D182C08285E00FC00E942827882321F3BC
:104B80000AC089918093F10001501109FFEFCF1AFB
:104B9000DF0ADACF80E0CDB7DEB7E8E00C94A52AD3
:104BA000A0E0B0E0E6EDF5E20C94892AEC018B017F
:104BB0007A010E942827811133C0E114F10439F0F1
:104BC000F70180819181081B190BC80FD91FC12CD7
:104BD000D12C0115110519F18091E80085FD16C051
:104BE0008091E8008B778093E800E114F10449F0AC
:104BF000F70180819181C80ED91ED182C08285E0E3
:104C00000FC00E942827882321F30AC08091F10059
:104C1000899301501109FFEFCF1ADF0ADACF80E044
:104C2000CDB7DEB7E8E00C94A52A20916D04309151
:104C30006E042617370748F06115710539F4209185
:104C4000E8002E772093E80001C0B901FC0120E0C4
:104C50006115710579F1809166048823F1F1853041
:104C6000F1F18091E80083FD3CC08091E80082FD75
:104C70002EC08091E80080FFEBCF2091F30080915F
:104C8000F20090E0922B6115710551F0883091058A
:104C900038F421912093F100615071090196F3CF0E
:104CA00021E0089709F020E08091E8008E7780935A
:104CB000E800CECF2111CFCF0AC0809166048823AF
:104CC00061F0853061F08091E80083FD0AC0809139
:104CD000E80082FFF2CF80E0089582E0089583E04B
:104CE000089581E0089520916D0430916E04261797
:104CF000370748F06115710539F42091E8002E77E7
:104D00002093E80001C0B901FC0120E061157105A4
:104D100091F180916604882309F440C0853009F43C
:104D20003FC08091E80083FD3DC08091E80082FD96
:104D30002FC08091E80080FFE9CF2091F30080919F
:104D4000F20090E0922B6115710559F088309105C1
:104D500040F424912093F10031966150710901963D
:104D6000F2CF21E0089709F020E08091E8008E77EB
:104D70008093E800CBCF2111CCCF0AC0809166048C
:104D8000882361F0853061F08091E80083FD0AC0DE
:104D90008091E80082FFF2CF80E0089582E00895DC
:104DA00083E0089581E00895982F973068F59093F7
:104DB000E900981739F07091EC002091ED005091C6
:104DC000F00003C0242F762F50E021FD02C09F5F2A
:104DD000ECCF3091EB003E7F3093EB003091ED0053
:104DE0003D7F3093ED003091EB0031603093EB006C
:104DF0007093EC002093ED005093F0002091EE00B2
:104E000027FDE5CF80E008958F708093E90081E071
:104E100008958091670487FF11C08091E80082FDAA
:104E200005C0809166048111F8CF11C08091E8001F
:104E30008B770BC080916604882349F08091E8004D
:104E400080FFF8CF8091E8008E778093E800089586
:104E50002091E4003091E50095E64091EC00842F2C
:104E6000817040FF23C08091E80080FD1DC08091CB
:104E70006604882399F0853099F08091EB0085FDD8
:104E800011C04091E4005091E5002417350729F343
:104E9000915011F09A01E1CF84E0089582E00895E5
:104EA00083E0089581E0089580E008954091E8004E
:104EB00042FFDDCF08950E94CA270E94D227E0EE6C
:104EC000F0E0808181608083E8EDF0E080818F7781
:104ED000808319BCA7EDB0E08C918E7F8C9380818C
:104EE0008F7E80831092650408950F931F93CF9354
:104EF000DF930E94CA270E94D227C8EDD0E08881A4
:104F00008F77888388818068888388818F7D888374
:104F100019BC1092660410926204109264041092FC
:104F2000630400EE10E0F80180818B7F808388812C
:104F30008160888342E060E080E00E94D426E1EE58
:104F4000F0E080818E7F8083E2EEF0E080818160FE
:104F50008083808188608083F80180818E7F808358
:104F6000888180618883DF91CF911F910F9108958F
:104F7000E8EDF0E080818F7E8083E7EDF0E08081D6
:104F80008160808384E082BF81E0809365040E9419
:104F900075270895E8EDF0E080818E7F8083109280
:104FA000E20008951092DA001092E10008951F9235
:104FB0000F920FB60F9211242F933F934F935F934D
:104FC0006F937F938F939F93AF93BF93EF93FF93D1
:104FD0008091E10082FF0BC08091E20082FF07C058
:104FE0008091E1008B7F8093E1000E94422A8091B2
:104FF000DA0080FF1FC08091D80080FF1BC0809125
:10500000DA008E7F8093DA008091D90080FF0DC096
:1050100080E189BD82E189BD09B400FEFDCF81E058
:10502000809366040E94C82305C019BC10926604D0
:105030000E94D6238091E10080FF19C08091E20098
:1050400080FF15C08091E2008E7F8093E200809106
:10505000E20080618093E2008091D80080628093BA
:10506000D80019BC85E0809366040E94DC238091FF
:10507000E10084FF30C08091E20084FF2CC080E119
:1050800089BD82E189BD09B400FEFDCF8091D800C1
:105090008F7D8093D8008091E1008F7E8093E10026
:1050A0008091E2008F7E8093E2008091E200816037
:1050B0008093E20080916204882311F084E007C0AD
:1050C0008091E30087FD02C081E001C083E080930E
:1050D00066040E94E5238091E10083FF29C080914E
:1050E000E20083FF25C08091E100877F8093E1008B
:1050F00082E080936604109262048091E1008E7FCA
:105100008093E1008091E2008E7F8093E2008091A5
:10511000E20080618093E20042E060E080E00E9473
:10512000D4268091F00088608093F0000E94D923FB
:10513000FF91EF91BF91AF919F918F917F916F916F
:105140005F914F913F912F910F900FBE0F901F9045
:1051500018951F920F920FB60F9211242F933F9321
:105160004F935F936F937F938F939F93AF93BF936F
:10517000CF93DF93EF93FF93C091E900CF708091BD
:10518000EC00D82FD17080FDD0E81092E90080911A
:10519000F000877F8093F00078940E94ED281092B1
:1051A000E9008091F00088608093F000CD2BCF70F3
:1051B000C093E900FF91EF91DF91CF91BF91AF9143
:1051C0009F918F917F916F915F914F913F912F911F
:1051D0000F900FBE0F901F901895AAE2B0E0E3EF7A
:1051E000F8E20C948E2AE7E6F4E08091F1008193D6
:1051F00024E0EF36F207C9F70E940F248091E800FF
:1052000083FF2EC18091670490916804492F50E07C
:105210004A30510508F024C1FA01E852FF4F0C94BE
:10522000722A803821F0823809F01AC108C08091B2
:10523000630490916404992389F082600FC0809187
:105240006B048F70873008F00BC18093E900809168
:10525000EB0085FB882780F91092E9009091E80027
:10526000977F9093E8008093F1001092F100D1C0F5
:10527000282F2D7F09F0F4C0882319F0823061F0C7
:10528000EFC080916904813009F0EAC0933009F0E1
:1052900080E0809364042EC08091690481112AC04B
:1052A00080916B048F702FEF280F263008F0D8C044
:1052B0008093E9002091EB0020FF1CC0933021F483
:1052C0008091EB00806214C09091EB00906190930C
:1052D000EB0021E030E0A90102C0440F551F8A9580
:1052E000E2F74093EA001092EA008091EB008860B8
:1052F0008093EB001092E9008091E800877F809313
:10530000E8000E940927ACC08111AAC0109169046D
:105310001F778091E3008078812B8093E300809158
:10532000E800877F8093E8000E9409278091E800C9
:1053300080FFFCCF8091E30080688093E30011112F
:1053400002C082E001C083E08093660489C0805877
:10535000823008F085C08091690490916A048C3D88
:1053600053E0950779F583E08A838AE289834FB712
:10537000F894DE01139620E03EE051E2E32FF0E0E6
:1053800050935700E49120FF03C0E295EF703F5F18
:10539000EF708E2F90E0EA3010F0C79601C0C096F3
:1053A0008D939D932F5F243149F74FBF8091E80083
:1053B000877F8093E8006AE270E0CE0101960E9448
:1053C000152616C060916B0470916C04AE014F5F9E
:1053D0005F4F0E941725BC01892B09F441C09091B1
:1053E000E800977F9093E80089819A810E94732654
:1053F0008091E8008B778093E80032C0803881F597
:105400008091E800877F8093E80080916204809318
:10541000F1008091E8008E7772CF811121C08091D8
:10542000690490916A0499270297D4F48091E80066
:10543000877F8093E80080916904809362040E94D2
:10544000092780916204811106C08091E30087FDE5
:1054500002C081E001C084E0809366040E94F023D2
:105460008091E80083FF0AC08091E800877F8093E5
:10547000E8008091EB0080628093EB00AA96E3E065
:105480000C94AA2A0895CF93809166048823A1F0F2
:10549000C091E900CF709091EC00892F817090FD50
:1054A00080E8C82B1092E9008091E80083FD0E94FB
:1054B000ED28CF70C093E900CF91089597FB072E98
:1054C00016F4009407D077FD09D00E94B62A07FC95
:1054D00005D03EF4909581959F4F08957095619504
:1054E0007F4F0895EE0FFF1F0590F491E02D099472
:1054F00069279627692778278727782708952F9285
:105500003F924F925F926F927F928F929F92AF9253
:10551000BF92CF92DF92EF92FF920F931F93CF93A0
:10552000DF93CDB7DEB7CA1BDB0B0FB6F894DEBF37
:105530000FBECDBF09942A88398848885F846E845D
:105540007D848C849B84AA84B984C884DF80EE80A7
:10555000FD800C811B81AA81B981CE0FD11D0FB6B0
:10556000F894DEBF0FBECDBFED010895AA1BBB1B93
:1055700051E107C0AA1FBB1FA617B70710F0A61B53
:10558000B70B881F991F5A95A9F780959095BC0174
:10559000CD010895FB01DC0104C08D9101908019BB
:1055A00021F441505040C8F7881B990B0895FB0126
:1055B000DC0102C001900D9241505040D8F708958F
:1055C000F999FECF92BD81BDF89A992780B50895CB
:1055D000A8E1B0E042E050E00C94242BDC01A40FE1
:1055E000B51F4150504048F0CB01840F951F2E91BC
:1055F0000E94FF2A41505040D0F70895262FF99974
:10560000FECF92BD81BDF89A019700B4021639F021
:105610001FBA20BD0FB6F894FA9AF99A0FBE0895F2
:105620000396272F0E94FF2A0E94FE2A252F0E9400
:10563000FF2A242F0C94FF2A0196272F0E94FF2A6D
:105640000C94FE2ADC01CB01FC01F999FECF06C0C7
:10565000F2BDE1BDF89A319600B40D924150504030
:08566000B8F70895F894FFCF9C
:10566800420400000000003A040000000000340476
:1056780000000000002E04000000000028040000C4
:10568800000000220400000000001C0400000000CC
:1056980000160400000000001004000000000008CC
:1056A80004000000000002040000000000FA0300EB
:1056B80000000000F2030000000000EC03000000FE
:1056C8000000E4030000000000DA0300000000000E
:1056D800D2030000000000CC030000000000C20359
:1056E8000000000000B8030000000000B203000042
:1056F800000000AC030000000000A603000000004A
:1057080000A00300000000009A03000000000094BD
:105718000300000000008C03000000000084030068
:10572800000000007E030000000000780300000075
:105738000000720300000000006C0300000000007D
:10574800660300000000006003000000000056032C
:1057580000000000004C03000000000046030000A9
:10576800000000400300000000003A0300000000B1
:1057780000340300000000002E0300000000002891
:10578800030000000000220300000000001C0300CA
:1057980000000000160300000000000C03000000D9
:1057A800000002030000000000F0020000000000FA
:1057B800DE020000000000CC020000000000C4026D
:1057C8000000000000BC020000000000B40200005D
:1057D800000000AC020000000000A602000000006B
:1057E80000A00200000000009A02000000000094DF
:1057F800020000000000A30301280850011E0A143B
:105808000103020145237B23482374236D2301E20E
:1058180000E900EA00B500B600B700CD008301CC6E
:10582800008A019201940121022302240225022602
:105838000227022A02B300B4006F0070009F01CB58
:10584800019F02A002818283E200E900EA00B5001C
:10585800B600B700CD008301CC008A019201940103
:105868002102230224022502260227022A02B3006B
:10587800B4006F0070009F01CB019F02A0028182DB
:1058880083F7F6F5F43632333144227B3406970534
:08589800B9053C055505750535
:00000001FF
