:100000000C943E030C945B030C945B030C945B0315
:100010000C945B030C945B030C945B030C945B03E8
:100020000C945B030C945B030C94D9270C94AB28C1
:100030000C947C220C945B030C945B030C945B0388
:100040000C945B030C945B030C945B030C945B03B8
:100050000C945B030C9405230C945B030C945B03DE
:100060000C945B030C945B030C945B030C945B0398
:100070000C945B030C945B030C945B030C945B0388
:100080000C945B030C945B030C945B030C945B0378
:100090000C945B030C945B030C945B030C945B0368
:1000A0000C945B030C945B030C945B0366036D037D
:1000B00074037B0382038903900397039E03A503C4
:1000C000AC03B303BA03C103C803CF03D603DD03F4
:1000D000E403EB03F203F903000407040E04150420
:1000E0001C0423042A04310438043F0446044D044C
:1000F00054045B046204620462046D046D046D04C4
:1001000078047804780483048304910491049104AE
:1001100096049A049E049A04A404AA04B004B604A3
:10012000E407E4071008100871088F086D096D09CD
:100130009408FC080D090D092B1A9D1A331AFD1994
:10014000011A371A041A3A1A451A0F1A931A131A6F
:10015000491A171A4D1A771A1B1A511A811A211A9D
:10016000571A611A081A3E1A0B1A411A261A5C1AF3
:100170006D1A8D1A8F1AF9192F1AA61A591F5F1F97
:100180004D1F531F651F6B1F711F6E207120A8200C
:10019000BB20C320CE20D120D120D120192119216C
:1001A000D620D920DE20EB20F820FB20FF200C21D8
:1001B00013293A29322A3A29322A8629A929322AA8
:1001C000002A0F2A300039003800370001012B00C7
:1001D0002F002C002E003F002100270001012900E4
:1001E00001012900010128000101280001014C0042
:1001F00001014C0001012A0001012A002000200019
:10020000670064007A006C00760070006D006A0080
:10021000780066006E00770062006B006300750076
:1002200071006800164117001500044612420C00C8
:100230001C000843010020001F001E0001002300D5
:10024000220021000100A900A800AE000100AA00C0
:10025000AC00AB0031003300350020022E002D0031
:100260001F020100D900D200CD00D100DA00CF007A
:10027000CE00D0004B004A0052004D004E0050000E
:1002800051004F002F022F002602010030023000E3
:1002900027020100230022000000220021000000AC
:1002A00020001F0000001F001E000000D100D2002F
:1002B000CE000000044617001C00000052004F0052
:1002C00050000000150008430C000000D100CD00D4
:1002D000D200D900D000CE00CF00DA0000004D00DF
:1002E00052004A004B004F00510050004E000000E9
:1002F000044615001700164108431C000C0012426A
:1003000000004D00510050004E00000004461C004B
:100310000C0012420000D900CF0000004B0050003A
:10032000000016410C000000D900CE0000004B0078
:100330005100000016411C000000D900D000000050
:100340004B004F0000001641084300000843150011
:100350001700164100000446150017001242000065
:1003600004461242000004461C00000004460C0033
:10037000000016411242000017000C00000015009A
:100380001C0000004D0052004E0000000446150005
:10039000124200004D004F000000044608430000D8
:1003A00052004F00000015000843000050005200AA
:1003B00000000C00150000004F00510050004E00DE
:1003C000000008431C000C0012420000150017003A
:1003D0000000044615001700000004461500170031
:1003E0001641000008431C000C00000015001641D7
:1003F000000008430C00124200001C000C001242D6
:1004000000001700164100001500170016410000FB
:100410000446150000000C0012420000044616417C
:1004200000000843124200001C0012420000084372
:100430001C0000001C000C000000044617001641C0
:10044000000008430C000000000000000000000055
:100450002A2B28000000000000000000000000001F
:1004600000000029000000002C1E3420212224342A
:100470002627252E362D3738271E1F2021222324FC
:1004800025263333362E37381F0405060708090A98
:100490000B0C0D0E0F101112131415161718191A34
:1004A0001B1C1D2F3130232D350405060708090AB2
:1004B0000B0C0D0E0F101112131415161718191A14
:1004C0001B1C1D2F3130354C0000000000000000C7
:1004D000000000000000000000000000000000001C
:1004E0000000000000000000000000007E0F00D4AB
:1004F000FFFFFFC70000007816035000610069008D
:100500006E007400620072007500730068000000E5
:1005100018034E006F00640064006C006500620008
:100520006F00790038003900000004030904090253
:100530005B00030100A0FA090400000103010100AF
:10054000092111010001224400070581030800016F
:100550000904010002030000000921110100012229
:100560002200070582032000010705030320000184
:100570000904020001030000000921110100012209
:100580007B00070584032000011201000200000027
:100590000800CB9FF00100010200010660FF096125
:1005A000A1010962150026FF009520750881020946
:1005B00063150026FF00952075089102C00501090A
:1005C00002A10185020901A10005091901290815E7
:1005D00000250195087501810205010930093115D1
:1005E00081257F95027508810609381581257F953B
:1005F0000175088106050C0A38021581257F9501D1
:1006000075088106C0C005010980A1018503190193
:100610002AB700150126B700950175108100C005A5
:100620000C0901A101850419012AA002150126A0C7
:1006300002950175108100C005010906A101050799
:1006400019E029E71500250195087501810295013A
:10065000750881010507190029FF150026FF00957F
:100660000675088100050819012905150025019561
:100670000575019102950175039101C011241FBEFA
:10068000CFEFDAE0DEBFCDBF13E0A0E0B1E0ECE6F3
:10069000F6E502C005900D92A833B107D9F724E022
:1006A000A8E3B3E001C01D92AF36B207E1F70E94A4
:1006B00075140C94342B0C9400008A33910508F0C7
:1006C0005CC1FC01EA5AFF4F0C94742A662309F4BA
:1006D00054C160E082E292E04EC1662309F44DC14C
:1006E00060E080E292E047C1662309F446C160E021
:1006F0008EE192E040C1662309F43FC160E08CE1E5
:1007000092E039C1662309F438C160E08AE192E0E1
:1007100032C1662309F431C160E088E192E02BC167
:10072000662309F42AC160E086E192E024C16623D1
:1007300009F423C160E084E192E01DC1662309F45D
:100740001CC160E082E192E016C1662309F415C184
:1007500060E080E192E00FC1662309F40EC160E021
:100760008EE092E008C1662309F407C160E08CE0E6
:1007700092E001C1662309F400C160E08AE092E0E2
:10078000FAC0662309F4F9C060E088E092E0F3C0A3
:10079000662309F4F2C060E086E092E0ECC06623D4
:1007A00009F4EBC060E084E092E0E5C0662309F460
:1007B000E4C060E082E092E0DEC0662309F4DDC0C0
:1007C00060E080E092E0D7C0662309F4D6C060E024
:1007D0008EEF91E0D0C0662309F4CFC060E08CEFCB
:1007E00091E0C9C0662309F4C8C060E088EF91E0D9
:1007F000C2C0662309F4C1C060E084EF91E0BBC0D1
:10080000662309F4BAC060E080EF91E0B4C06623CB
:1008100009F4B3C060E08CEE91E0ADC0662309F44A
:10082000ACC060E088EE91E0A6C0662309F4A5C0E4
:1008300060E084EE91E09FC0662309F49EC060E012
:1008400080EE91E098C0662309F497C060E08CEDDB
:1008500091E091C0662309F490C060E08AED91E0D8
:100860008AC0662309F489C060E088ED91E083C006
:10087000662309F482C060E086ED91E07CC06623C7
:1008800009F47BC060E084ED91E075C0662309F453
:1008900074C060E082ED91E06EC0662309F46DC023
:1008A00060E080ED91E067C0662309F466C060E017
:1008B0008CEC91E060C0662309F45FC082E00E9486
:1008C000F00E0895662309F458C00E94C60E817187
:1008D00011F081E11FC081E121C0662309F44DC000
:1008E0000E94C60E887811F088E814C088E816C007
:1008F000662309F442C00E94C60E847411F084E499
:1009000009C084E40BC06623C1F10E94C60E827246
:1009100021F082E20E94CF0E089582E20E94C90E69
:100920000895662351F10E94D60E0895662329F199
:1009300085E007C0662309F180E003C06623E9F083
:1009400084E00E945B0A08956623B9F060E08AECB7
:1009500091E011C0662389F060E088EC91E00BC063
:10096000662359F060E086EC91E005C0662329F02B
:1009700060E084EC91E00E94771E089581E0089584
:100980008730B8F46230A8F4443098F470E0680F0F
:10099000711D680F711DFB01EE0FFF1FEE0FFF1F92
:1009A000E40FF11DEE0FFF1FEC5DFD4F859194915B
:1009B000089581E090E008958AE390E0089527E0AB
:1009C000AC01249FC001259F900D112480509F4FA2
:1009D000089581E0089581E008950E94EB04089550
:1009E0000E94ED0408950E94BE04089508950E9497
:1009F000F6040895A6E0B0E0E0E0F5E00C94902A5B
:100A000049835A839E8330913F0389819A813111B2
:100A100015C03E81332359F0222349F00E94150B63
:100A2000182F682F89819A810E94F10A03C00E94C1
:100A3000030B182F69817A81812F04C00E94150B46
:100A400069817A810E9475122696E3E00C94AC2AA3
:100A5000FC0187819085009749F4262F40815181C0
:100A600062817381848195810E94FA0408950F93B5
:100A70001F93CF93DF93EC0161E00E9428058C0166
:100A8000BE010E94F004882329F0BE01C8010E9423
:100A9000631602C080E090E08170DF91CF911F91DA
:100AA0000F910895CF93DF93EC0160E00E94280539
:100AB000BE010E94F704DF91CF91089581E008956F
:100AC0000E945E050895CF93C82F0E94E5098C2FE0
:100AD0000E9460052FEF84E39CE02150804090400D
:100AE000E1F700C00000CF91089581E00E94630506
:100AF0000E942B23089580E00E9463050E943C23FE
:100B000008950F931F93CF93DF938C0161E00E94B0
:100B10002805EC01B8010E943B20882309F450C04D
:100B2000B801CE010E94F304882309F449C0B8013A
:100B3000CE010E94411F882309F442C0B801CE01B2
:100B40000E94D5198823E1F1B801CE010E94AB19AA
:100B50008823B1F1B801CE010E94841F882381F15E
:100B6000F8018581882341F1C3308CE7D807D1F0A3
:100B700040F4C115FCE7DF0791F0C130DC47A1F07C
:100B80001BC0CB35ECE7DE07A9F0CC35FCE7DF076F
:100B900071F0CA35DC4781F40E94B40F0DC00E9489
:100BA00075050EC00E94BC0F0E947B0509C00E9403
:100BB000AA0F02C00E94B80FC8010E94E90401C038
:100BC00080E0DF91CF911F910F9108950E945322F1
:100BD0000E94210608950E9425060E945C22089525
:100BE000982F92959F7019F0892F24E001C020E082
:100BF000982F9695969511F02E5F892F982F9695A0
:100C000009F02F5F822F0895089581E008950895D7
:100C1000CF93DF93D82F0E940506C82F882319F0A1
:100C20008D2F0E9407068C2FDF91CF910895089594
:100C3000CF93C82F0E9404068C2F0E940806CF91E4
:100C4000089580E00E94180608950E9429210E94BC
:100C500018060895CF930E942921C82F80913A0346
:100C6000C81779F0C0933A030E94EA2260933B03CD
:100C700070933C0380933D0390933E038C2F0E941E
:100C80001806CF910895AFE0B0E0E9E4F6E00C94E7
:100C90008F2A4A875B876C877D878E879F87911114
:100CA0000E94E60ECE01019629E0FC0111922A95E0
:100CB000E9F726E0FE013A96DC0101900D922A95B3
:100CC000E1F72D8121110CC009811A812B813C8112
:100CD0004D815E816F81788589850E94280E04C0D0
:100CE0000E9437058111F0CF2F96E4E00C94AB2AD7
:100CF000FC012481213021F4808191810E94420BEA
:100D00000895662319F00E94451B02C00E94B61B7D
:100D10000E942D1C0895CF93882309F488C0C82F02
:100D20008238A1F40E94362181FD81C089E30E94AE
:100D3000E6210E94480F2FEF87EE93E0215080407C
:100D40009040E1F700C0000089E315C08338C1F48A
:100D50000E94362180FD6BC083E50E94E6210E943F
:100D6000480F2FEF81EE94E0215080409040E1F752
:100D700000C0000083E50E94EE210E94480F57C08A
:100D80008438A1F40E94362182FD51C087E40E947C
:100D9000E6210E94480F2FEF81EE94E02150804021
:100DA0009040E1F700C0000087E4E5CF8CEF8C0FA6
:100DB000813A70F48C2F0E94AB21882329F08C2F6C
:100DC0000E94EE210E94480F8C2F0E94E621D5CF71
:100DD00080E28C0F883048F4C77081E001C0880F32
:100DE000CA95EAF70E94C90EC8CFEBE5EC0FE330D5
:100DF00040F4F0E0EB51FD4F808190E00E945221E1
:100E000016C0E8E5EC0FEB3150F4F0E0EE0FFF1FF9
:100E1000E155FD4F808191810E94772108C083E3D5
:100E20008C0F833120F461E08C2F0E948106CF91DA
:100E30000895882309F456C0823859F40E94362157
:100E400081FF50C089E30E94E6210E94480F89E398
:100E50000CC0833879F40E94362180FF43C083E5BB
:100E60000E94E6210E94480F83E50E94EE210E9425
:100E7000480F0895843859F40E94362182FF32C009
:100E800087E40E94E6210E94480F87E4EECF9CEFA2
:100E9000980F913A50F390E2980F983050F4877081
:100EA00091E001C0990F8A95EAF7892F0E94CF0E31
:100EB000DECF9BE5980F933028F480E090E00E940D
:100EC0005221089598E5980F9B3128F480E090E036
:100ED0000E947721089593E3980F933118F460E00E
:100EE0000E94810608951F93CF93DF93182FEB0183
:100EF0000E948B06209741F08FE99FE00197F1F760
:100F000000C000002197F6CF812F0E941907DF91C2
:100F1000CF911F910895893319F060E070E002C00D
:100F200060E570E00E9473070895882321F00E9415
:100F3000C90E0E94480F0895882321F00E94CF0E09
:100F40000E94480F0895A0E0B0E0E9EAF7E00C94B1
:100F50008B2A7C01162FC72FFC01D58106810295B3
:100F60000F700E94BF0E8823F9F0DD23E9F08C2F6B
:100F7000807F803461F080E2810F8830A8F08C2F70
:100F8000807E803221F4123078F0002369F0809165
:100F9000590482FF09C082E00E947E0F0E94BF0EAA
:100FA00091E0D82ED92601C0D12CCC2EC2948FE04E
:100FB000C8228C2D90E08C30910508F08EC1FC0188
:100FC000E057FF4F0C94742A8C2F807FCF708823BA
:100FD00011F0C295C07FDD2399F0CC2309F469C1DB
:100FE00080E2810F883010F0111104C08C2F0E9414
:100FF000C90E03C08C2F0E94D90E0E94480F59C100
:10100000812F0E941907CC2309F467C180E2810F68
:10101000883038F1112329F18C2F0E94DF0E24C073
:101020008C2F807FCF70803211F0C295C07F11234A
:1010300019F0113099F13CC08091590482FD17C01C
:10104000DD2349F0CC2329F08C2F0E94C90E0E9489
:10105000480F80E02FC180E00E941907CC2309F4DB
:101060003CC18C2F0E94CF0E0E94480F36C1DD2359
:1010700049F0002309F1013009F02FC18C2F0E94A3
:10108000F00E2BC1011129C18C2F0E949C078C2FBF
:101090000E94FC0E8C2F0E94510F1FC1DD2321F0F6
:1010A000063008F01AC108C0053008F016C115C096
:1010B000DD2331F00111FDC08C2F0E9495070DC179
:1010C000002359F0193309F005C1FFEF27EE83E043
:1010D000F15020408040E1F7FBC08C2F0E949C071C
:1010E000FCC08C2F86958695837019F0813061F055
:1010F000F4C0DD2321F0812F9C2F937002C080E08B
:1011000090E00E945221F1C0DD2321F0812F9C2F1D
:10111000937002C080E090E00E947721E6C06D2FBE
:10112000812F0E948106E1C08C2F837079F5D11147
:10113000D8C0412F429546954770440F440F212F48
:101140002F70042E01C0220F0A94EAF714FF08C082
:101150008FE090E001C0880F4A95EAF7809501C0C2
:1011600080E0C695C695C370822BC23049F058F412
:10117000C13019F00E94430AB4C00E943D0AB1C0B8
:101180000E94490AAEC00E943A0AABC0DD2319F0A2
:101190008C2F817001C08695882309F4A2C0412F4D
:1011A000429546954770440F440F212F2F70042E0F
:1011B00001C0220F0A94EAF714FF08C08FE090E004
:1011C00001C0880F4A95EAF7809501C080E0C69576
:1011D000C695C370822BC23049F058F4C13019F063
:1011E0000E948F0A7EC00E94890A7BC00E94950AD5
:1011F00078C00E94520A75C0CF70DD2339F08C2F61
:101200000E94640A812F0E9495076BC0812F0E9463
:101210009C078C2F0E94700A64C0123F21F128F4B1
:10122000103F41F0113FC1F040C0133F19F1143F8E
:1012300079F03BC0DD2341F0053008F04EC08C2F23
:101240008F710E947D0A49C0063008F046C0F7CF72
:101250008091590482FD18C0DD2339F08C2F8F71E5
:101260000E94640A3AC0DD23C9F38C2F8F710E945B
:10127000700A33C0DD2329F08C2F8F710E945B0A26
:101280002CC00E94570A29C0DD2331F063E08C2F67
:101290008F710E94600F21C081E00E947E0F02309A
:1012A000E0F082E00E947E0F18C0DD2331F00023C1
:1012B000A9F2812F0E948B0610C00023B1F21933CE
:1012C00049F49FEFE7EEF3E09150E040F040E1F7A2
:1012D00000C00000812F0E94190788EF8C0D843018
:1012E00020F40E9429210E941806DD2089F00E9426
:1012F000BB0E80FD0DC0F70115820E94B50E0E9445
:10130000640AC7010E94AC090E94B50E0E94700ACF
:10131000CDB7DEB7E8E00C94A72A0F931F93CF93C5
:10132000DF93EC018F819885009719F00E94581186
:1013300005C0688179818D810E944D0B8C010E94CE
:101340009B0A0E942D0AB801CE010E94A307DF91DB
:10135000CF911F910F910895CF93DF93FC012481CA
:101360002223D1F0EC010E94810581110FC00E945F
:10137000BF0E882389F08D81882371F080915904F4
:1013800082FF0AC082E00E947E0F06C0CE010E944A
:101390008D09CE010E945205DF91CF91089580E022
:1013A00090E00E94522180E090E00E9477210E940C
:1013B000E60E0E94480F0E944C1C0E942D1C0895AE
:1013C0000E94F6210E94CF0908950E94D60E0E9425
:1013D000E009089592959F70963079F010F492503C
:1013E00001C09A50923068F4803F69F018F4883E4A
:1013F00040F409C0843F29F406C0883E20F0813FB4
:1014000011F080E0089581E00895FC0124812223F9
:1014100071F087819085009719F00E94581104C0DF
:10142000808191810E94420B0E94EA09089580E028
:101430000895A6E0B0E0EFE1FAE00C94912A269638
:10144000E2E00C94AD2AA9E0B0E0E9E2FAE00C9405
:101450008F2A2996E4E00C94AB2A089508950E94FF
:101460002E0A08950E942F0A08950E94320A80933E
:10147000440308950E94350A089590914403892BEE
:101480000E94350A08959091440389230E94350AE9
:1014900008959091440389270E94350A08950E9477
:1014A0002E0A08950E944F0A80934303089580E016
:1014B0000E94520A089591E001C0990F8A95EAF7B7
:1014C000892F0E94520A089521E030E001C0220FC6
:1014D0008A95EAF780914303822B0E94520A08956D
:1014E00021E030E001C0220F8A95EAF72095809133
:1014F000430382230E94520A089521E030E001C094
:10150000220F8A95EAF78091430382270E94520AAC
:10151000089590914303892B0E94520A0895909157
:10152000430389230E94520A089590914303892717
:101530000E94520A08950895962F9770A1E001C065
:10154000AA0F9A95EAF793E0769567959A95E1F751
:10155000FB01EE0FFF1F6E0F7F1FFA01E60FF71F53
:1015600040E050E0682F70E090819B01042E02C0A3
:10157000369527950A94E2F72170219529272A2389
:10158000292721934F5F5F4F4330510569F7089535
:101590009B01782F777043E0969587954A95E1F700
:1015A000FC01EE0FFF1F8E0F9F1FF901E80FF91FBF
:1015B00040E050E080E0219130E0072E02C03695F7
:1015C00027950A94E2F721703327042E01C0220FD9
:1015D0000A94EAF7822B4F5F5F4F4330510559F76A
:1015E0000895282F923070F4843060F4862F622F93
:1015F00070E024E0929F600D711D112440E453E0DF
:101600000E949C0A0895923070F4843060F4292F6F
:1016100090E060E473E034E0239F800D911D11247D
:101620000E94C80A089580E00895CF92DF92FF9249
:101630000F931F93CF93DF936C010091430380912D
:101640004403082BC6E0D0E010E0C8010C2E02C015
:10165000959587950A94E2F780FD04C02197A8F735
:10166000F12C07C0FC2EB6018C2F0E94811201972D
:10167000A9F38F2DDF91CF911F910F91FF90DF90F4
:10168000CF900895CF93DF93EC010E94150BBE011C
:101690000E948112DF91CF9108951F93CF93DF9322
:1016A000EB0190913F03992321F0CB010E94420B63
:1016B00013C0882349F0CB010E94150B182F682F07
:1016C000CE010E94F10A04C0CB010E94030B182F27
:1016D000BE01812F0E948112DF91CF911F91089549
:1016E000E1E0F0E0DF0102C0AA0FBB1F6A95E2F75C
:1016F000BD01DF0102C0AA0FBB1F4A95E2F7AD0191
:10170000462B01C0EE0F2A95EAF7942F9823491330
:1017100002C08E2B0895E0958E230895242F462F26
:10172000682F809143030E94700B0E94520A089513
:10173000FF920F931F93CF93DF93C091450389E0EE
:10174000F82E80914603C817B1F0D0E0FC9EF0015E
:10175000FD9EF00D1124E95BFC4F00811181228177
:101760003381448155816681778180850E94230A77
:101770002196C770E6CFCDB7DEB7E5E00C94AA2A74
:101780000F931F9300918F03109190032091910369
:10179000309192034091930350919403609195038B
:1017A00070919603809197030E94230A1F910F91D5
:1017B0000895CF93DF938091950382958F7009F000
:1017C0004EC080919403882309F449C08091450359
:1017D000409146035091900360918F03C091910313
:1017E000D091920379E08417D1F190E0789FF001D5
:1017F000799FF00D1124DF01A95BBC4F14962C9149
:101800001497222349F111962C911197251324C086
:101810002C91261321C015962C91159721111CC0CF
:1018200012962D913C9113972C1B3D0B283C3105B2
:1018300098F4809195038F70806180939503E35BAA
:10184000FC4F80818F70806180838FE893E00E94DD
:10185000AC090E94980B03C001968770C4CFDF913A
:10186000CF910895209145039091460359E029179F
:10187000A9F030E0529FF001539FF00D1124E95B75
:10188000FC4F7181761306C07081781303C0758197
:10189000741306C02F5F3F4F2770E9CF80E0089593
:1018A00081E00895A8E1B0E0E8E5FCE00C94872A27
:1018B0008C0186E0F801DE01539601900D928A9525
:1018C000E1F7F8018481E5809FE8A92E93E0B92E25
:1018D00090919303911118C0882309F4B2C1EE20AE
:1018E000D9F1C8010E94050AF82E8823A9F189E0E0
:1018F000F801D50101900D928A95E1F7C5010E948A
:1019000078060E94D90BABC0F801C080D1808280DC
:101910009380F09094032091910330919203A4015D
:10192000421B530BFF2009F42EC1483C510508F01F
:10193000C8C0882309F487C180919503282F207F90
:1019400090919003222361F09D1509F46BC0C801AA
:101950000E94050A811186C0C8010E94AC0971C1AC
:101960009D111EC090918F039C111AC04091960347
:1019700050919703278130854217530789F4E1106E
:101980000FC08F708061809395030E94C00B8FE819
:1019900093E00E94AC0980919503F80186834FC1C2
:1019A000E1103AC040E06D2D8C2D0E94320C40E0D9
:1019B0006D2D8C2D0E94320CE82E811140C1CB8AF6
:1019C000DC8A8B899C890E94420B292F22952F70DB
:1019D000243020F49F70223028F009C02A50223091
:1019E00080F014C0992349F0811107C013C09923D6
:1019F00021F0F8019681907F69F0805E883030F4A4
:101A000009C0803F38F0815F833020F0C8010E9418
:101A1000AC09EF2CFE2C17C1809195038160809357
:101A200095030DC190918F039C1191CF4091960326
:101A300050919703F801278130854217530709F029
:101A400086CFE11084CF8683C8010E94AC0989E06B
:101A5000F801AFE8B3E001900D928A95E1F70E949A
:101A6000C00BF1C0EE2009F477CF20919503822FAF
:101A700082958F7090E00297BCF080918F039091D7
:101A800090039B878A879D868C86809193038E879F
:101A90001F86288B80919603909197039A8B898B50
:101AA000CE010A960E94AC0989E0F801AFE8B3E0E4
:101AB00001900D928A95E1F70E94D90B0E94C00B0C
:101AC000C0C090919503292F207FA1F4682D9E8A94
:101AD0008D8AA6017E899E2D0E94190A8FE893E0C7
:101AE0000E94AC0989E0F50111928A95E9F70E94FC
:101AF000C00BA5C0882309F4A6C0809190038D1166
:101B00001AC080918F038C1116C04091960350919A
:101B10009703F801278130854217530761F4E110DC
:101B20000AC09683C8010E94AC0989E0F5011192B0
:101B30008A95E9F788C0C8010E94050A882309F43C
:101B40000BCFEE2009F408CF20919503822F8295C8
:101B50008F7090E002970CF4A7CF80918F03909143
:101B600090039A8389839C828B82809193038D83D7
:101B70001E822F838091960390919703998788877F
:101B8000CE0101968FCF483C510508F04AC088230A
:101B900009F457C0FE2CEE2009F4DECE80919003AC
:101BA0008D1131C080918F038C112DC0209196032F
:101BB00030919703F801878190852817390719F527
:101BC0008091950380FD16C082958F70482F50E05C
:101BD0004115510579F02091950326834F30510529
:101BE00009F432CF8F5F982F9295907F822F8F705C
:101BF000892B29CF89E0F801AFE8B3E001900D927D
:101C00008A95E1F720C0C8010E94050A81114CCFD6
:101C100080919503816080939503C8010E94AC096F
:101C200012C0682D9E8A8D8AA6017E899E2D0E94F3
:101C3000190A89E0F50111928A95E9F710CFF12C84
:101C400002C0FF24F3948F2D6896ECE00C94A32A35
:101C5000A2E1B0E0EEE2FEE00C948E2A0A871B8738
:101C60002C873D874E875F87688B798B8A8BCE0167
:101C70000A960E94520C882371F04E854423C1F1CC
:101C80000A851B852C853D855F85688979898A89C8
:101C90000E94230A2DC089E0FE013A96DE011196CA
:101CA00001900D928A95E1F76E85662309F12091E6
:101CB000460330E0C901019687709927409145039A
:101CC00050E08417950709F43FC06D8399E0929F17
:101CD000D001939FB00D1124A95BBC4FFE0131963A
:101CE00001900D929A95E1F7809346030E94980B1C
:101CF00089E0F82E8091450390914603891789F178
:101D0000F89EC0011124895B9C4F0E94520C8823CD
:101D100041F1E0914503FE9EF0011124E95BFC4F87
:101D200000811181228133814481558166817781CF
:101D300080850E94230A8091450390E00196877078
:101D4000992780934503D6CF0E94E5091092460358
:101D500010924503EFE8F3E089E0DF011D928A95D8
:101D6000E9F76296E5E00C94AA2A8091A003869593
:101D70008695869508958091A00387700895909127
:101D8000A003977081E009F480E008958091AC038E
:101D900008959091AC03892B8093AC0308958095AE
:101DA0009091AC0389238093AC0308951092AC0307
:101DB00008959091AB03892B8093AB030895809590
:101DC0009091AB0389238093AB0308951092AB03EA
:101DD000089508950E94E90E08950E94EA0E08955C
:101DE0009091A203292F2823821729F0982B9093F2
:101DF000A2030E94ED0E08959091A203292F28239B
:101E000031F0809589238093A2030E94ED0E0895FE
:101E10008091A203882329F01092A20380E00E94FF
:101E2000ED0E08950F931F93CF93DF9300919602C9
:101E300010919702C091AC038091AB03C82B8091A5
:101E4000A203882331F0C82B0E949C2181110E949B
:101E5000080FF801C083C0919602D091970248E024
:101E600050E068E973E0CE010E94CC2A892B59F03A
:101E700088E0FE01A8E9B3E001900D928A95E1F7B0
:101E8000CE010E943921DF91CF911F910F910895CA
:101E90000E94120F08950E94E90E08950E944B0FB0
:101EA00008959091A103292F282331F0809589234B
:101EB0008093A1030E944E0F08950E94E90E089599
:101EC0009091590492FF11C098E0899F90011124CC
:101ED000262B2093A0030E94640A8091A00386957C
:101EE000869586950E945D0F08950E94640A089564
:101EF0001092A00380E00E945D0F08959091A003CE
:101F0000809589238093A003282F277069F4981760
:101F100059F09091590492FF07C086958695869551
:101F20000E94700A0E94780F08959091590492FBC4
:101F3000222720F9281769F080FB92F99093590421
:101F400080915804909159040E94DE0F82E00E9413
:101F50007E0F08958091590482FB882780F991E0D3
:101F600089270E94950F089581E00E94950F08959A
:101F700080E00E94950F08956FEF7FEF80E090E082
:101F80000E941E2B089580E090E00E94EA2A853E80
:101F90009E4F19F40E94CF1F089580E0089582E0BB
:101FA00090E00E94E22A089583E090E00E94E22AF5
:101FB000089584E090E00E94EA2A0895BC0184E03C
:101FC00090E00E941E2B0895AB01BC018FE090E0D1
:101FD0000E94122B0895AB01BC0183E190E00E94A6
:101FE000122B089560E070E0CB010E94EB0F089582
:101FF00060E070E0CB010E94E40F0E94F20F0895B0
:10200000A8E0B0E0E6E0F0E10C94912A65EE7EEF06
:1020100080E090E00E941E2B60E082E090E00E9451
:10202000002B81E08093440361E083E090E00E9414
:10203000002B60E074E184E090E00E941E2B60E0E1
:1020400086E090E00E94002B60E087E090E00E9434
:10205000002B40E050E0BA0188E090E00E94122B93
:1020600060E083E290E00E94002B60E08CE090E072
:102070000E94002B60E08DE090E00E94002B19820E
:102080001A821B821C821D821E821F82188648E0D3
:1020900050E067E170E0CE0101960E94F02A40E036
:1020A00050E0BA018FE190E00E94122B80E00E9484
:1020B000E81F0E941D200E94F80F2896E2E00C9471
:1020C000AD2A0E9400100895682F8EE090E00E94D3
:1020D000002B0895A6E0B0E0E0E7F0E10C948F2A31
:1020E0000E94DE228C018091AD039091AE0308170F
:1020F000190781F019821A820E94DE22682F498115
:102100005A81792F80E090E00E9443061093AE033D
:102110000093AD032696E4E00C94AB2A0E94EA22D9
:102120006093B5037093B6038093B7039093B8039D
:102130006093B1037093B2038093B3039093B4039D
:10214000089581E0089581E008950E94A310089504
:1021500008950E94A81008950E94A81008950E9452
:10216000AC1008950E94A81008950E94B21008951E
:102170000E94A810089581E793E10E948C140E94A8
:10218000B8100E94B51008950E94A9100E94A810CE
:1021900008950E94C30F811102C00E9461100E9425
:1021A000CF0F8093B9030E94D90F90935904809365
:1021B00058040E94AF140E94D40F0E943A0A8091E2
:1021C00043030E944F0A08950E94D5220E942D20A9
:1021D0000E94F1130E94C9100E9417060E94AF10BE
:1021E0000895A6E0B0E0E7EFF0E10C94882A0E94A1
:1021F000A110811103C00E946A1050C00E940114F6
:102200001091AF0380E00E947313811307C01091F7
:10221000B00381E00E947313181769F38091B9032A
:1022200081FD0E9479130E94A510A82E8FEAE82E46
:1022300083E0F82E10E099249394812F0E94731369
:10224000B82EF701C080C82609F100E0DD24D39440
:102250008C2D8D21A9F0AA2099F009831A830E9460
:10226000DE229C838B839D8291E08B2D8D2109F44E
:1022700090E049815A816B817C818D810E94430667
:102280000F5FDD0C043021F7F701B0821F5FFFEF15
:10229000EF1AFF0A123089F60E948E100E941C1657
:1022A0000E946E1C0E942A062696EBE00C94A42A3B
:1022B0001F93CF93DF930E948612EC01C11580E536
:1022C000D807E8F5C11590E4D90708F0A8C0C03ECA
:1022D000D10530F5CD3CD10508F094C0C83AD10500
:1022E00078F4C53AD10508F083C0C130D10509F4AE
:1022F0007CC008F4F2C0C430D10508F0F1C0EDC0D4
:10230000C33CD10508F0E9C0C85AD0E0CC0FDD1FAE
:10231000C851DD4F0990D881C02DCE019464E1C031
:10232000C11580E2D80708F0CBC0C11591E0D907EC
:1023300008F06BC0C83ED10508F4D2C0CEC0C0368C
:1023400082E5D80728F5C03492E5D90708F079C0AE
:10235000C03282E5D80708F06CC0C11592E5D907F4
:1023600008F481C04C2F4695469580E2489FA00115
:102370001124C37021E030E0C90102C0880F991F09
:10238000CA95E2F7EA01C82BD92BCE019D68A9C0F6
:10239000C03A82E5D807B8F48C2F8F71C03892E527
:1023A000D90708F07BC08695869590E2899F9001B9
:1023B0001124C37081E090E002C0880F991FCA9574
:1023C000E2F79A6868C0C03C82E5D80708F46DC09F
:1023D000C03E92E5D90708F080C0CF71DD27DC2F21
:1023E000CC27CE01806F906A7CC081E090E079C0FC
:1023F000C55AD0E0C25EDC4F8881C82FD0E0CE0144
:1024000090646FC0CE0190656CC08D2F0E94221326
:10241000182FCE0199270E9486121F715CC0CE0131
:1024200099270E948612CC27DF70D06A8C2B9D2BB7
:1024300058C0CF71D0E0DC2FCC27CE01816F906ADD
:1024400050C08C2F8F718695869590E2899F900160
:102450001124C37081E090E002C0880F991FCA95D3
:10246000E2F79C6818C08C2F8F710E94221395E0B0
:10247000D695C7959A95E1F7CF70D0E0DC2FCC27A1
:10248000282F30E084FF05C084E0220F331F8A9597
:10249000E1F7D069CE01822B932B23C090E0D82F97
:1024A000CC27CE01846F906A1CC08C2F8F710E9444
:1024B00022138F7190E0D82FCC27CE01906211C0EB
:1024C0008D2F8F710E942213182FCE0199270E9401
:1024D00086121F719062912B04C080E090E001C0D1
:1024E000CE01DF91CF911F910895723038F464309E
:1024F00028F4462F672F0E94C318089580E090E0CB
:1025000008950E9475120E9458110895823891050D
:1025100069F1B0F48133910509F475C048F489324A
:10252000910509F467C08A32910509F471C00895D4
:102530008533910509F459C089339105B9F008959F
:10254000833E910589F138F4803E9105D1F0823EB9
:10255000910529F10895863E9105C9F1873E9105BF
:10256000D9F1843E910509F06CC027C02091580430
:1025700020FD57C021FD55C02091590423FD5BC0AB
:1025800008958091580480FD48C08091590480FFCF
:1025900048C08091580484FD46C083EE51C08091AC
:1025A000580482FF3CC0F5CF8091580482FD37C0AB
:1025B0008091590480FD35C0ECCF8091590481FF92
:1025C00036C08091580484FD2EC087EE39C08091BA
:1025D000580483FF2AC0F5CF8091580483FD25C09D
:1025E0008091590481FD23C0ECCF8091580485FD72
:1025F00022C01FC08091580485FD1BC080915904E2
:1026000083FF19C00AC08091580486FD16C017C008
:102610008091580486FD13C010C089E311C082EE7A
:102620000FC080EE0DC080E00BC086EE09C084EEC6
:1026300007C085E305C089E203C08AE201C081E3E7
:1026400090E008959091580492FF10C041E0282F27
:102650002471243009F040E031E0282F287128301F
:1026600009F030E0431711F02CE0822793FF10C0EF
:1026700041E0282F2471243109F040E031E0282F77
:102680002871283109F030E0431711F02CE082273F
:102690003091590430FF10C051E0282F21712130B2
:1026A00009F050E041E0282F2871283009F040E07F
:1026B000541711F029E0822731FF10C041E0282F84
:1026C0002171213109F040E031E0282F28712831B3
:1026D00009F030E0431711F029E0822794FD877E4E
:1026E000089580E00895E82FF0E0E45AFB4F8081E0
:1026F0000895089508950E947A1308950E947B1307
:1027000008950E947A1308950E9481130895CF932B
:10271000DF9341E253E0A1E0B0E020E030E0FA01D5
:10272000E20FF31F80818F3FA1F0E82FE295EF7059
:10273000F0E061A18F70ED0102C0CC0FDD1F8A9522
:10274000E2F7CE019C2F9095962391A392A1892B1D
:1027500082A32F5F3F4F2430310509F74C5F5F4F55
:10276000D3E049325D07C9F6DF91CF9108950F9309
:102770001F93CF93DF93DC0170E08B01000F111FDB
:10278000000F111F40E050E0F1E0E0E0CA01800FCF
:10279000911F8F5D9C4FEC0198819F3F89F0292FFD
:1027A00022952F7030E0E90128A130E09F7002C02F
:1027B000359527959A95E2F720FD02C02F2F02C08C
:1027C00020E030E0E22BFF0F4F5F5F4F44305105B8
:1027D000E9F6A60FB71FEC93DF91CF911F910F91F0
:1027E00008950E94871310925D0410925C04109269
:1027F0005B0410925A0482E00E9437140E948413F2
:102800000895A2E0B0E0E7E0F4E10C94902A1A8287
:10281000198260E0CE0101960E94B71361E0CE01FB
:1028200001960E94B71342E050E0BE016F5F7F4FF8
:102830008AE594E00E94CC2A21E0009709F420E088
:10284000892B31F089819A8190935B0480935A049B
:1028500042E06CE574E08AE594E00E943814182F99
:102860000E947E13812F2296E3E00C94AC2A0895F7
:10287000EF92FF920F931F93CF93DF937C018B0115
:10288000C42F222351F081E08093BC030E94DE22FA
:102890009093BB038093BA0304C08091BC03811161
:1028A00002C080E01AC08091BA039091BB030E94DD
:1028B000F6220597B0F3D0E0AE01B701C8010E943F
:1028C000CC2A892B39F0AE01B701C8010E94D92A60
:1028D00081E001C080E01092BC03CDB7DEB7E6E036
:1028E0000C94A92A0E94F11008950E9475220E945A
:1028F000D2240E94BB100E94EC240E94E4100E948B
:10290000F9240E94FE240E9472140E9418250E943D
:102910009A230E94C410F5CF909339038093380313
:1029200008950E94BC0F089581E00E947313817086
:1029300008950E9401142FEF86E791E02150804016
:102940009040E1F700C000000E9401140E9494141E
:10295000882321F00E9491140E942B2308950E9445
:1029600099140895EF92FF920F931F93CF93DF93E3
:1029700080913004882309F441C0C091BD038DE0EB
:10298000F82E80913004C817A8F5EE24E394EC0EDD
:10299000E092BD03D0E0FC9EF001FD9EF00D1124FD
:1029A000E853FC4F8481882319F187819085892B16
:1029B00051F4818592858F3F2FEF920721F061E0DE
:1029C0000E945D030BC0008111812281338144810B
:1029D00055816681778180850E94280EFC9EF001DA
:1029E000FD9EF00D1124E853FC4F14820E94E60E68
:1029F000CE2DC7CF109230041092BD03CDB7DEB7F5
:102A0000E6E00C94A92A0895CF93DF931092320444
:102A100010923104C0E0D0E00E94DC04C817D9074E
:102A200058F4CE010E94DF04FC018581811102C0AF
:102A3000148216822196F0CFDF91CF9108951F93D3
:102A4000CF93DF931091C6032091C7031217F9F0BB
:102A5000C12FD0E0FE01EE0FFF1FE254FC4F40817A
:102A600051814817590779F40E94DF0421E0FC01E5
:102A700024838091C60318130AC02196C370DD27F2
:102A8000C093C60304C021961C2F1370DFCFDF91C3
:102A9000CF911F910895A0E0B0E0E1E5F5E10C943D
:102AA000862AEB012C8121115EC070903004A8ECC5
:102AB000B3E020E030E0812C61E070E0271508F001
:102AC00050C01B96AD90BC901C97C880D9804FEF2A
:102AD0005FEF912CE92CF12CF701EE0FFF1FEC0DAD
:102AE000FD1D05911491A016B10609F4A701011569
:102AF000110511F09394EECF4F3FEFEF5E0769F1B0
:102B0000FB0102C0EE0FFF1F4A95E2F78E2AAB01D0
:102B1000092C02C0440F551F0A94E2F74150510995
:102B2000E82DF0E04E175F07A9F44A815B816DE064
:102B3000629FF001639FF00D1124E853FC4F508712
:102B4000478324E02483108211829287818721E0C9
:102B50002D8307C014961C9214972F5F3F4F1D962C
:102B6000ADCF0E941F15CDB7DEB7EDE00C94A22AC1
:102B70000F931F93CF93DF93C091C6038091C70338
:102B8000C817A1F0D0E08E01000F111F02541C4F96
:102B9000F801808191810E94DF04BC01F8018081ED
:102BA00091810E944B152196C370E8CF0E94B21408
:102BB0000E940415DF91CF911F910F910895FF920C
:102BC0000F931F93CF93DF93DC010C911196FC9030
:102BD000119780E090E020E0E02FFF2DE20FF11D43
:102BE000E20FF11D4591549141155105B1F0FB01E2
:102BF0001081318190E0E12FF32FE90FF11DE90FF2
:102C0000F11DC591D491209731F04C175D0709F45F
:102C100081E09F5FF0CF2F5FDFCF882321F09217F5
:102C200028F0CD0104C080E090E001C0CB01CDB719
:102C3000DEB7E5E00C94AA2A80919802882341F13E
:102C40008091330490913404009711F10E94F62290
:102C5000209131043091320428173907C8F490913B
:102C6000C6038091C703981759F00E94B8151092B7
:102C700032041092310410923404109233040895F7
:102C80000E94B21410923404109233040E9404156E
:102C90000895109234041092330410929802809197
:102CA000C7038093C6030E9404150E94B2140895BE
:102CB00080919802882319F00E944916089581E0B6
:102CC000809398020895ACE0B0E0E9E6F6E10C9458
:102CD000812A4C016B0180352CE7920741F4FB01FE
:102CE00015811123C9F081E0809398029AC1813542
:102CF000FCE79F0739F4FB011581112369F00E945D
:102D000049168FC182359C4739F4FB011581112387
:102D100019F00E94581685C1909143038091440395
:102D2000892B0E94F005182F0E940315181731F007
:102D3000F601608171810E9475124C01A12CB12CA9
:102D40001C8666246394712CCE0101969B878A872A
:102D50000E94DC04A816B90608F01CC1C5010E9437
:102D6000DF047C01FC014081518144244A94542CAD
:102D700060E0262F30E0F901EE0FFF1FE40FF51F92
:102D8000859194918816990609F42901892B11F0EF
:102D90006F5FEFCFFFEF4F165F0609F4F3C0F70147
:102DA0007481711103C08091980202C080E090E0AC
:102DB0008170F6013580F70195812681332009F471
:102DC00081C0882309F47EC0911114C0C301042C72
:102DD00001C0880F0A94EAF7282B268380913104DA
:102DE00090913204C29730F482E390E090933204E1
:102DF00080933104930102C0220F331F6A95E2F7DA
:102E000021503109F701868190E02817390709F030
:102E1000BAC08091330490913404009741F00E942D
:102E2000F622C39720F021E0F7012483ACC0209064
:102E3000C60380E090E02091C703221669F1422C7E
:102E4000512CF201EE0FFF1FE254FC4F8081918163
:102E50000E94DF048C01B7010E94DF150097A9F0E2
:102E600021E0FC012483E816F90609F48CC02091C6
:102E7000C60322120AC00817190739F492012F5FFE
:102E80003F4F237033272093C60392012F5F3F4F9C
:102E9000422F4370242ECFCFE816F90609F473C0F1
:102EA000422C512CF201EE0FFF1FE254FC4FB18275
:102EB000A0828FEF481A580A93E049225524409285
:102EC000C70361C0911114C0A30102C0440F551F74
:102ED0006A95E2F74150510930E04217530709F073
:102EE00043C0772309F441C0C5010E941F153CC0AF
:102EF000822F90E09C012150310928233923042C92
:102F000002C0959587950A94E2F7232B59F580FF27
:102F100029C0F70182819381892BE1F0EA85FB8545
:102F200029E011922A95E9F70E94DE22282F8B834F
:102F30009C8344E04D83F70182819381782F8887B9
:102F4000998709811A813C815E816F81892F0E9456
:102F5000280E04C060E0C5010E945D03F7011582E0
:102F600081E003C0817001C080E09301042C01C0A6
:102F7000220F0A94EAF72095F701968129232683E8
:102F8000382E01C0312CFC85F329FC872FEFA21AC3
:102F9000B20ADECEF6018581882379F1FC85FF2314
:102FA00061F10E94DE229093340480933304809177
:102FB0003004883098F591E0980F9093300499E0B0
:102FC000F601DE01119601900D929A95E1F72DE040
:102FD000829FC001112488539C4F29E0FE01319645
:102FE000DC0101900D922A95E1F72FEF3FEFFC01F4
:102FF000328721879486838611C09091C603809181
:10300000C703981719F00E94B81508C00E94B2149F
:1030100010923404109233040E94041511E0FC85D0
:103020001F27812F2C96E2E10C949D2A87E00895BA
:1030300050E0440F551F28E0629F400D511D1124A0
:103040009A0160E1869F200D311D1124C9018896E7
:1030500008950F931F93CF93DF938730A0F46230CE
:1030600090F4443080F40E9418188C010E94E22AE7
:1030700090E0D82FCC27C80101960E94E22A9E0139
:10308000282BC90102C080E090E0DF91CF911F9111
:103090000F9108950F931F93CF93DF93873080F4A0
:1030A000623070F4443060F4E9010E9418188C0119
:1030B0006D2F0E94002B6C2FC80101960E94002BDF
:1030C000DF91CF911F910F9108951F93CF93DF93BD
:1030D000D0E0C0E010E0412F6C2F8D2F0E94C00483
:1030E0009C01412F6C2F8D2F0E944A181F5F1430B6
:1030F00091F7CF5FC23071F7DF5FD73051F7DF91C3
:10310000CF911F910895EF92FF920F931F93CF934A
:10311000DF93EA017A01E60EF71E8C01C80188965A
:10312000CE15DF0561F00037110520F40E94E22A78
:10313000888301C0188221960F5F1F4FEFCFCDB754
:10314000DEB7E6E00C94A92AEF92FF920F931F934B
:10315000CF93DF93EA017A01E60EF71E8C01C801D6
:103160008896CE15DF0551F00037110518F46881F7
:103170000E94002B21960F5F1F4FF1CFCDB7DEB716
:10318000E6E00C94A92A873038F4623028F4443001
:1031900018F40E942918089580E090E0089580E1D5
:1031A000089588E693E00895EF92FF920F931F939E
:1031B000CF93DF93EA017A01E60EF71E8C01C80176
:1031C00088569F4FCE15DF0569F0083623E01207B9
:1031D00020F40E94E22A888301C0188221960F5FA2
:1031E0001F4FEDCFCDB7DEB7E6E00C94A92AEF92E2
:1031F000FF920F931F93CF93DF93EA017A01E60EBC
:10320000F71E8C01C80188569F4FCE15DF0559F077
:10321000083623E0120718F468810E94002B2196DB
:103220000F5F1F4FEFCFCDB7DEB7E6E00C94A92AB2
:10323000CF93DF93C8E9D0E060E0CE010E94002B7D
:103240002196C11584E0D807B9F7DF91CF91089591
:10325000A8E0B0E0EEE2F9E10C94872AF82E8FE0C6
:103260008F1508F474C08FEF93E00E94E22A811159
:103270006EC008E910E0FF2071F0011594E0190715
:1032800009F465C0C8010E94E22A811101C0FA94C4
:103290000F5F1F4FF0CFFE0131966F0188E0119252
:1032A0008A95E9F77801FFEFEF1AFF0AC8010E943B
:1032B000E22A89831A82882309F449C0813009F0FF
:1032C00040C0580182E0A80EB11CC7010E94E22A4A
:1032D0008A838823E1F19FEF980F933060F478019F
:1032E00093E0E90EF11CC5010E94E22A8B8388233A
:1032F00071F11C8226C0843019F54E01E3E08E0E78
:10330000911C02E010E07501FFEFEF1AFF0AC50102
:103310000E94E22AF40181934F018823C1F08C3787
:1033200041F4E2E0F0E0EC0FFD1FE00FF11F10822E
:1033300008C00F5F1F4F57010730110521F707C065
:10334000750160E0C6010E940E1E8701ABCF289672
:10335000ECE00C94A32ACF93DF9386319C4709F5C8
:10336000EB010E94C60E9D81992371F08A7A91E04B
:1033700009F490E090933504811102C089E201C004
:1033800085E30E94E62109C080913504811102C0C5
:1033900089E201C085E30E94EE210E94480F80E08F
:1033A00001C081E0DF91CF910895CF93DF93FC01BD
:1033B000DB0115968C91882309F4DDC09F013057FD
:1033C0002332310508F0D8C0EF010E94D90F909345
:1033D000590480935804FE01E150F047E232F105B0
:1033E00020F4E456FF4F0C94742A809158048160B5
:1033F000AAC0809159048860B2C08091580482604C
:10340000A2C08091580420C08091580488609BC05D
:10341000809159041EC0809159048260A0C080919F
:103420005804806190C08091580480628CC0809163
:103430005804806488C00E94E5098091580480681F
:1034400082C080915804886084607DC08091590456
:103450008260816084C0809158048E7F74C08091A6
:103460005904877F7CC0809158048D7F6CC0809107
:10347000580420C080915804877F65C0809159040A
:103480001EC0809159048D7F6AC0809158048F7E40
:103490005AC0809158048F7D56C0809158048F7B0C
:1034A00052C00E94E509809158048F774CC08091EA
:1034B0005804877F8B7F47C0809159048D7F8E7F12
:1034C0004EC08091580482FB222720F991E0922778
:1034D00090FB82F990FB83F936C080915904982FB4
:1034E000909591708E7F892B90FB81F938C08091E7
:1034F000580486FB222720F991E0922790FB86F959
:1035000022C00E94E5098091580487FB222720F9F8
:1035100091E0922790FB87F916C081E001C080E01E
:103520000E9464101EC08091580484FB222720F959
:1035300091E0922790FB84F906C080915804982F5F
:10354000909590FB80F9809358040BC080915904AA
:1035500083FB222720F991E0922790FB83F9809347
:10356000590480915804909159040E94DE0F0E94E2
:10357000E50980E001C081E0DF91CF910895282F17
:1035800035EB2303C001112497FF03C08058910934
:1035900002C080589F4F892F089580913C0480FF7E
:1035A00006C060919E0270E0660F771F26C081FF03
:1035B00004C060919E0284E005C082FF07C0609154
:1035C0009E0288E0689FB001112417C090913B04CF
:1035D0009923D1F060919D02961788F720919E0261
:1035E00088E0289F90011124929FA001939F500D85
:1035F000112470E0CA010E94602A6038710540F40D
:103600006115710519F406C068E070E0862F089511
:103610008FE7089581E0089580913C0480FF08C001
:1036200060919A0270E0759567957595679521C0D0
:1036300081FF06C060919A0270E07595679519C088
:1036400082FF04C060919A0270E010C090913A0429
:10365000992399F0609199029617A0F780919A02A8
:10366000899FC001112470E00E94602A60387105B2
:1036700040F46115710519F406C061E070E0862F11
:1036800008958FE7089581E0089590913F04911186
:103690000CC090914004911108C090914204911186
:1036A00004C090914104992331F098E090933B0439
:1036B00091E090933A048D3C21F40E94CD1A8195BB
:1036C00004C08E3C29F40E94CD1A809340040895D2
:1036D0008F3C21F40E94CD1A819504C0803D29F4CD
:1036E0000E94CD1A80933F040895893D19F40E94E9
:1036F0000C1B05C08A3D31F40E940C1B8195809300
:10370000410408958B3D21F40E940C1B819504C057
:103710008C3D29F40E940C1B8093420408959FE283
:10372000980F983078F421E030E0A90102C0440FEE
:10373000551F9A95E2F7CA0190913E04892B809318
:103740003E0408958D3D21F480913C0481600BC0BE
:103750008E3D21F480913C04826005C08F3D29F4A8
:1037600080913C04846080933C0408958D3C39F43E
:103770009091400497FF35C01092400459C08E3C90
:1037800029F4909140041916BCF32BC090913F048A
:103790008F3C29F497FF25C010923F0449C0803D1B
:1037A00019F41916CCF31DC090914104893D29F4F8
:1037B0001916BCF4109241043BC08A3D19F497FFDE
:1037C00010C0F8CF8B3D39F49091420497FF09C0A7
:1037D000109242042DC08C3D21F4909142041916A0
:1037E000BCF39FE2980F983080F421E030E0A9010B
:1037F00002C0440F551F9A95E2F7CA018095909137
:103800003E04892380933E0413C08D3D21F48091B2
:103810003C048E7F0BC08E3D21F480913C048D7F53
:1038200005C08F3D29F480913C048B7F80933C043C
:1038300080913F04811106C080914004811102C033
:1038400010923B0480914104811106C08091420492
:10385000811102C010923A0408950E94DE22209144
:103860003F04211104C020914004222321F09093B1
:1038700039048093380420914104211104C020911F
:103880004204222321F090933704809336048DE381
:1038900094E00E9444210895EDE3F4E086E0DF0126
:1038A0001D928A95E9F710923B0410923A04109207
:1038B0003C040895FC01828181110DC08381811136
:1038C0000AC08481811107C091E08581811101C006
:1038D00090E0892F01C081E081700895A6E0B0E0FA
:1038E000E4E7FCE10C94902A86E0EDE3F4E0DE01ED
:1038F000119601900D928A95E1F710923F04109273
:10390000400410924104109242048B81811104C042
:103910008C81882309F456C0809138049091390431
:103920000E94F622AC0190913B04992339F020913A
:103930009F0230E02417350758F044C02091A002C0
:103940008AE0289F900111242417350718F03AC007
:103950009F3F19F09F5F90933B041B81112361F0FF
:103960000E94CD1A111614F09FEF01C091E0989FAC
:10397000902D112490933F041C81112361F00E942B
:10398000CD1A111614F09FEF01C091E0989F902D71
:1039900011249093400480913F04882399F0109162
:1039A0004004112379F00E94BF1A811101C081E007
:1039B00080933F04812F0E94BF1A811101C081E0D2
:1039C000809340048D81811104C08E81882309F485
:1039D00056C080913604909137040E94F622AC01C3
:1039E00090913A04992339F020919B0230E02417FA
:1039F000350758F044C020919C028AE0289F90012E
:103A000011242417350718F03AC09F3F19F09F5F23
:103A100090933A041D81112361F00E940C1B111632
:103A200014F09FEF01C091E0989F902D1124909386
:103A300041041E81112361F00E940C1B111614F029
:103A40009FEF01C091E0989F902D11249093420424
:103A500080914104882399F010914204112379F058
:103A60000E94BF1A811101C081E080934104812F1F
:103A70000E94BF1A811101C081E080934204BE01FF
:103A80006F5F7F4F8DE394E00E940122811105C09A
:103A90008DE394E00E945A1C81110E942D1C86E047
:103AA000FE013196ADE3B4E001900D928A95E1F705
:103AB0002696E3E00C94AC2A8F929F92BF92CF920D
:103AC000DF92EF92FF920F931F93CF93DF93E82F34
:103AD000F0E0E85BFB4FB490282F269526952695BD
:103AE00030E0F901E851FB4FE4908770F12C082E8B
:103AF00002C0F594E7940A94E2F791E0E922FF24EA
:103B0000F901E852FB4FC490D12C082E02C0D59485
:103B1000C7940A94E2F7E1E0CE22DD24F901E853EC
:103B2000FB4FC491D0E002C0D595C7958A95E2F7C6
:103B3000C170DD27062F10E0E114F10471F081EE71
:103B40000E948B06C801009741F0EFE9FFE0319732
:103B5000F1F700C000000197F6CFC114D10439F489
:103B60004801B8018B2D0E947307C8010EC086EE74
:103B70000E948B06C801009799F3EFE9FFE03197A7
:103B8000F1F700C000000197F6CF009741F0EFE990
:103B9000FFE03197F1F700C000000197F6CFCD2884
:103BA00019F5EF2879F081EE0E941907011511052A
:103BB00049F08FE99FE00197F1F700C00000015044
:103BC0001109F4CFCD2BF1F08CE20E948B07811408
:103BD0009104C1F0EFE9FFE03197F1F700C0000078
:103BE000F1E08F1A9108F3CF86EE0E941907C80101
:103BF0000097B9F2EFE9FFE03197F1F700C000005C
:103C00000197F6CFDF91CF911F910F91FF90EF9029
:103C1000DF90CF90BF909F908F900895EF92FF928A
:103C20000F931F93CF93DF93EC01162F0AE0888147
:103C3000882309F457C0813009F04FC08981813051
:103C400041F47E0182E0E80EF11C8A810E948B071C
:103C500009C0823049F47E01E2E0EE0EF11C8A8157
:103C60000E948B06E7012DC0833041F47E01F2E013
:103C7000EF0EF11C8A810E941907F4CF843011F0F5
:103C800021961FC02A81229680E090E030E02053E8
:103C900031092A30310558F4089FA001099F500DC1
:103CA0001124C901840F951F21962881EFCF009719
:103CB00041F0EFE9FFE03197F1F700C00000019714
:103CC000F6CF812F90E0009759F0EFE9FFE03197B0
:103CD000F1F700C000000197F6CF612F0E945C1D34
:103CE0002196A5CFCDB7DEB7E6E00C94A92AEF92D6
:103CF000FF920F931F93CF93DF938C01F62E8AE0F0
:103D0000E82EF8018491882309F44DC0813009F030
:103D100042C0E8012196FE018491813031F4219660
:103D2000FE0184910E948B073AC0823039F4E80189
:103D30002296FE0184910E948B0631C0833039F4B3
:103D4000E8012296FE0184910E94190728C0843060
:103D500031F5E8012296FE01249180E090E030E008
:103D6000205331092A30310560F4E89EA001E99E14
:103D7000500D1124C901840F951F2196FE01249135
:103D8000EECF009761F0EFE9FFE03197F1F700C067
:103D900000000197F6CF6F2D0E945C1DE8018E0197
:103DA0000F5F1F4FAECFCDB7DEB7E6E00C94A92A68
:103DB0000F931F93CF93DF93C42FD22FFC018581E4
:103DC0008823B1F0409345040E94DE22909344047E
:103DD0008093430480E28C0F883008F04DC0C77098
:103DE00081E001C0880FCA95EAF70E94950744C098
:103DF00080914504481330C080914304909144045D
:103E00000E94F622883C910538F510E21D0FCD176F
:103E1000B9F080E28C0F883040F4C77081E001C0B7
:103E2000880FCA95EAF70E949C07183010F581E0C8
:103E30009D2F977001C0880F9A95EAF70E94950709
:103E4000802F0E948B071830B8F4D77081E001C032
:103E5000880FDA95EAF70AC080E28C0F883060F4A8
:103E6000C77081E001C0880FCA95EAF70E949C07DD
:103E700003C0802F0E948B07DF91CF911F910F917C
:103E800008950F93FC01E851FC47E730F10590F5E8
:103E9000CB01E254FF4F0C94742A06E221EE41EE6E
:103EA0006AE17CE723C007E225EE45EE6BE17CE7A3
:103EB0001DC006E221EE40EE68E17CE717C007E294
:103EC00025EE44EE69E17CE711C006E221EE42EE08
:103ED0006CE17CE70BC007E225EE46EE6DE17CE786
:103EE00005C008E221E045EE6EE17CE70E94D81EA5
:103EF00080E008C0FB018581882319F010924504F9
:103F000001C081E00F9108951F93CF93DF9387370E
:103F10002CE7920721F088379C4759F031C0FB010C
:103F2000C581CC2319F00E94C61F09C00E94C61F7C
:103F300018C0FB01C581CC2391F00E94C91F0E94CB
:103F4000640A0E94CC1FD82F0E94C91FC82F0E944C
:103F5000C61F4D2F6C2F0E948E0BC0E012C00E9416
:103F6000C91F0E94700A0E94CC1F182F0E94C91FEF
:103F7000D82F0E94C61F412F6D2F0E948E0B01C0AB
:103F8000C1E08C2FDF91CF911F9108958091A30202
:103F900008958091A20208958091A102089584E27B
:103FA00090E00E94E22A843281F485E290E00E944F
:103FB000E22A883051F486E290E00E94E22A91E001
:103FC000813309F090E0892F01C080E0817008956D
:103FD000CF93C82F811102C06FEF01C064E284E269
:103FE00090E00E94002BC11102C06FEF01C068E099
:103FF00085E290E00E94002BC11102C06FEF01C06A
:1040000061E386E290E00E94002BCF91089508952D
:1040100087E290E00E94E22A682F70E080E090E062
:1040200008950895CF93C62F0E9411206C2F87E228
:1040300090E00E94002BCF91089580E00E94E81F3D
:1040400060E070E0CB010E9412200E9465180E947F
:10405000181981E00E94E81F08950E9407200E941D
:1040600008200E9411200E94CF1F811102C00E94CF
:104070001D20089508959C01FB018581882351F03E
:10408000A90157574038510530F4C9010E94281939
:1040900080E0089581E008952FEFFC0120830895CA
:1040A0000E944C20089580E00895A0E0B0E0EBE588
:1040B000F0E20C94892AEC01F62E0E945320811123
:1040C000BEC0E8818E2F90E0FC013197E331F1050D
:1040D00008F0AFC0EB53FF4F0C94742A19828CE0A8
:1040E0006BC08981823089F030F4813009F0A1C041
:1040F0000E94EA220CC0833079F0843009F099C024
:104100001A821B821C821D8296C00E9408209A83FC
:104110008B837C836D838FC0EA806E0183E0C80E41
:10412000D11C00E010E0AE2CB12CC501800F911F16
:10413000029708F080C08E2D800F0E947313F60145
:1041400081936F010F5F1F4F0C31110571F773C021
:104150008981823039F0853009F06BC08A810E94F4
:104160003A2069C06A817B818C819D810E947A2A74
:104170000E94122060C04B816A8189810E942918A7
:104180009C838D8358C02C813D8132272327322781
:104190004B816A8189810E944A184DC00E9465182E
:1041A0004AC06F2DCE010E94502045C00E94CF18FA
:1041B00024C00E94D11899838A833DC06B8170E02E
:1041C00089819A81AE014C5F5F4F98278927982794
:1041D0000E94D41830C06B8170E089819A81AE0151
:1041E0004C5F5F4F9827892798270E94F71823C0B4
:1041F0000E94181920C00E94161889831CC06B8168
:1042000070E089819A81AE014C5F5F4F98278927C2
:1042100098270E9483180FC06B8170E089819A8172
:10422000AE014C5F5F4F9827892798270E94A418FA
:1042300002C08FEF88836F2DCE010E949123CDB7EE
:10424000DEB7EAE00C94A52A90934B0480934A04CD
:104250000895E0914A04F0914B04309729F00190C1
:10426000F081E02D0995089580E008950E942921AC
:104270000895E0914A04F0914B04309721F00280B8
:10428000F381E02D09950895E0914A04F0914B04E3
:10429000309739F022E0DC012C930680F781E02D85
:1042A00009950895A3E0B0E0E8E5F1E20C94912AC5
:1042B000209148043091490428173907A1F09093C0
:1042C000490480934804E0914A04F0914B043097EC
:1042D00051F023E029839B838A830084F185E02DBC
:1042E000CE01019609952396E2E00C94AD2AA3E055
:1042F000B0E0EDE7F1E20C94912A20914604309170
:10430000470428173907A1F0909347048093460487
:10431000E0914A04F0914B04309751F024E0298356
:104320009B838A830084F185E02DCE010196099557
:104330002396E2E00C94AD2AE0919602F091970268
:10434000329697E080E0915029F021912223D9F311
:104350008F5FF9CF0895882371F0209196023091F4
:104360009702F9013296285F3F4F9191891729F002
:10437000E217F307D1F780E0089581E008959C01EA
:10438000FC0132969FEF80E04191461789F09F3FF4
:1043900019F4411101C0982F8F5F8630A9F79F3F14
:1043A00039F0F901E90FF11D97FDFA95628308953F
:1043B00008959C012A5F3F4FFC014281461301C0D2
:1043C0001282019682179307B9F70895682F80919A
:1043D0009602909197020E94BF210895682F8091C4
:1043E0009602909197020E94D9210895E091960239
:1043F000F0919702329686E0DF011D928A95E9F7E7
:104400000895DC01FB0111969C911197818198130D
:1044100021C012968C911297882319F092818913EA
:1044200019C013968C911397882319F093818913DF
:1044300011C015968C911597882319F095818913D1
:1044400009C014969C91992339F081E024812913A5
:1044500004C002C081E001C080E081700895089529
:104460000E942F22089583E080934C040E94302202
:104470000895811102C081E001C082E080934C0464
:104480000E94302208950E943922089581E080938D
:104490004C040E94302208950E94462208950895F7
:1044A0000E944F2208950E94502208950E944F2298
:1044B00008950E944F2208950E944F2208950E945D
:1044C00059220E9401140E94562280E00E94731318
:1044D000811108C081E00E94731391E0811103C033
:1044E00090E001C091E0892F089585B7806885BF6D
:1044F00085B7806885BF08951F920F920FB60F92FF
:1045000011248F939F93AF93BF9380914D0481119A
:1045100013C080915E0490915F04A0916004B091FB
:1045200061044196A11DB11D80935E0490935F04C8
:10453000A0936004B0936104BF91AF919F918F915C
:104540000F900FBE0F901F901895809166048430D5
:1045500031F10E94E60510924D0420E488E190E0DC
:104560000FB6F894A895809360000FBE209360006A
:1045700083B7817F846083BF83B7816083BF789472
:10458000889583B78E7F83BF0FB6F894A8958091E6
:104590006000886180936000109260000FBE0895F3
:1045A0000E94E5090E94EB05089582E084BD93E036
:1045B00095BD9AEF97BD80936E0008952FB7F8943C
:1045C00080915E0490915F04A0916004B0916104B9
:1045D0002FBF08952FB7F89460915E0470915F0427
:1045E00080916004909161042FBF08959C014FB7A2
:1045F000F89480915E0490915F04A0916004B09162
:1046000061044FBF821B930B089578941F920F9201
:104610000FB60F9211248F939F93AF93BF93809106
:104620005E0490915F04A0916004B09161040196D2
:10463000A11DB11D80935E0490935F04A09360045C
:10464000B0936104BF91AF919F918F910F900FBE76
:104650000F901F90189587E797E790930108809334
:1046600000089AE088E10FB6F894A895809360005E
:104670000FBE90936000FFCF9AE088E10FB6F894E8
:10468000A895809360000FBE90936000FFCF80914B
:104690005604089508959B01909166049430F1F4B6
:1046A0008F708093E9008FEF9091E800815095FD25
:1046B00006C095ED9A95F1F700008111F5CF809134
:1046C000E80085FF0BC0BA01C90140E050E00E943C
:1046D0008D258091E8008E778093E800089543E06F
:1046E00050E0BC0184E00E944B23089546E050E076
:1046F000BC0184E00E944B230895CF93DF93EC012B
:1047000048E050E0BC0181E00E944B2388E0FE01BC
:10471000AEE4B4E001900D928A95E1F7DF91CF917C
:104720000895603231F4BC0140E250E082E00E9422
:104730004B230895A0E2B0E0E0EAF3E20C94912A62
:1047400080916604843011F583E08093E9008091C4
:10475000E80082FF1BC08091E80085FF0AC040E0AE
:1047600050E060E270E0CE0101960E94D22591E017
:1047700001C090E08091E8008B778093E800992356
:1047800029F060E2CE0101960E945520A096E2E059
:104790000C94AD2A80916504811109C00E945D27A7
:1047A0000E94BA278091E20084608093E20008951D
:1047B0001092650408950E944C220895609162044D
:1047C00081E0611101C080E00E9433220895909140
:1047D000660481E0943009F080E0609162040E94F8
:1047E0003922089542E061EC81E00E94D62642E23F
:1047F00061EC84E00E94D62642E261EC82E00E94F5
:10480000D62642E260EC83E00E94D62690916604B0
:1048100081E0943009F080E0609162040E944322BC
:10482000089580916804833009F463C030F48130C6
:1048300071F0823009F49DC008958A3009F489C06E
:104840008B3009F46EC0893009F0ABC020C0809174
:104850006704813A09F0A5C08091E800877F8093C2
:10486000E80080916B0490916C04892B21F468E03E
:104870008EE494E003C060E080E090E070E00E948D
:1048800017268091E8008B778093E8000895809147
:104890006704813209F085C080916B0490916C04AB
:1048A000009719F0029709F07CC08091E800877F9B
:1048B0008093E8008091E80082FD05C08091660445
:1048C0008111F8CF6EC02091F3008091F20090E04A
:1048D000922B029731F48091F100813011F08630F3
:1048E00021F48091F100809356048091E8008B7749
:1048F00054C080916704813A09F053C080916B04E1
:1049000090916C04892B09F04CC08091E800877F5E
:104910008093E8008091E80080FFFCCF8091AE0298
:1049200037C0809167048132E1F580916B049091EA
:104930006C04892BB1F58091E800877F8093E800B3
:104940000E940B27809169048093AE020E94E509C2
:10495000089580916704813221F58091E800877F76
:104960008093E8000E940B2780916A04809357048B
:10497000089580916704813AA1F48091E800877FCF
:104980008093E8008091E80080FFFCCF809157047D
:104990008093F1008091E8008E778093E8000E9478
:1049A0000B27089584B7877F84BF0FB6F894A89526
:1049B00080916000886180936000109260000FBE5B
:1049C00090E080E80FB6F8948093610090936100C6
:1049D0000FBE0E94462208950E945D270E94BA27BA
:1049E000E2EEF0E080818460808378940E94452A22
:1049F000089584EA92E00E9424210895809166043B
:104A00008530A9F480916604853079F40E94A5224E
:104A1000809164048823B1F30E945F22882391F37C
:104A20000E9477250E94E509EDCF0E94D0220895CB
:104A300008959A0140916D0450916E040E942125C1
:104A40000895492F552743305105C9F060F441308E
:104A5000510581F04230510509F041C08BE590E0ED
:104A60004EE255E040C041325105E1F0423251057D
:104A700031F135C082E190E049E855E034C0992732
:104A80008130910549F028F0029749F5E8EFF4E00C
:104A900005C0EAE2F5E002C0E0E1F5E0849190E0D3
:104AA000AF0121C063307105D0F4660F771FFB01A1
:104AB000EE5CFC4F4081518189E090E014C063308E
:104AC000710568F4FB01EE0FFF1FE45DFC4F4081B0
:104AD0005181FB01E75DFC4F808190E004C080E0E4
:104AE00090E040E050E0F90151834083089580E177
:104AF00089BD82E189BD09B400FEFDCF8091D80057
:104B00008F7D8093D8008091E00082608093E000E8
:104B10008091E00081FDFCCF0895A0E0B0E0E3E9E2
:104B2000F5E20C948B2AEC018B017A010E942A2772
:104B3000811133C0E114F10439F0F70180819181D2
:104B4000081B190BC80FD91FC12CD12C0115110539
:104B500019F18091E80085FD16C08091E8008E77FC
:104B60008093E800E114F10449F0F701808191811C
:104B7000C80ED91ED182C08285E00FC00E942A27AC
:104B8000882321F30AC089918093F1000150110913
:104B9000FFEFCF1ADF0ADACF80E0CDB7DEB7E8E06B
:104BA0000C94A72AA0E0B0E0E8EDF5E20C948B2A83
:104BB000EC018B017A010E942A27811133C0E11494
:104BC000F10439F0F70180819181081B190BC80F9E
:104BD000D91FC12CD12C0115110519F18091E800C4
:104BE00085FD16C08091E8008B778093E800E11482
:104BF000F10449F0F70180819181C80ED91ED1825C
:104C0000C08285E00FC00E942A27882321F30AC0B2
:104C10008091F100899301501109FFEFCF1ADF0A4B
:104C2000DACF80E0CDB7DEB7E8E00C94A72A209178
:104C30006D0430916E042617370748F06115710531
:104C400039F42091E8002E772093E80001C0B901E3
:104C5000FC0120E06115710579F1809166048823DB
:104C6000F1F18530F1F18091E80083FD3CC0809145
:104C7000E80082FD2EC08091E80080FFEBCF2091FC
:104C8000F3008091F20090E0922B6115710551F0D4
:104C90008830910538F421912093F1006150710919
:104CA0000196F3CF21E0089709F020E08091E80019
:104CB0008E778093E800CECF2111CFCF0AC08091AC
:104CC0006604882361F0853061F08091E80083FDFF
:104CD0000AC08091E80082FFF2CF80E0089582E070
:104CE000089583E0089581E0089520916D04309146
:104CF0006E042617370748F06115710539F42091C5
:104D0000E8002E772093E80001C0B901FC0120E003
:104D10006115710591F180916604882309F440C002
:104D2000853009F43FC08091E80083FD3DC080914B
:104D3000E80082FD2FC08091E80080FFE9CF20913C
:104D4000F3008091F20090E0922B6115710559F00B
:104D50008830910540F424912093F1003196615000
:104D600071090196F2CF21E0089709F020E08091C7
:104D7000E8008E778093E800CBCF2111CCCF0AC01A
:104D800080916604882361F0853061F08091E800AD
:104D900083FD0AC08091E80082FFF2CF80E0089591
:104DA00082E0089583E0089581E00895982F973078
:104DB00068F59093E900981739F07091EC00209114
:104DC000ED005091F00003C0242F762F50E021FD1C
:104DD00002C09F5FECCF3091EB003E7F3093EB0041
:104DE0003091ED003D7F3093ED003091EB0031606C
:104DF0003093EB007093EC002093ED005093F000A3
:104E00002091EE0027FDE5CF80E008958F7080931C
:104E1000E90081E008958091670487FF11C08091C7
:104E2000E80082FD05C0809166048111F8CF11C0B1
:104E30008091E8008B770BC080916604882349F04D
:104E40008091E80080FFF8CF8091E8008E77809312
:104E5000E80008952091E4003091E50095E6409146
:104E6000EC00842F817040FF23C08091E80080FD1A
:104E70001DC080916604882399F0853099F0809157
:104E8000EB0085FD11C04091E4005091E50024172E
:104E9000350729F3915011F09A01E1CF84E008958C
:104EA00082E0089583E0089581E0089580E0089508
:104EB0004091E80042FFDDCF08950E94CC270E9478
:104EC000D427E0EEF0E0808181608083E8EDF0E0BF
:104ED00080818F77808319BCA7EDB0E08C918E7FA5
:104EE0008C9380818F7E80831092650408950F9348
:104EF0001F93CF93DF930E94CC270E94D427C8ED45
:104F0000D0E088818F7788838881806888838881D2
:104F10008F7D888319BC10926604109262041092EF
:104F200064041092630400EE10E0F80180818B7F2E
:104F3000808388818160888342E060E080E00E9415
:104F4000D626E1EEF0E080818E7F8083E2EEF0E015
:104F5000808181608083808188608083F801808186
:104F60008E7F8083888180618883DF91CF911F91BC
:104F70000F910895E8EDF0E080818F7E8083E7ED6A
:104F8000F0E080818160808384E082BF81E0809353
:104F900065040E9477270895E8EDF0E080818E7F18
:104FA00080831092E20008951092DA001092E100DE
:104FB00008951F920F920FB60F9211242F933F93D3
:104FC0004F935F936F937F938F939F93AF93BF9311
:104FD000EF93FF938091E10082FF0BC08091E2008C
:104FE00082FF07C08091E1008B7F8093E1000E94E7
:104FF000442A8091DA0080FF1FC08091D80080FF92
:105000001BC08091DA008E7F8093DA008091D900F6
:1050100080FF0DC080E189BD82E189BD09B400FE39
:10502000FDCF81E0809366040E94CA2305C019BCAD
:10503000109266040E94D8238091E10080FF19C07D
:105040008091E20080FF15C08091E2008E7F809306
:10505000E2008091E20080618093E2008091D800BC
:1050600080628093D80019BC85E0809366040E941A
:10507000DE238091E10084FF30C08091E20084FF54
:105080002CC080E189BD82E189BD09B400FEFDCF5D
:105090008091D8008F7D8093D8008091E1008F7E31
:1050A0008093E1008091E2008F7E8093E200809106
:1050B000E20081608093E20080916204882311F015
:1050C00084E007C08091E30087FD02C081E001C059
:1050D00083E0809366040E94E7238091E10083FFD0
:1050E00029C08091E20083FF25C08091E100877F85
:1050F0008093E10082E080936604109262048091C4
:10510000E1008E7F8093E1008091E2008E7F8093AA
:10511000E2008091E20080618093E20042E060E082
:1051200080E00E94D6268091F00088608093F00095
:105130000E94DB23FF91EF91BF91AF919F918F91DF
:105140007F916F915F914F913F912F910F900FBE83
:105150000F901F9018951F920F920FB60F92112467
:105160002F933F934F935F936F937F938F939F936F
:10517000AF93BF93CF93DF93EF93FF93C091E90079
:10518000CF708091EC00D82FD17080FDD0E81092C4
:10519000E9008091F000877F8093F00078940E946E
:1051A000EF281092E9008091F00088608093F00071
:1051B000CD2BCF70C093E900FF91EF91DF91CF919C
:1051C000BF91AF919F918F917F916F915F914F911F
:1051D0003F912F910F900FBE0F901F901895AAE24C
:1051E000B0E0E5EFF8E20C94902AE7E6F4E0809175
:1051F000F100819324E0EF36F207C9F70E941124F1
:105200008091E80083FF2EC180916704909168042B
:10521000492F50E04A30510508F024C1FA01E85204
:10522000FF4F0C94742A803821F0823809F01AC19B
:1052300008C08091630490916404992389F082608E
:105240000FC080916B048F70873008F00BC1809382
:10525000E9008091EB0085FB882780F91092E90036
:105260009091E800977F9093E8008093F10010926E
:10527000F100D1C0282F2D7F09F0F4C0882319F048
:10528000823061F0EFC080916904813009F0EAC09A
:10529000933009F080E0809364042EC0809169040B
:1052A00081112AC080916B048F702FEF280F263058
:1052B00008F0D8C08093E9002091EB0020FF1CC0CB
:1052C000933021F48091EB00806214C09091EB0048
:1052D00090619093EB0021E030E0A90102C0440FFF
:1052E000551F8A95E2F74093EA001092EA008091F8
:1052F000EB0088608093EB001092E9008091E80059
:10530000877F8093E8000E940B27ACC08111AAC060
:10531000109169041F778091E3008078812B80933E
:10532000E3008091E800877F8093E8000E940B27CC
:105330008091E80080FFFCCF8091E300806880933B
:10534000E300111102C082E001C083E08093660493
:1053500089C08058823008F085C08091690490919E
:105360006A048C3D53E0950779F583E08A838AE2ED
:1053700089834FB7F894DE01139620E03EE051E2B6
:10538000E32FF0E050935700E49120FF03C0E29533
:10539000EF703F5FEF708E2F90E0EA3010F0C7960D
:1053A00001C0C0968D939D932F5F243149F74FBF65
:1053B0008091E800877F8093E8006AE270E0CE0188
:1053C00001960E94172616C060916B0470916C04C0
:1053D000AE014F5F5F4F0E941925BC01892B09F474
:1053E00041C09091E800977F9093E80089819A816D
:1053F0000E9475268091E8008B778093E80032C088
:10540000803881F58091E800877F8093E800809163
:1054100062048093F1008091E8008E7772CF811151
:1054200021C08091690490916A0499270297D4F46D
:105430008091E800877F8093E800809169048093E1
:1054400062040E940B2780916204811106C0809142
:10545000E30087FD02C081E001C084E08093660420
:105460000E94F2238091E80083FF0AC08091E80047
:10547000877F8093E8008091EB0080628093EB004F
:10548000AA96E3E00C94AC2A0895CF938091660429
:105490008823A1F0C091E900CF709091EC00892F92
:1054A000817090FD80E8C82B1092E9008091E8009F
:1054B00083FD0E94EF28CF70C093E900CF9108953B
:1054C00097FB072E16F4009407D077FD09D00E94B1
:1054D000B82A07FC05D03EF4909581959F4F08951A
:1054E000709561957F4F0895EE0FFF1F0590F49121
:1054F000E02D099469279627692778278727782739
:1055000008952F923F924F925F926F927F928F9267
:105510009F92AF92BF92CF92DF92EF92FF920F9342
:105520001F93CF93DF93CDB7DEB7CA1BDB0B0FB64C
:10553000F894DEBF0FBECDBF09942A883988488809
:105540005F846E847D848C849B84AA84B984C8849F
:10555000DF80EE80FD800C811B81AA81B981CE0F96
:10556000D11D0FB6F894DEBF0FBECDBFED0108957B
:10557000AA1BBB1B51E107C0AA1FBB1FA617B70779
:1055800010F0A61BB70B881F991F5A95A9F7809595
:105590009095BC01CD010895FB01DC0104C08D9103
:1055A0000190801921F441505040C8F7881B990B95
:1055B0000895FB01DC0102C001900D924150504062
:1055C000D8F70895F999FECF92BD81BDF89A992731
:1055D00080B50895A8E1B0E042E050E00C94262B9D
:1055E000DC01A40FB51F4150504048F0CB01840F9F
:1055F000951F2E910E94012B41505040D0F70895E5
:10560000262FF999FECF92BD81BDF89A019700B47B
:10561000021639F01FBA20BD0FB6F894FA9AF99A1B
:105620000FBE08950396272F0E94012B0E94002B86
:10563000252F0E94012B242F0C94012B0196272F3C
:105640000E94012B0C94002BDC01CB01FC01F99989
:10565000FECF06C0F2BDE1BDF89A319600B40D92BE
:0C56600041505040B8F70895F894FFCF77
:10566C00420400000000003A040000000000340472
:10567C0000000000002E04000000000028040000C0
:10568C00000000220400000000001C0400000000C8
:10569C0000160400000000001004000000000008C8
:1056AC0004000000000002040000000000FA0300E7
:1056BC0000000000F2030000000000EC03000000FA
:1056CC000000E4030000000000DA0300000000000A
:1056DC00D2030000000000CC030000000000C20355
:1056EC000000000000B8030000000000B20300003E
:1056FC00000000AC030000000000A6030000000046
:10570C0000A00300000000009A03000000000094B9
:10571C000300000000008C03000000000084030064
:10572C00000000007E030000000000780300000071
:10573C000000720300000000006C03000000000079
:10574C006603000000000060030000000000560328
:10575C0000000000004C03000000000046030000A5
:10576C00000000400300000000003A0300000000AD
:10577C0000340300000000002E030000000000288D
:10578C00030000000000220300000000001C0300C6
:10579C0000000000160300000000000C03000000D5
:1057AC00000002030000000000F0020000000000F6
:1057BC00DE020000000000CC020000000000C40269
:1057CC000000000000BC020000000000B402000059
:1057DC00000000AC020000000000A6020000000067
:1057EC0000A00200000000009A02000000000094DB
:1057FC00020000000000A30301280850011E0A1437
:10580C000103020147237D234A2376236F2301E200
:10581C0000E900EA00B500B600B700CD008301CC6A
:10582C00008A0192019401210223022402250226FE
:10583C000227022A02B300B4006F0070009F01CB54
:10584C00019F02A002818283E200E900EA00B50018
:10585C00B600B700CD008301CC008A0192019401FF
:10586C002102230224022502260227022A02B30067
:10587C00B4006F0070009F01CB019F02A0028182D7
:10588C0083F4F5F6F73133323644227B38069B0528
:08589C00BD0540055905790521
:00000001FF
