:100000000C941A030C9437030C9437030C943703A5
:100010000C9437030C9437030C9437030C94370378
:100020000C9437030C9437030C94AF240C94812563
:100030000C94581F0C9437030C9437030C9437031B
:100040000C9437030C9437030C9437030C94370348
:100050000C9437030C94E11F0C9437030C94370372
:100060000C9437030C9437030C9437030C94370328
:100070000C9437030C9437030C9437030C94370318
:100080000C9437030C9437030C9437030C94370308
:100090000C9437030C9437030C9437030C943703F8
:1000A0000C9437030C9437030C9437034203490331
:1000B000500357035E0365036C0373037A038103E4
:1000C00088038F0396039D03A403AB03B203B90314
:1000D000C003C703CE03D503DC03E303EA03F10344
:1000E000F803FF0306040D0414041B04220429046E
:1000F000300437043E043E043E04490449044904E4
:100100005404540454045F045F046D046D046D04CE
:10011000720476047A047604800486048C049204C3
:10012000A407A407D007D0073108280928092809FF
:100130004F08B708C808C808E019521AE819B219D8
:10014000B619EC19B919EF19FA19C419481AC819CE
:10015000FE19CC19021A2C1AD019061A361AD619F9
:100160000C1A161ABD19F319C019F619DB19111A50
:10017000221A421A441AAE19E4195B1A711C771C30
:10018000651C6B1C7D1C831C891C861D891DC01D64
:10019000D31DDB1DE61DE91DE91DE91D311E311EC4
:1001A000EE1DF11DF61D031E101E131E171E241E2C
:1001B000E92510260827102608275C267F26082711
:1001C000D626E526300039003800370001012B0023
:1001D0002F002C002E003F002100270001012900E4
:1001E00001012900010128000101280001014C0042
:1001F00001014C0001012A0001012A002000200019
:10020000670064007A006C00760070006D006A0080
:10021000780066006E00770062006B006300750076
:1002200071006800164117001500044612420C00C8
:100230001C000843010020001F001E0001002300D5
:10024000220021000100A900A800AE000100AA00C0
:10025000AC00AB0031003300350020022E002D0031
:100260001F020100D900D200CD00D100DA00CF007A
:10027000CE00D0004B004A0052004D004E0050000E
:1002800051004F002F022F002602010030023000E3
:1002900027020100230022000000220021000000AC
:1002A00020001F0000001F001E000000D100D2002F
:1002B000CE000000044617001C00000052004F0052
:1002C00050000000150008430C000000D100CD00D4
:1002D000D200D900D000CE00CF00DA0000004D00DF
:1002E00052004A004B004F00510050004E000000E9
:1002F000044615001700164108431C000C0012426A
:1003000000004D00510050004E00000004461C004B
:100310000C0012420000D900CF0000004B0050003A
:10032000000016410C000000D900CE0000004B0078
:100330005100000016411C000000D900D000000050
:100340004B004F0000001641084300000843150011
:100350001700164100000446150017001242000065
:1003600004461242000004461C00000004460C0033
:10037000000016411242000017000C00000015009A
:100380001C0000004D0052004E0000000446150005
:10039000124200004D004F000000044608430000D8
:1003A00052004F00000015000843000050005200AA
:1003B00000000C00150000004F00510050004E00DE
:1003C000000008431C000C0012420000150017003A
:1003D0000000044615001700000004461500170031
:1003E0001641000008431C000C00000015001641D7
:1003F000000008430C00124200001C000C001242D6
:1004000000001700164100001500170016410000FB
:100410000446150000000C0012420000044616417C
:1004200000000843124200001C0012420000084372
:100430001C0000001C000C000000044617001641C0
:10044000000008430C000000000000000000000055
:100450002A2B28000000000000000000000000001F
:1004600000000029000000002C1E3420212224342A
:100470002627252E362D3738271E1F2021222324FC
:1004800025263333362E37381F0405060708090A98
:100490000B0C0D0E0F101112131415161718191A34
:1004A0001B1C1D2F3130232D350405060708090AB2
:1004B0000B0C0D0E0F101112131415161718191A14
:1004C0001B1C1D2F3130354C0000000000000000C7
:1004D000000000000000000000000000000000001C
:1004E0000000000000000000000000007E0F00D4AB
:1004F000FFFFFFC70000007816035000610069008D
:100500006E007400620072007500730068000000E5
:1005100018034E006F00640064006C006500620008
:100520006F00790038003900000004030904090253
:100530005B00030100A0FA090400000103010100AF
:10054000092111010001224400070581030800016F
:100550000904010002030000000921110100012229
:100560002200070582032000010705030320000184
:100570000904020001030000000921110100012209
:100580003200070584032000011201000200000070
:100590000800CB9FF00100010200010660FF096125
:1005A000A1010962150026FF009520750881020946
:1005B00063150026FF00952075089102C00501090A
:1005C00080A101850319012AB700150126B70095FE
:1005D0000175108100C0050C0901A10185041901F4
:1005E0002AA002150126A002950175108100C00500
:1005F000010906A101050719E029E7150025019564
:100600000875018102950175088101050719002906
:10061000FF150026FF0095067508810005081901E1
:1006200029051500250195057501910295017503B0
:100630009101C00011241FBECFEFDAE0DEBFCDBFB5
:1006400013E0A0E0B1E0E8ECFFE402C005900D92F9
:10065000A033B107D9F724E0A0E3B3E001C01D92B5
:10066000AA35B207E1F70E942A140C94E2270C94F1
:1006700000008A33910508F05CC1FC01EA5AFF4F83
:100680000C943627662309F454C160E082E292E0BC
:100690004EC1662309F44DC160E080E292E047C19B
:1006A000662309F446C160E08EE192E040C1662312
:1006B00009F43FC160E08CE192E039C1662309F49E
:1006C00038C160E08AE192E032C1662309F431C1A9
:1006D00060E088E192E02BC1662309F42AC160E062
:1006E00086E192E024C1662309F423C160E084E13D
:1006F00092E01DC1662309F41CC160E082E192E032
:1007000016C1662309F415C160E080E192E00FC1D3
:10071000662309F40EC160E08EE092E008C1662312
:1007200009F407C160E08CE092E001C1662309F49E
:1007300000C160E08AE092E0FAC0662309F4F9C0E3
:1007400060E088E092E0F3C0662309F4F2C060E064
:1007500086E092E0ECC0662309F4EBC060E084E040
:1007600092E0E5C0662309F4E4C060E082E092E034
:10077000DEC0662309F4DDC060E080E092E0D7C00F
:10078000662309F4D6C060E08EEF91E0D0C0662306
:1007900009F4CFC060E08CEF91E0C9C0662309F492
:1007A000C8C060E088EF91E0C2C0662309F4C1C010
:1007B00060E084EF91E0BBC0662309F4BAC060E05A
:1007C00080EF91E0B4C0662309F4B3C060E08CEE22
:1007D00091E0ADC0662309F4ACC060E088EE91E022
:1007E000A6C0662309F4A5C060E084EE91E09FC036
:1007F000662309F49EC060E080EE91E098C0662315
:1008000009F497C060E08CED91E091C0662309F493
:1008100090C060E08AED91E08AC0662309F489C047
:1008200060E088ED91E083C0662309F482C060E057
:1008300086ED91E07CC0662309F47BC060E084ED26
:1008400091E075C0662309F474C060E082ED91E028
:100850006EC0662309F46DC060E080ED91E067C072
:10086000662309F466C060E08CEC91E060C066230A
:1008700009F45FC082E00E94A70E0895662309F480
:1008800058C00E947D0E817111F081E11FC081E18D
:1008900021C0662309F44DC00E947D0E887811F0B6
:1008A00088E814C088E816C0662309F442C00E9494
:1008B0007D0E847411F084E409C084E40BC06623C7
:1008C000C1F10E947D0E827221F082E20E94860EAA
:1008D000089582E20E94800E0895662351F10E94DD
:1008E0008D0E0895662329F185E007C0662309F17E
:1008F00080E003C06623E9F084E00E94120A0895B4
:100900006623B9F060E08AEC91E011C0662389F0BB
:1009100060E088EC91E00BC0662359F060E086EC63
:1009200091E005C0662329F060E084EC91E00E942C
:100930008F1B089581E008958730B8F46230A8F4E1
:10094000443098F470E0680F711D680F711DFB0151
:10095000EE0FFF1FEE0FFF1FE40FF11DEE0FFF1F45
:10096000EC5DFD4F85919491089581E090E00895AC
:100970008AE390E0089527E0AC01249FC001259F01
:10098000900D112480509F4F089581E0089581E0DB
:1009900008950E94C70408950E94C90408950E9402
:1009A0009A04089508950E94D2040895A6E0B0E044
:1009B000ECEDF4E00C94522749835A839E833091E6
:1009C000370389819A81311115C03E81332359F053
:1009D000222349F00E94CC0A182F682F89819A811E
:1009E0000E94A80A03C00E94BA0A182F69817A815E
:1009F000812F04C00E94CC0A69817A810E942A1248
:100A00002696E3E00C946E27FC0187819085009781
:100A100049F4262F408151816281738184819581BF
:100A20000E94D60408950F931F93CF93DF93EC0198
:100A300061E00E9404058C01BE010E94CC04882361
:100A400029F0BE01C8010E94181602C080E090E0A3
:100A50008170DF91CF911F910F910895CF93DF9314
:100A6000EC0160E00E940405BE010E94D304DF9106
:100A7000CF91089581E008950E943A050895CF939B
:100A8000C82F0E949C098C2F0E943C052FEF84E305
:100A90009CE0215080409040E1F700C00000CF91E1
:100AA000089581E00E943F050E940720089580E09C
:100AB0000E943F050E94182008950F931F93CF9323
:100AC000DF938C0161E00E940405EC01B8010E94F3
:100AD000531D882309F450C0B801CE010E94CF04F1
:100AE000882309F449C0B801CE010E94591C88230B
:100AF00009F442C0B801CE010E948A198823E1F1AD
:100B0000B801CE010E9460198823B1F1B801CE016D
:100B10000E949C1C882381F1F8018581882341F182
:100B2000C3308CE7D807D1F040F4C115FCE7DF07EC
:100B300091F0C130DC47A1F01BC0CB35ECE7DE07FC
:100B4000A9F0CC35FCE7DF0771F0CA35DC4781F44A
:100B50000E946B0F0DC00E9451050EC00E94730FC2
:100B60000E94570509C00E94610F02C00E946F0FCA
:100B7000C8010E94C50401C080E0DF91CF911F91A0
:100B80000F9108950E942F1F0E94FD0508950E9455
:100B900001060E94381F0895982F92959F7019F0B2
:100BA000892F24E001C020E0982F9695969511F0AA
:100BB0002E5F892F982F969509F02F5F822F089529
:100BC000089581E008950895CF93DF93D82F0E9470
:100BD000E105C82F882319F08D2F0E94E3058C2F83
:100BE000DF91CF9108950895CF93C82F0E94E0051B
:100BF0008C2F0E94E405CF91089580E00E94F405B7
:100C000008950E94411E0E94F4050895CF930E940A
:100C1000411EC82F80913203C81779F0C093320368
:100C20000E94C61F6093330370933403809335038F
:100C3000909336038C2F0E94F405CF910895AFE076
:100C4000B0E0E5E2F6E00C9451274A875B876C87B9
:100C50007D878E879F8791110E949D0ECE01019600
:100C600029E0FC0111922A95E9F726E0FE013A9667
:100C7000DC0101900D922A95E1F72D8121110CC024
:100C800009811A812B813C814D815E816F8178853C
:100C900089850E94DF0D04C00E9413058111F0CFE9
:100CA0002F96E4E00C946D27FC012481213021F47F
:100CB000808191810E94F90A0895CF93882309F4D5
:100CC0007FC0C82F8238A1F40E944E1E81FD78C0DB
:100CD00089E30E94F01E0E94FF0E2FEF87EE93E043
:100CE000215080409040E1F700C0000089E315C02A
:100CF0008338C1F40E944E1E80FD62C083E50E94CD
:100D0000F01E0E94FF0E2FEF81EE94E021508040F4
:100D10009040E1F700C0000083E50E94F81E0E94A9
:100D2000FF0E4EC08438A1F40E944E1E82FD48C0C2
:100D300087E40E94F01E0E94FF0E2FEF81EE94E0E8
:100D4000215080409040E1F700C0000087E4E5CFEB
:100D50008CEF8C0F813A70F48C2F0E94B51E882383
:100D600029F08C2F0E94F81E0E94FF0E8C2F0E94EB
:100D7000F01ED5CF80E28C0F883048F4C77081E038
:100D800001C0880FCA95EAF70E94800EC8CFEBE534
:100D9000EC0FE33040F4F0E0E352FD4F808190E04F
:100DA0000E945C1E0DC0C85ACB3150F4EC2FF0E00D
:100DB000EE0FFF1FE955FD4F808191810E94811E3A
:100DC000CF910895882309F44DC0823859F40E94C8
:100DD0004E1E81FF47C089E30E94F01E0E94FF0E55
:100DE00089E30CC0833879F40E944E1E80FF3AC01C
:100DF00083E50E94F01E0E94FF0E83E50E94F81E0C
:100E00000E94FF0E0895843859F40E944E1E82FFFE
:100E100029C087E40E94F01E0E94FF0E87E4EECFF7
:100E20009CEF980F913A50F390E2980F983050F45D
:100E3000877091E001C0990F8A95EAF7892F0E9487
:100E4000860EDECF9BE5980F933028F480E090E08B
:100E50000E945C1E0895885A8B3120F480E090E057
:100E60000E94811E08951F93CF93DF93182FEB01EB
:100E70000E945D06209741F08FE99FE00197F1F70E
:100E800000C000002197F6CF812F0E94E206DF917B
:100E9000CF911F910895893319F060E070E002C08E
:100EA00060E570E00E9433070895882321F00E94D6
:100EB000800E0E94FF0E0895882321F00E94860E66
:100EC0000E94FF0E0895A0E0B0E0E9E6F7E00C9480
:100ED0004D277C01162FC72FFC01D5810681029575
:100EE0000F700E94760E8823F9F0DD23E9F08C2F35
:100EF000807F803461F080E2810F8830A8F08C2FF1
:100F0000807E803221F4123078F0002369F08091E5
:100F1000440482FF09C082E00E94350F0E94760ED1
:100F200091E0D82ED92601C0D12CCC2EC2948FE0CE
:100F3000C8228C2D90E08C30910508F089C1FC010D
:100F4000E057FF4F0C9436278C2F807FCF7088237B
:100F500011F0C295C07FDD2399F0CC2309F464C160
:100F600080E2810F883010F0111104C08C2F0E9494
:100F7000800E03C08C2F0E94900E0E94FF0E54C161
:100F8000812F0E94E206CC2309F462C180E2810F26
:100F9000883038F1112329F18C2F0E94960E24C03D
:100FA0008C2F807FCF70803211F0C295C07F1123CB
:100FB00019F0113099F13CC08091440482FD17C0B2
:100FC000DD2349F0CC2329F08C2F0E94800E0E9453
:100FD000FF0E80E02AC180E00E94E206CC2309F4E3
:100FE00037C18C2F0E94860E0E94FF0E31C1DD2377
:100FF00049F0002309F1013009F02AC18C2F0E9429
:10100000A70E26C1011124C18C2F0E945C078C2FD2
:101010000E94B30E8C2F0E94080F1AC1DD2321F00D
:10102000063008F015C108C0053008F011C115C020
:10103000DD2331F00111F8C08C2F0E94550708C143
:10104000002359F0193309F000C1FFEF27EE83E0C8
:10105000F15020408040E1F7F6C08C2F0E945C07E1
:10106000F7C08C2F86958695837019F0813061F0DA
:10107000EFC0DD2321F0812F9C2F937002C080E010
:1010800090E00E945C1EECC0DD2321F0812F9C2F9C
:10109000937002C080E090E00E94811EE1C08C2F1E
:1010A000837079F5D111D8C0412F4295469547708C
:1010B000440F440F212F2F70042E01C0220F0A94D9
:1010C000EAF714FF08C08FE090E001C0880F4A954E
:1010D000EAF7809501C080E0C695C695C370822B63
:1010E000C23049F058F4C13019F00E94FA09B4C076
:1010F0000E94F409B1C00E94000AAEC00E94F1092A
:10110000ABC0DD2319F08C2F817001C08695882338
:1011100009F4A2C0412F429546954770440F440FF1
:10112000212F2F70042E01C0220F0A94EAF714FF1A
:1011300008C08FE090E001C0880F4A95EAF78095DB
:1011400001C080E0C695C695C370822BC23049F0BD
:1011500058F4C13019F00E94460A7EC00E94400A2D
:101160007BC00E944C0A78C00E94090A75C0CF70EB
:10117000DD2339F08C2F0E941B0A812F0E94550716
:101180006BC0812F0E945C078C2F0E94270A64C0CD
:10119000123F21F128F4103F41F0113FC1F040C04F
:1011A000133F19F1143F79F03BC0DD2341F00530C6
:1011B00008F04EC08C2F8F710E94340A49C006304F
:1011C00008F046C0F7CF8091440482FD18C0DD23AB
:1011D00039F08C2F8F710E941B0A3AC0DD23C9F3AE
:1011E0008C2F8F710E94270A33C0DD2329F08C2FAA
:1011F0008F710E94120A2CC00E940E0A29C0DD23A2
:1012000031F063E08C2F8F710E94170F21C081E0B5
:101210000E94350F0230E0F082E00E94350F18C0C6
:10122000DD2331F00023A9F2812F0E945D0610C05A
:101230000023B1F2193349F49FEFE7EEF3E0915048
:10124000E040F040E1F700C00000812F0E94E2067C
:1012500088EF8C0D843020F40E94411E0E94F4051A
:10126000DD2089F00E94720E80FD0DC0F70115820D
:101270000E946C0E0E941B0AC7010E9467090E940F
:101280006C0E0E94270ACDB7DEB7E8E00C94692700
:101290000F931F93CF93DF93EC018F819885009775
:1012A00019F00E940D1105C0688179818D810E941D
:1012B000040B8C010E94520A0E94E409B801CE017D
:1012C0000E946307DF91CF911F910F910895CF93F3
:1012D000DF93FC0124812223D1F0EC010E945D0503
:1012E00081110FC00E94760E882389F08D8188239A
:1012F00071F08091440482FF0AC082E00E94350FA1
:1013000006C0CE010E944809CE010E942E05DF9141
:10131000CF91089580E090E00E945C1E80E090E014
:101320000E94811E0E949D0E0E94FF0E08950E9441
:10133000001F0E948A0908950E948D0E0E9497093D
:10134000089592959F70963079F010F4925001C0F4
:101350009A50923068F4803F69F018F4883E40F467
:1013600009C0843F29F406C0883E20F0813F11F077
:1013700080E0089581E00895FC012481222371F02A
:1013800087819085009719F00E940D1104C080811B
:1013900091810E94F90A0E94A109089580E00895B0
:1013A000A6E0B0E0E6EDF9E00C9453272696E2E0E3
:1013B0000C946F27A9E0B0E0E0EEF9E00C9451271F
:1013C0002996E4E00C946D27089508950E94E5099C
:1013D00008950E94E60908950E94E90980933C035C
:1013E00008950E94EC09089590913C03892B0E9476
:1013F000EC09089590913C0389230E94EC0908951B
:1014000090913C0389270E94EC0908950E94E50908
:1014100008950E94060A80933B03089580E00E948D
:10142000090A089591E001C0990F8A95EAF7892F7A
:101430000E94090A089521E030E001C0220F8A9538
:10144000EAF780913B03822B0E94090A089521E06C
:1014500030E001C0220F8A95EAF7209580913B0386
:1014600082230E94090A089521E030E001C0220F82
:101470008A95EAF780913B0382270E94090A089522
:1014800090913B03892B0E94090A089590913B0398
:1014900089230E94090A089590913B0389270E949D
:1014A000090A08950895962F9770A1E001C0AA0F28
:1014B0009A95EAF793E0769567959A95E1F7FB019F
:1014C000EE0FFF1F6E0F7F1FFA01E60FF71F40E0C0
:1014D00050E0682F70E090819B01042E02C0369589
:1014E00027950A94E2F72170219529272A23292795
:1014F00021934F5F5F4F4330510569F708959B017A
:10150000782F777043E0969587954A95E1F7FC012F
:10151000EE0FFF1F8E0F9F1FF901E80FF91F40E02C
:1015200050E080E0219130E0072E02C036952795EB
:101530000A94E2F721703327042E01C0220F0A9487
:10154000EAF7822B4F5F5F4F4330510559F70895FB
:10155000282F923070F4843060F4862F622F70E070
:1015600024E0929F600D711D112448E353E00E9416
:10157000530A0895923070F4843060F4292F90E07B
:1015800068E373E034E0239F800D911D11240E94D5
:101590007F0A089580E00895CF92DF92FF920F9323
:1015A0001F93CF93DF936C0100913B0380913C0329
:1015B000082BC6E0D0E010E0C8010C2E02C09595C3
:1015C00087950A94E2F780FD04C02197A8F7F12CD3
:1015D00007C0FC2EB6018C2F0E9436120197A9F38A
:1015E0008F2DDF91CF911F910F91FF90DF90CF90C2
:1015F0000895CF93DF93EC010E94CC0ABE010E94B4
:101600003612DF91CF9108951F93CF93DF93EB01B3
:1016100090913703992321F0CB010E94F90A13C05E
:10162000882349F0CB010E94CC0A182F682FCE01E5
:101630000E94A80A04C0CB010E94BA0A182FBE015A
:10164000812F0E943612DF91CF911F910895E1E022
:10165000F0E0DF0102C0AA0FBB1F6A95E2F7BD01EF
:10166000DF0102C0AA0FBB1F4A95E2F7AD01462B6E
:1016700001C0EE0F2A95EAF7942F9823491302C070
:101680008E2B0895E0958E230895242F462F682FE2
:1016900080913B030E94270B0E94090A0895FF9244
:1016A0000F931F93CF93DF93C0913D0389E0F82EF2
:1016B00080913E03C817B1F0D0E0FC9EF001FD9E82
:1016C000F00D1124E15CFC4F0081118122813381F6
:1016D000448155816681778180850E94DA0921964F
:1016E000C770E6CFCDB7DEB7E5E00C946C270F935B
:1016F0001F930091870310918803209189033091F3
:101700008A0340918B0350918C0360918D037091FB
:101710008E0380918F030E94DA091F910F91089523
:10172000CF93DF9380918D0382958F7009F04EC027
:1017300080918C03882309F449C080913D03409136
:101740003E035091880360918703C0918903D09133
:101750008A0379E08417D1F190E0789FF001799FB6
:10176000F00D1124DF01A15CBC4F14962C9114974D
:10177000222349F111962C911197251324C02C9105
:10178000261321C015962C91159721111CC0129675
:101790002D913C9113972C1B3D0B283C310598F45F
:1017A00080918D038F70806180938D03EB5BFC4F84
:1017B00080818F708061808387E893E00E94670951
:1017C0000E944F0B03C001968770C4CFDF91CF9169
:1017D000089520913D0390913E0359E02917A9F007
:1017E00030E0529FF001539FF00D1124E15CFC4F5B
:1017F0007181761306C07081781303C075817413EC
:1018000006C02F5F3F4F2770E9CF80E0089581E049
:101810000895A8E1B0E0EFE0FCE00C9449278C01CA
:1018200086E0F801DE01539601900D928A95E1F76A
:10183000F8018481E58097E8A92E93E0B92E909174
:101840008B03911118C0882309F4B2C1EE20D9F19D
:10185000C8010E94BC09F82E8823A9F189E0F8018B
:10186000D50101900D928A95E1F7C5010E945406B9
:101870000E94900BABC0F801C080D1808280938021
:10188000F0908C032091890330918A03A401421BBC
:10189000530BFF2009F42EC1483C510508F0C8C085
:1018A000882309F487C180918D03282F207F909190
:1018B0008803222361F09D1509F46BC0C8010E94C2
:1018C000BC09811186C0C8010E94670971C19D11C0
:1018D0001EC0909187039C111AC040918E035091B5
:1018E0008F03278130854217530789F4E1100FC019
:1018F0008F70806180938D030E94770B87E893E05F
:101900000E94670980918D03F80186834FC1E11021
:101910003AC040E06D2D8C2D0E94E90B40E06D2D0A
:101920008C2D0E94E90BE82E811140C1CB8ADC8A04
:101930008B899C890E94F90A292F22952F702430C7
:1019400020F49F70223028F009C02A50223080F005
:1019500014C0992349F0811107C013C0992321F0C5
:10196000F8019681907F69F0805E883030F409C07C
:10197000803F38F0815F833020F0C8010E94670902
:10198000EF2CFE2C17C180918D03816080938D0315
:101990000DC1909187039C1191CF40918E0350917E
:1019A0008F03F801278130854217530709F086CF4E
:1019B000E11084CF8683C8010E94670989E0F8019D
:1019C000A7E8B3E001900D928A95E1F70E94770BAA
:1019D000F1C0EE2009F477CF20918D03822F8295FC
:1019E0008F7090E00297BCF08091870390918803FC
:1019F0009B878A879D868C8680918B038E871F8626
:101A0000288B80918E0390918F039A8B898BCE01C6
:101A10000A960E94670989E0F801A7E8B3E00190FF
:101A20000D928A95E1F70E94900B0E94770BC0C03F
:101A300090918D03292F207FA1F4682D9E8A8D8A95
:101A4000A6017E899E2D0E94D00987E893E00E941E
:101A5000670989E0F50111928A95E9F70E94770BF1
:101A6000A5C0882309F4A6C0809188038D111AC0EF
:101A7000809187038C1116C040918E0350918F0383
:101A8000F801278130854217530761F4E1100AC03D
:101A90009683C8010E94670989E0F50111928A9531
:101AA000E9F788C0C8010E94BC09882309F40BCF5C
:101AB000EE2009F408CF20918D03822F82958F703C
:101AC00090E002970CF4A7CF809187039091880350
:101AD0009A8389839C828B8280918B038D831E8263
:101AE0002F8380918E0390918F0399878887CE01F1
:101AF00001968FCF483C510508F04AC0882309F46D
:101B000057C0FE2CEE2009F4DECE809188038D11A3
:101B100031C0809187038C112DC020918E033091AC
:101B20008F03F801878190852817390719F580916F
:101B30008D0380FD16C082958F70482F50E04115AF
:101B4000510579F020918D0326834F30510509F41A
:101B500032CF8F5F982F9295907F822F8F70892B35
:101B600029CF89E0F801A7E8B3E001900D928A95AA
:101B7000E1F720C0C8010E94BC0981114CCF8091BF
:101B80008D03816080938D03C8010E94670912C094
:101B9000682D9E8A8D8AA6017E899E2D0E94D0097D
:101BA00089E0F50111928A95E9F710CFF12C02C076
:101BB000FF24F3948F2D6896ECE00C946527A2E146
:101BC000B0E0E5EEFDE00C9450270A871B872C87D8
:101BD0003D874E875F87688B798B8A8BCE010A960B
:101BE0000E94090C882371F04E854423C1F10A85B7
:101BF0001B852C853D855F85688979898A890E9446
:101C0000DA092DC089E0FE013A96DE0111960190B5
:101C10000D928A95E1F76E85662309F120913E03C6
:101C200030E0C90101968770992740913D0350E04B
:101C30008417950709F43FC06D8399E0929FD00106
:101C4000939FB00D1124A15CBC4FFE013196019011
:101C50000D929A95E1F780933E030E944F0B89E025
:101C6000F82E80913D0390913E03891789F1F89EEB
:101C7000C0011124815C9C4F0E94090C882341F112
:101C8000E0913D03FE9EF0011124E15CFC4F0081D8
:101C900011812281338144815581668177818085DC
:101CA0000E94DA0980913D0390E0019687709927A0
:101CB00080933D03D6CF0E949C0910923E03109260
:101CC0003D03E7E8F3E089E0DF011D928A95E9F73B
:101CD0006296E5E00C946C27809198038695869532
:101CE0008695089580919803877008959091980340
:101CF000977081E009F480E008958091A40308952D
:101D00009091A403892B8093A403089580959091CA
:101D1000A40389238093A40308951092A403089533
:101D20009091A303892B8093A303089580959091AC
:101D3000A30389238093A30308951092A303089516
:101D400008950E94A00E08950E94A10E08959091FA
:101D50009A03292F2823821729F0982B90939A030E
:101D60000E94A40E089590919A03292F282331F000
:101D70008095892380939A030E94A40E08958091F0
:101D80009A03882329F010929A0380E00E94A40EFF
:101D900008950F931F93CF93DF93009196021091B4
:101DA0009702C091A4038091A303C82B80919A034A
:101DB000882331F0C82B0E94A61E81110E94BF0EFD
:101DC000F801C083C0919602D091970248E050E09C
:101DD00060E973E0CE010E947A27892B59F088E0F0
:101DE000FE01A0E9B3E001900D928A95E1F7CE01E2
:101DF0000E94511EDF91CF911F910F9108950E9473
:101E0000C90E08950E94A00E08950E94020F089521
:101E100090919903292F282331F08095892380936D
:101E200099030E94050F08950E94A00E08959091B5
:101E3000440492FF11C098E0899F90011124262B41
:101E4000209398030E941B0A80919803869586959B
:101E500086950E94140F08950E941B0A08951092FF
:101E6000980380E00E94140F089590919803809544
:101E7000892380939803282F277069F4981759F0C5
:101E80009091440492FF07C08695869586950E949E
:101E9000270A0E942F0F08959091440492FB222755
:101EA00020F9281769F080FB92F9909344048091FF
:101EB0004304909144040E94950F82E00E94350FE4
:101EC00008958091440482FB882780F991E0892756
:101ED0000E944C0F089581E00E944C0F089580E00D
:101EE0000E944C0F08956FEF7FEF80E090E00E941A
:101EF000CC27089580E090E00E949827853E9E4F71
:101F000019F40E94E71C089580E0089582E090E0B3
:101F10000E949027089583E090E00E949027089502
:101F200084E090E00E9498270895BC0184E090E04E
:101F30000E94CC270895AB01BC018FE090E00E9485
:101F4000C0270895AB01BC0183E190E00E94C02747
:101F5000089560E070E0CB010E94A20F089560E058
:101F600070E0CB010E949B0F0E94A90F0895A8E08A
:101F7000B0E0EDEBFFE00C94532765EE7EEF80E0E0
:101F800090E00E94CC2760E082E090E00E94AE27C3
:101F900081E080933C0361E083E090E00E94AE2703
:101FA00060E074E184E090E00E94CC2760E086E08D
:101FB00090E00E94AE2760E087E090E00E94AE27AC
:101FC00040E050E0BA0188E090E00E94C02760E065
:101FD00083E290E00E94AE2760E08CE090E00E94F7
:101FE000AE2760E08DE090E00E94AE2719821A8251
:101FF0001B821C821D821E821F82188648E050E0D0
:1020000067E170E0CE0101960E949E2740E050E01B
:10201000BA018FE190E00E94C02780E00E94001D7D
:102020000E94351D0E94AF0F2896E2E00C946F27A6
:102030000E94B70F0895682F8EE090E00E94AE27AF
:102040000895A6E0B0E0E7E2F0E10C9451270E9489
:10205000BA1F8C018091A5039091A6030817190758
:1020600081F019821A820E94BA1F682F49815A8111
:10207000792F80E090E00E941F061093A603009342
:10208000A5032696E4E00C946D270E94C61F60937A
:10209000AD037093AE038093AF039093B00360934E
:1020A000A9037093AA038093AB039093AC030895A4
:1020B00081E0089581E008950E945A1008950895DE
:1020C0000E945F1008950E945F1008950E9463109F
:1020D00008950E945F1008950E94691008950E945B
:1020E0005F10089586E293E10E9441140E946F10F0
:1020F0000E946C1008950E9460100E945F10089565
:102100000E947A0F811102C00E9418100E94860F4F
:102110008093B1030E94900F9093440480934304F2
:102120000E9464140E948B0F0E94F10980913B036E
:102130000E94060A08950E94B11F0E94451D0E9438
:10214000A6130E9480100E94F3050E946610089555
:10215000A6E0B0E0EEEAF0E10C944A270E945810A5
:10216000811103C00E94211050C00E94B61310912B
:10217000A70380E00E942813811307C01091A803D1
:1021800081E00E942813181769F38091B10381FD43
:102190000E942E130E945C10A82E87EAE82E83E08E
:1021A000F82E10E099249394812F0E942813B82EC2
:1021B000F701C080C82609F100E0DD24D3948C2DFE
:1021C0008D21A9F0AA2099F009831A830E94BA1FD1
:1021D0009C838B839D8291E08B2D8D2109F490E06F
:1021E00049815A816B817C818D810E941F060F5F1E
:1021F000DD0C043021F7F701B0821F5FFFEFEF1A0B
:10220000FF0A123089F60E9445100E94D1150E94E3
:1022100006062696EBE00C9466271F93CF93DF9378
:102220000E943B12EC01C11580E5D807E8F5C11505
:1022300090E4D90708F0A8C0C03ED10530F5CD3CE8
:10224000D10508F094C0C83AD10578F4C53AD10553
:1022500008F083C0C130D10509F47CC008F4F2C095
:10226000C430D10508F0F1C0EDC0C33CD10508F081
:10227000E9C0C85AD0E0CC0FDD1FC052DD4F099035
:10228000D881C02DCE019464E1C0C11580E2D80789
:1022900008F0CBC0C11591E0D90708F06BC0C83E6B
:1022A000D10508F4D2C0CEC0C03682E5D80728F5E3
:1022B000C03492E5D90708F079C0C03282E5D8076A
:1022C00008F06CC0C11592E5D90708F481C04C2F05
:1022D0004695469580E2489FA0011124C37021E0F5
:1022E00030E0C90102C0880F991FCA95E2F7EA01E0
:1022F000C82BD92BCE019D68A9C0C03A82E5D8076A
:10230000B8F48C2F8F71C03892E5D90708F07BC0E4
:102310008695869590E2899F90011124C37081E093
:1023200090E002C0880F991FCA95E2F79A6868C0CA
:10233000C03C82E5D80708F46DC0C03E92E5D907DD
:1023400008F080C0CF71DD27DC2FCC27CE01806F55
:10235000906A7CC081E090E079C0C55AD0E0CA5E46
:10236000DC4F8881C82FD0E0CE0190646FC0CE01D1
:1023700090656CC08D2F0E94D712182FCE0199271F
:102380000E943B121F715CC0CE0199270E943B1234
:10239000CC27DF70D06A8C2B9D2B58C0CF71D0E03A
:1023A000DC2FCC27CE01816F906A50C08C2F8F71AB
:1023B0008695869590E2899F90011124C37081E0F3
:1023C00090E002C0880F991FCA95E2F79C6818C078
:1023D0008C2F8F710E94D71295E0D695C7959A954C
:1023E000E1F7CF70D0E0DC2FCC27282F30E084FF3E
:1023F00005C084E0220F331F8A95E1F7D069CE0132
:10240000822B932B23C090E0D82FCC27CE01846F52
:10241000906A1CC08C2F8F710E94D7128F7190E030
:10242000D82FCC27CE01906211C08D2F8F710E94C2
:10243000D712182FCE0199270E943B121F7190626C
:10244000912B04C080E090E001C0CE01DF91CF91DC
:102450001F910895723038F4643028F4462F672FA6
:102460000E947818089580E090E008950E942A1252
:102470000E940D1108958238910569F1B0F48133FD
:10248000910509F475C048F48932910509F467C0D3
:102490008A32910509F471C008958533910509F4D4
:1024A00059C089339105B9F00895833E910589F1AA
:1024B00038F4803E9105D1F0823E910529F10895CE
:1024C000863E9105C9F1873E9105D9F1843E91057B
:1024D00009F06CC027C02091430420FD57C021FDA6
:1024E00055C02091440423FD5BC0089580914304AE
:1024F00080FD48C08091440480FF48C0809143041F
:1025000084FD46C083EE51C08091430482FF3CC0ED
:10251000F5CF8091430482FD37C08091440480FD53
:1025200035C0ECCF8091440481FF36C080914304D4
:1025300084FD2EC087EE39C08091430483FF2AC0FA
:10254000F5CF8091430483FD25C08091440481FD33
:1025500023C0ECCF8091430485FD22C01FC0809131
:10256000430485FD1BC08091440483FF19C00AC049
:102570008091430486FD16C017C08091430486FDF8
:1025800013C010C089E311C082EE0FC080EE0DC0F1
:1025900080E00BC086EE09C084EE07C085E305C06D
:1025A00089E203C08AE201C081E390E0089590913E
:1025B000430492FF10C041E0282F2471243009F019
:1025C00040E031E0282F2871283009F030E043172F
:1025D00011F02CE0822793FF10C041E0282F2471D6
:1025E000243109F040E031E0282F2871283109F02A
:1025F00030E0431711F02CE082273091440430FF83
:1026000010C051E0282F2171213009F050E041E045
:10261000282F2871283009F040E0541711F029E0E4
:10262000822731FF10C041E0282F2171213109F0AC
:1026300040E031E0282F2871283109F030E04317BD
:1026400011F029E0822794FD877E089580E00895A7
:10265000E82FF0E0E95BFB4F80810895089508952D
:102660000E942F1308950E94301308950E942F1383
:1026700008950E9436130895CF93DF9349E153E004
:10268000A1E0B0E020E030E0FA01E20FF31F80812A
:102690008F3FA1F0E82FE295EF70F0E061A18F701D
:1026A000ED0102C0CC0FDD1F8A95E2F7CE019C2F11
:1026B0009095962391A392A1892B82A32F5F3F4FE0
:1026C0002430310509F74C5F5F4FD3E041325D079D
:1026D000C9F6DF91CF9108950F931F93CF93DF93A6
:1026E000DC0170E08B01000F111F000F111F40E093
:1026F00050E0F1E0E0E0CA01800F911F875E9C4F3F
:10270000EC0198819F3F89F0292F22952F7030E0AE
:10271000E90128A130E09F7002C0359527959A9570
:10272000E2F720FD02C02F2F02C020E030E0E22BB4
:10273000FF0F4F5F5F4F44305105E9F6A60FB71FFB
:10274000EC93DF91CF911F910F9108950E943C135C
:1027500010924804109247041092460410924504C7
:1027600082E00E94EC130E9439130895A2E0B0E0C9
:10277000ECEBF3E10C9452271A82198260E0CE014F
:1027800001960E946C1361E0CE0101960E946C13C9
:1027900042E050E0BE016F5F7F4F85E494E00E940D
:1027A0007A2721E0009709F420E0892B31F0898114
:1027B0009A81909346048093450442E067E474E074
:1027C00085E494E00E94ED13182F0E943313812FAB
:1027D0002296E3E00C946E270895EF92FF920F93F8
:1027E0001F93CF93DF937C018B01C42F222351F0E1
:1027F00081E08093B4030E94BA1F9093B303809347
:10280000B20304C08091B403811102C080E01AC0F9
:102810008091B2039091B3030E94D21F0597B0F349
:10282000D0E0AE01B701C8010E947A27892B39F0A8
:10283000AE01B701C8010E94872781E001C080E096
:102840001092B403CDB7DEB7E6E00C946B270E947C
:10285000A81008950E94511F0E94A8210E94721082
:102860000E94C2210E949B100E94CF210E94D4216D
:102870000E9427140E94EE210E9470200E947B106B
:10288000F5CF909331038093300308950E94730F26
:10289000089581E00E942813817008950E94B61364
:1028A0002FEF86E791E0215080409040E1F700C093
:1028B00000000E94B6130E944914882321F00E9450
:1028C00046140E94072008950E944E140895EF9226
:1028D000FF920F931F93CF93DF9380912804882357
:1028E00009F441C0C091B5038DE0F82E8091280411
:1028F000C817A8F5EE24E394EC0EE092B503D0E0FF
:10290000FC9EF001FD9EF00D1124E054FC4F8481EB
:10291000882319F187819085892B51F481859285CF
:102920008F3F2FEF920721F061E00E9439030BC027
:1029300000811181228133814481558166817781B3
:1029400080850E94DF0DFC9EF001FD9EF00D11249C
:10295000E054FC4F14820E949D0ECE2DC7CF1092E2
:1029600028041092B503CDB7DEB7E6E00C946B27D0
:102970000895CF93DF9310922A0410922904C0E0A7
:10298000D0E00E94B804C817D90758F4CE010E94BD
:10299000BB04FC018581811102C01482168221963C
:1029A000F0CFDF91CF9108951F93CF93DF931091D4
:1029B000BE032091BF031217F9F0C12FD0E0FE0132
:1029C000EE0FFF1FEA54FC4F408151814817590711
:1029D00079F40E94BB0421E0FC0124838091BE03B2
:1029E00018130AC02196C370DD27C093BE0304C02C
:1029F00021961C2F1370DFCFDF91CF911F91089587
:102A0000A0E0B0E0E6E0F5E10C944827EB012C8172
:102A100021115EC070902804A0ECB3E020E030E00B
:102A2000812C61E070E0271508F050C01B96AD9036
:102A3000BC901C97C880D9804FEF5FEF912CE92C98
:102A4000F12CF701EE0FFF1FEC0DFD1D0591149108
:102A5000A016B10609F4A7010115110511F0939410
:102A6000EECF4F3FEFEF5E0769F1FB0102C0EE0FC3
:102A7000FF1F4A95E2F78E2AAB01092C02C0440FD2
:102A8000551F0A94E2F741505109E82DF0E04E1726
:102A90005F07A9F44A815B816DE0629FF001639F4B
:102AA000F00D1124E054FC4F5087478324E0248329
:102AB000108211829287818721E02D8307C01496AE
:102AC0001C9214972F5F3F4F1D96ADCF0E94D414D8
:102AD000CDB7DEB7EDE00C9464270F931F93CF932F
:102AE000DF93C091BE038091BF03C817A1F0D0E06F
:102AF0008E01000F111F0A541C4FF8018081918133
:102B00000E94BB04BC01F801808191810E940015E4
:102B10002196C370E8CF0E9467140E94B914DF9118
:102B2000CF911F910F910895FF920F931F93CF9311
:102B3000DF93DC010C911196FC90119780E090E0FE
:102B400020E0E02FFF2DE20FF11DE20FF11D459176
:102B5000549141155105B1F0FB011081318190E094
:102B6000E12FF32FE90FF11DE90FF11DC591D4916C
:102B7000209731F04C175D0709F481E09F5FF0CF9B
:102B80002F5FDFCF882321F0921728F0CD0104C0FA
:102B900080E090E001C0CB01CDB7DEB7E5E00C945A
:102BA0006C2780919802882341F180912B049091A9
:102BB0002C04009711F10E94D21F2091290430911A
:102BC0002A0428173907C8F49091BE038091BF03E7
:102BD000981759F00E946D1510922A04109229043A
:102BE00010922C0410922B0408950E9467141092E6
:102BF0002C0410922B040E94B914089510922C04F6
:102C000010922B04109298028091BF038093BE0310
:102C10000E94B9140E946714089580919802882335
:102C200019F00E94FE15089581E08093980208959E
:102C3000ACE0B0E0EEE1F6E10C9443274C016B010F
:102C400080352CE7920741F4FB0115811123C9F06F
:102C500081E0809398029AC18135FCE79F0739F49F
:102C6000FB011581112369F00E94FE158FC1823589
:102C70009C4739F4FB011581112319F00E940D16B0
:102C800085C190913B0380913C03892B0E94CC0528
:102C9000182F0E94B814181731F0F6016081718165
:102CA0000E942A124C01A12CB12C1C86662463942C
:102CB000712CCE0101969B878A870E94B804A816C2
:102CC000B90608F01CC1C5010E94BB047C01FC01CF
:102CD0004081518144244A94542C60E0262F30E0F6
:102CE000F901EE0FFF1FE40FF51F859194918816EF
:102CF000990609F42901892B11F06F5FEFCFFFEFDF
:102D00004F165F0609F4F3C0F7017481711103C017
:102D10008091980202C080E090E08170F6013580D9
:102D2000F70195812681332009F481C0882309F4B5
:102D30007EC0911114C0C301042C01C0880F0A94F5
:102D4000EAF7282B26838091290490912A04C297C0
:102D500030F482E390E090932A0480932904930155
:102D600002C0220F331F6A95E2F721503109F701A3
:102D7000868190E02817390709F0BAC080912B04AA
:102D800090912C04009741F00E94D21FC39720F02D
:102D900021E0F7012483ACC02090BE0380E090E0E6
:102DA0002091BF03221669F1422C512CF201EE0F43
:102DB000FF1FEA54FC4F808191810E94BB048C016B
:102DC000B7010E9494150097A9F021E0FC0124832B
:102DD000E816F90609F48CC02091BE0322120AC03D
:102DE0000817190739F492012F5F3F4F23703327DB
:102DF0002093BE0392012F5F3F4F422F4370242E3A
:102E0000CFCFE816F90609F473C0422C512CF20119
:102E1000EE0FFF1FEA54FC4FB182A0828FEF481AD9
:102E2000580A93E0492255244092BF0361C0911192
:102E300014C0A30102C0440F551F6A95E2F7415028
:102E4000510930E04217530709F043C0772309F4D2
:102E500041C0C5010E94D4143CC0822F90E09C0167
:102E60002150310928233923042C02C095958795D8
:102E70000A94E2F7232B59F580FF29C0F7018281DC
:102E80009381892BE1F0EA85FB8529E011922A954F
:102E9000E9F70E94BA1F282F8B839C8344E04D835F
:102EA000F70182819381782F8887998709811A8118
:102EB0003C815E816F81892F0E94DF0D04C060E03C
:102EC000C5010E943903F701158281E003C08170BA
:102ED00001C080E09301042C01C0220F0A94EAF79C
:102EE0002095F701968129232683382E01C0312CA5
:102EF000FC85F329FC872FEFA21AB20ADECEF60179
:102F00008581882379F1FC85FF2361F10E94BA1F36
:102F100090932C0480932B0480912804883098F59A
:102F200091E0980F9093280499E0F601DE01119644
:102F300001900D929A95E1F72DE0829FC001112436
:102F400080549C4F29E0FE013196DC0101900D92E6
:102F50002A95E1F72FEF3FEFFC0132872187948616
:102F6000838611C09091BE038091BF03981719F01A
:102F70000E946D1508C00E94671410922C041092D4
:102F80002B040E94B91411E0FC851F27812F2C9679
:102F9000E2E10C945F2787E0089550E0440F551F4D
:102FA00028E0629F400D511D11249A0160E1869F27
:102FB000200D311D1124C901889608950F931F9388
:102FC000CF93DF938730A0F4623090F4443080F4E4
:102FD0000E94CD178C010E94902790E0D82FCC271B
:102FE000C80101960E9490279E01282BC90102C0AA
:102FF00080E090E0DF91CF911F910F9108950F93A2
:103000001F93CF93DF93873080F4623070F44430A5
:1030100060F4E9010E94CD178C016D2F0E94AE274C
:103020006C2FC80101960E94AE27DF91CF911F91AE
:103030000F9108951F93CF93DF93D0E0C0E010E08D
:10304000412F6C2F8D2F0E949C049C01412F6C2FCF
:103050008D2F0E94FF171F5F143091F7CF5FC23092
:1030600071F7DF5FD73051F7DF91CF911F9108954E
:10307000EF92FF920F931F93CF93DF93EA017A01B0
:10308000E60EF71E8C01C8018896CE15DF0561F0AB
:103090000037110520F40E949027888301C0188210
:1030A00021960F5F1F4FEFCFCDB7DEB7E6E00C9450
:1030B0006B27EF92FF920F931F93CF93DF93EA0159
:1030C0007A01E60EF71E8C01C8018896CE15DF0541
:1030D00051F00037110518F468810E94AE2721963F
:1030E0000F5F1F4FF1CFCDB7DEB7E6E00C946B2733
:1030F000873038F4623028F4443018F40E94DE1728
:10310000089580E090E0089580E1089588E693E0D6
:103110000895EF92FF920F931F93CF93DF93EA01ED
:103120007A01E60EF71E8C01C80188569F4FCE1516
:10313000DF0569F0083623E0120720F40E9490278B
:10314000888301C0188221960F5F1F4FEDCFCDB746
:10315000DEB7E6E00C946B27EF92FF920F931F937C
:10316000CF93DF93EA017A01E60EF71E8C01C801C6
:1031700088569F4FCE15DF0559F0083623E0120719
:1031800018F468810E94AE2721960F5F1F4FEFCF82
:10319000CDB7DEB7E6E00C946B27CF93DF93C8E999
:1031A000D0E060E0CE010E94AE272196C11584E0F8
:1031B000D807B9F7DF91CF910895A8E0B0E0E3EE2A
:1031C000F8E10C944927F82E8FE08F1508F474C0AD
:1031D0008FEF93E00E94902781116EC008E910E004
:1031E000FF2071F0011594E0190709F465C0C801CA
:1031F0000E949027811101C0FA940F5F1F4FF0CFFA
:10320000FE0131966F0188E011928A95E9F7780105
:10321000FFEFEF1AFF0AC8010E94902789831A82E4
:10322000882309F449C0813009F040C0580182E088
:10323000A80EB11CC7010E9490278A838823E1F160
:103240009FEF980F933060F4780193E0E90EF11C42
:10325000C5010E9490278B83882371F11C8226C0B0
:10326000843019F54E01E3E08E0E911C02E010E06F
:103270007501FFEFEF1AFF0AC5010E949027F401C4
:1032800081934F018823C1F08C3741F4E2E0F0E0F4
:10329000EC0FFD1FE00FF11F108208C00F5F1F4FE2
:1032A00057010730110521F707C0750160E0C6011D
:1032B0000E94261B8701ABCF2896ECE00C94652773
:1032C000CF93DF9386319C4709F5EB010E947D0E79
:1032D0009D81992371F08A7A91E009F490E09093AE
:1032E0002D04811102C089E201C085E30E94F01E15
:1032F00009C080912D04811102C089E201C085E3DB
:103300000E94F81E0E94FF0E80E001C081E0DF9164
:10331000CF910895CF93DF93FC01DB0115968C913B
:10332000882309F4DDC09F0130572332310508F0AE
:10333000D8C0EF010E94900F9093440480934304FF
:10334000FE01E150F047E232F10520F4E456FF4F70
:103350000C943627809143048160AAC08091440474
:103360008860B2C0809143048260A2C0809143040F
:1033700020C08091430488609BC0809144041EC09B
:10338000809144048260A0C080914304806190C019
:103390008091430480628CC080914304806488C023
:1033A0000E949C0980914304806882C080914304FC
:1033B000886084607DC0809144048260816084C0A4
:1033C000809143048E7F74C080914404877F7CC0C9
:1033D000809143048D7F6CC08091430420C0809114
:1033E0004304877F65C0809144041EC080914404DB
:1033F0008D7F6AC0809143048F7E5AC080914304C0
:103400008F7D56C0809143048F7B52C00E949C09DF
:10341000809143048F774CC080914304877F8B7FDA
:1034200047C0809144048D7F8E7F4EC080914304BD
:1034300082FB222720F991E0922790FB82F990FBF2
:1034400083F936C080914404982F909591708E7FB7
:10345000892B90FB81F938C08091430486FB222799
:1034600020F991E0922790FB86F922C00E949C09E6
:103470008091430487FB222720F991E0922790FB5B
:1034800087F916C081E001C080E00E941B101EC0B9
:103490008091430484FB222720F991E0922790FB3E
:1034A00084F906C080914304982F909590FB80F991
:1034B000809343040BC08091440483FB222720F9AE
:1034C00091E0922790FB83F9809344048091430418
:1034D000909144040E94950F0E949C0980E001C0D5
:1034E00081E0DF91CF9108958F929F92BF92CF920A
:1034F000DF92EF92FF920F931F93CF93DF93E82F0A
:10350000F0E0E85BFB4FB490282F26952695269592
:1035100030E0F901E851FB4FE4908770F12C082E60
:1035200002C0F594E7940A94E2F791E0E922FF24BF
:10353000F901E852FB4FC490D12C082E02C0D5945B
:10354000C7940A94E2F7E1E0CE22DD24F901E853C2
:10355000FB4FC491D0E002C0D595C7958A95E2F79C
:10356000C170DD27062F10E0E114F10471F081EE47
:103570000E945D06C801009741F0EFE9FFE0319736
:10358000F1F700C000000197F6CFC114D10439F45F
:103590004801B8018B2D0E943307C8010EC086EE8A
:1035A0000E945D06C801009799F3EFE9FFE03197AB
:1035B000F1F700C000000197F6CF009741F0EFE966
:1035C000FFE03197F1F700C000000197F6CFCD285A
:1035D00019F5EF2879F081EE0E94E2060115110538
:1035E00049F08FE99FE00197F1F700C0000001501A
:1035F0001109F4CFCD2BF1F08CE20E944B0781141E
:103600009104C1F0EFE9FFE03197F1F700C000004D
:10361000F1E08F1A9108F3CF86EE0E94E206C8010E
:103620000097B9F2EFE9FFE03197F1F700C0000031
:103630000197F6CFDF91CF911F910F91FF90EF90FF
:10364000DF90CF90BF909F908F900895EF92FF9260
:103650000F931F93CF93DF93EC01162F0AE088811D
:10366000882309F457C0813009F04FC08981813027
:1036700041F47E0182E0E80EF11C8A810E944B0732
:1036800009C0823049F47E01E2E0EE0EF11C8A812D
:103690000E945D06E7012DC0833041F47E01F2E017
:1036A000EF0EF11C8A810E94E206F4CF843011F003
:1036B00021961FC02A81229680E090E030E02053BE
:1036C00031092A30310558F4089FA001099F500D97
:1036D0001124C901840F951F21962881EFCF0097EF
:1036E00041F0EFE9FFE03197F1F700C000000197EA
:1036F000F6CF812F90E0009759F0EFE9FFE0319786
:10370000F1F700C000000197F6CF612F0E94741AF4
:103710002196A5CFCDB7DEB7E6E00C946B27EF92EC
:10372000FF920F931F93CF93DF938C01F62E8AE0C5
:10373000E82EF8018491882309F44DC0813009F006
:1037400042C0E8012196FE018491813031F4219636
:10375000FE0184910E944B073AC0823039F4E8019F
:103760002296FE0184910E945D0631C0833039F4B7
:10377000E8012296FE0184910E94E20628C084306E
:1037800031F5E8012296FE01249180E090E030E0DE
:10379000205331092A30310560F4E89EA001E99EEA
:1037A000500D1124C901840F951F2196FE0124910B
:1037B000EECF009761F0EFE9FFE03197F1F700C03D
:1037C00000000197F6CF6F2D0E94741AE8018E0158
:1037D0000F5F1F4FAECFCDB7DEB7E6E00C946B277F
:1037E0000F931F93CF93DF93C42FD22FFC018581BA
:1037F0008823B1F0409330040E94BA1F90932F04A5
:1038000080932E0480E28C0F883008F04DC0C77082
:1038100081E001C0880FCA95EAF70E94550744C0AD
:1038200080913004481330C080912E0490912F0471
:103830000E94D21F883C910538F510E21D0FCD176C
:10384000B9F080E28C0F883040F4C77081E001C08D
:10385000880FCA95EAF70E945C07183010F581E0DE
:103860009D2F977001C0880F9A95EAF70E9455071F
:10387000802F0E944B071830B8F4D77081E001C048
:10388000880FDA95EAF70AC080E28C0F883060F47E
:10389000C77081E001C0880FCA95EAF70E945C07F3
:1038A00003C0802F0E944B07DF91CF911F910F9192
:1038B00008950F93FC01E851FC47E730F10590F5BE
:1038C000CB01E254FF4F0C94362706E221EE41EE85
:1038D0006AE17CE723C007E225EE45EE6BE17CE779
:1038E0001DC006E221EE40EE68E17CE717C007E26A
:1038F00025EE44EE69E17CE711C006E221EE42EEDE
:103900006CE17CE70BC007E225EE46EE6DE17CE75B
:1039100005C008E221E045EE6EE17CE70E94F01B65
:1039200080E008C0FB018581882319F010923004E3
:1039300001C081E00F9108951F93CF93DF938737E4
:103940002CE7920721F088379C4759F031C0FB01E2
:10395000C581CC2319F00E94DE1C09C00E94DE1C28
:1039600018C0FB01C581CC2391F00E94E11C0E948C
:103970001B0A0E94E41CD82F0E94E11CC82F0E9441
:10398000DE1C4D2F6C2F0E94450BC0E012C00E9420
:10399000E11C0E94270A0E94E41C182F0E94E11CCF
:1039A000D82F0E94DE1C412F6D2F0E94450B01C0B5
:1039B000C1E08C2FDF91CF911F91089580919B02E0
:1039C000089580919A02089580919902089584E261
:1039D00090E00E949027843281F485E290E00E947A
:1039E0009027883051F486E290E00E94902791E081
:1039F000803309F090E0892F01C080E08170089544
:103A0000CF93C82F811102C06FEF01C064E284E23E
:103A100090E00E94AE27C11102C06FEF01C068E0C4
:103A200085E290E00E94AE27C11102C06FEF01C095
:103A300060E386E290E00E94AE27CF91089508955A
:103A400087E290E00E949027682F70E080E090E08D
:103A500008950895CF93C62F0E94291D6C2F87E2E9
:103A600090E00E94AE27CF91089580E00E94001D53
:103A700060E070E0CB010E942A1D0E941A180E948B
:103A8000CD1881E00E94001D08950E941F1D0E9414
:103A9000201D0E94291D0E94E71C811102C00E9466
:103AA000351D089508959C01FB018581882351F0FF
:103AB000A90157574038510530F4C9010E94DD185B
:103AC00080E0089581E008952FEFFC0120830895A0
:103AD0000E94641D089580E00895A0E0B0E0E3E74F
:103AE000FDE10C944B27EC01F62E0E946B1D811119
:103AF000BEC0E8818E2F90E0FC013197E331F105E3
:103B000008F0AFC0EB53FF4F0C94362719828CE0BE
:103B10006BC08981823089F030F4813009F0A1C016
:103B20000E94C61F0CC0833079F0843009F099C020
:103B30001A821B821C821D8296C00E94201D9A83BD
:103B40008B837C836D838FC0EA806E0183E0C80E17
:103B5000D11C00E010E0AE2CB12CC501800F911FEC
:103B6000029708F080C08E2D800F0E942813F60166
:103B700081936F010F5F1F4F0C31110571F773C0F7
:103B80008981823039F0853009F06BC08A810E94CA
:103B9000521D69C06A817B818C819D810E943C2776
:103BA0000E942A1D60C04B816A8189810E94DE17B4
:103BB0009C838D8358C02C813D8132272327322757
:103BC0004B816A8189810E94FF174DC00E941A189B
:103BD0004AC06F2DCE010E94681D45C00E94841806
:103BE00024C00E94861899838A833DC06B8170E04F
:103BF00089819A81AE014C5F5F4F9827892798276A
:103C00000E94891830C06B8170E089819A81AE0171
:103C10004C5F5F4F9827892798270E94AC1823C0D4
:103C20000E94CD1820C00E94CB1789831CC06B81D5
:103C300070E089819A81AE014C5F5F4F9827892798
:103C400098270E9438180FC06B8170E089819A8193
:103C5000AE014C5F5F4F9827892798270E9459181B
:103C600002C08FEF88836F2DCE010E946720CDB7F1
:103C7000DEB7EAE00C94672790933604809335040E
:103C80000895E0913504F0913604309729F00190C1
:103C9000F081E02D0995089580E008950E94411E6D
:103CA0000895E0913504F0913604309721F00280B8
:103CB000F381E02D09950895A3E0B0E0E2E6FEE18E
:103CC0000C9453272091330430913404281739077A
:103CD000A1F09093340480933304E0913504F09183
:103CE0003604309751F023E029839B838A83008434
:103CF000F185E02DCE01019609952396E2E00C9422
:103D00006F27A3E0B0E0E7E8FEE10C945327209191
:103D100031043091320428173907A1F0909332040E
:103D200080933104E0913504F0913604309751F0DE
:103D300024E029839B838A830084F185E02DCE01D2
:103D4000019609952396E2E00C946F27E091960284
:103D5000F0919702329697E080E0915029F02191FE
:103D60002223D9F38F5FF9CF0895882371F0209132
:103D7000960230919702F9013296285F3F4F919158
:103D8000891729F0E217F307D1F780E0089581E061
:103D900008959C01FC0132969FEF80E04191461707
:103DA00089F09F3F19F4411101C0982F8F5F863031
:103DB000A9F79F3F39F0F901E90FF11D97FDFA9539
:103DC0006283089508959C012A5F3F4FFC01428160
:103DD000461301C01282019682179307B9F708951E
:103DE000682F80919602909197020E94C91E0895B3
:103DF000682F80919602909197020E94E31E089589
:103E0000E0919602F0919702329686E0DF011D92D2
:103E10008A95E9F7089508950E940B1F089583E09D
:103E2000809337040E940C1F0895811102C081E025
:103E300001C082E0809337040E940C1F08950E9405
:103E4000151F089581E0809337040E940C1F089588
:103E50000E94221F089508950E942B1F08950E941A
:103E60002C1F08950E942B1F08950E942B1F089558
:103E70000E942B1F08950E94351F0E94B6130E94B6
:103E8000321F80E00E942813811108C081E00E9447
:103E9000281391E0811103C090E001C091E0892FC7
:103EA000089585B7806885BF85B7806885BF089508
:103EB0001F920F920FB60F9211248F939F93AF937F
:103EC000BF9380913804811113C08091490490916F
:103ED0004A04A0914B04B0914C044196A11DB11D20
:103EE0008093490490934A04A0934B04B0934C04EC
:103EF000BF91AF919F918F910F900FBE0F901F9028
:103F0000189580915104843031F10E94C2051092BD
:103F1000380420E488E190E00FB6F894A8958093E7
:103F200060000FBE2093600083B7817F846083BFF1
:103F300083B7816083BF7894889583B78E7F83BF72
:103F40000FB6F894A8958091600088618093600016
:103F5000109260000FBE08950E949C090E94C70540
:103F6000089582E084BD93E095BD9AEF97BD80935C
:103F70006E0008952FB7F8948091490490914A04F7
:103F8000A0914B04B0914C042FBF08952FB7F89423
:103F90006091490470914A0480914B0490914C04C3
:103FA0002FBF08959C014FB7F894809149049091D8
:103FB0004A04A0914B04B0914C044FBF821B930B59
:103FC000089578941F920F920FB60F9211248F9339
:103FD0009F93AF93BF938091490490914A04A0911D
:103FE0004B04B0914C040196A11DB11D809349046E
:103FF00090934A04A0934B04B0934C04BF91AF91AB
:104000009F918F910F900FBE0F901F90189587E78B
:1040100097E790930108809300089AE088E10FB633
:10402000F894A895809360000FBE90936000FFCF36
:104030009AE088E10FB6F894A895809360000FBECF
:1040400090936000FFCF80914104089508950895F2
:104050009B01909151049430F1F48F708093E900AA
:104060008FEF9091E800815095FD06C095ED9A95EF
:10407000F1F700008111F5CF8091E80085FF0BC0BA
:10408000BA01C90140E050E00E9463228091E8003B
:104090008E778093E800089543E050E0BC0184E00F
:1040A0000E9428200895CF93DF93EC0148E050E070
:1040B000BC0181E00E94282088E0FE01A9E3B4E071
:1040C00001900D928A95E1F7DF91CF9108956032CA
:1040D00031F4BC0140E250E082E00E9428200895C3
:1040E000A0E2B0E0E6E7F0E20C945327809151049F
:1040F000843011F583E08093E9008091E80082FF2D
:104100001BC08091E80085FF0AC040E050E060E2FB
:1041100070E0CE0101960E94A82291E001C090E0DB
:104120008091E8008B778093E800992329F060E282
:10413000CE0101960E946D1DA096E2E00C946F27BF
:1041400080915004811109C00E9433240E94902460
:104150008091E20084608093E20008951092500400
:1041600008950E94281F089560914D0481E0611117
:1041700001C080E00E940F1F08959091510481E0DA
:10418000943009F080E060914D040E94151F08955D
:1041900042E061EC81E00E94AC2342E261EC84E009
:1041A0000E94AC2342E261EC82E00E94AC2342E236
:1041B00060EC83E00E94AC239091510481E0943044
:1041C00009F080E060914D040E941F1F08958091C6
:1041D0005304833009F463C030F4813071F08230CD
:1041E00009F49DC008958A3009F489C08B3009F420
:1041F0006EC0893009F0ABC020C080915204813A72
:1042000009F0A5C08091E800877F8093E800809145
:10421000560490915704892B21F468E089E394E0D7
:1042200003C060E080E090E070E00E94ED228091A9
:10423000E8008B778093E8000895809152048132E2
:1042400009F085C08091560490915704009719F0A9
:10425000029709F07CC08091E800877F8093E80096
:104260008091E80082FD05C0809151048111F8CF52
:104270006EC02091F3008091F20090E0922B0297A3
:1042800031F48091F100813011F0863021F4809179
:10429000F100809341048091E8008B7754C08091B5
:1042A0005204813A09F053C080915604909157040A
:1042B000892B09F04CC08091E800877F8093E8004B
:1042C0008091E80080FFFCCF8091A60237C08091EA
:1042D00052048132E1F58091560490915704892B64
:1042E000B1F58091E800877F8093E8000E94E12388
:1042F000809154048093A6020E949C0908958091A5
:104300005204813221F58091E800877F8093E80094
:104310000E94E12380915504809342040895809186
:104320005204813AA1F48091E800877F8093E800ED
:104330008091E80080FFFCCF809142048093F100DF
:104340008091E8008E778093E8000E94E123089531
:1043500084B7877F84BF0FB6F894A89580916000DA
:10436000886180936000109260000FBE90E080E84A
:104370000FB6F89480936100909361000FBE0E9485
:10438000221F08950E9433240E949024E2EEF0E060
:1043900080818460808378940E941B2708958CE933
:1043A00092E00E943C1E0895809151048530A9F44A
:1043B00080915104853079F40E94811F80914F04CF
:1043C0008823B1F30E943B1F882391F30E944D2262
:1043D0000E949C09EDCF0E94AC1F089508959A0198
:1043E00040915804509159040E94F7210895492F93
:1043F000552743305105C9F060F44130510581F033
:104400004230510509F041C08BE590E04EE255E0A5
:1044100040C041325105E1F04232510531F135C021
:1044200082E190E049E855E034C099278130910558
:1044300049F028F0029749F5E8EFF4E005C0EAE218
:10444000F5E002C0E0E1F5E0849190E0AF0121C029
:1044500063307105D0F4660F771FFB01E65DFC4FFA
:104460004081518189E090E014C06330710568F4A7
:10447000FB01EE0FFF1FEC5DFC4F40815181FB0102
:10448000EF5DFC4F808190E004C080E090E040E070
:1044900050E0F90151834083089580E189BD82E1B4
:1044A00089BD09B400FEFDCF8091D8008F7D809337
:1044B000D8008091E00082608093E0008091E0006D
:1044C00081FDFCCF0895A0E0B0E0E9E6F2E20C94B3
:1044D0004D27EC018B017A010E940024811133C029
:1044E000E114F10439F0F70180819181081B190B67
:1044F000C80FD91FC12CD12C0115110519F18091BC
:10450000E80085FD16C08091E8008E778093E80072
:10451000E114F10449F0F70180819181C80ED91EA0
:10452000D182C08285E00FC00E940024882321F33D
:104530000AC089918093F10001501109FFEFCF1A51
:10454000DF0ADACF80E0CDB7DEB7E8E00C94692768
:10455000A0E0B0E0EEEAF2E20C944D27EC018B0112
:104560007A010E940024811133C0E114F10439F072
:10457000F70180819181081B190BC80FD91FC12C2D
:10458000D12C0115110519F18091E80085FD16C0A7
:104590008091E8008B778093E800E114F10449F002
:1045A000F70180819181C80ED91ED182C08285E039
:1045B0000FC00E940024882321F30AC08091F100DB
:1045C000899301501109FFEFCF1ADF0ADACF80E09B
:1045D000CDB7DEB7E8E00C946927209158043091FC
:1045E00059042617370748F06115710539F42091F1
:1045F000E8002E772093E80001C0B901FC0120E01B
:104600006115710579F1809151048823F1F18530AC
:10461000F1F18091E80083FD3CC08091E80082FDCB
:104620002EC08091E80080FFEBCF2091F3008091B5
:10463000F20090E0922B6115710551F088309105E0
:1046400038F421912093F100615071090196F3CF64
:1046500021E0089709F020E08091E8008E778093B0
:10466000E800CECF2111CFCF0AC08091510488231A
:1046700061F0853061F08091E80083FD0AC080918F
:10468000E80082FFF2CF80E0089582E0089583E0A1
:10469000089581E008952091580430915904261717
:1046A000370748F06115710539F42091E8002E773D
:1046B0002093E80001C0B901FC0120E061157105FB
:1046C00091F180915104882309F440C0853009F4A8
:1046D0003FC08091E80083FD3DC08091E80082FDED
:1046E0002FC08091E80080FFE9CF2091F3008091F6
:1046F000F20090E0922B6115710559F08830910518
:1047000040F424912093F100319661507109019693
:10471000F2CF21E0089709F020E08091E8008E7741
:104720008093E800CBCF2111CCCF0AC080915104F7
:10473000882361F0853061F08091E80083FD0AC034
:104740008091E80082FFF2CF80E0089582E0089532
:1047500083E0089581E00895982F973068F590934D
:10476000E900981739F07091EC002091ED0050911C
:10477000F00003C0242F762F50E021FD02C09F5F80
:10478000ECCF3091EB003E7F3093EB003091ED00A9
:104790003D7F3093ED003091EB0031603093EB00C2
:1047A0007093EC002093ED005093F0002091EE0008
:1047B00027FDE5CF80E008958F708093E90081E0C8
:1047C00008958091520487FF11C08091E80082FD16
:1047D00005C0809151048111F8CF11C08091E8008B
:1047E0008B770BC080915104882349F08091E800B9
:1047F00080FFF8CF8091E8008E778093E8000895DD
:104800002091E4003091E50095E64091EC00842F82
:10481000817040FF23C08091E80080FD1DC0809121
:104820005104882399F0853099F08091EB0085FD43
:1048300011C04091E4005091E5002417350729F399
:10484000915011F09A01E1CF84E0089582E008953B
:1048500083E0089581E0089580E008954091E800A4
:1048600042FFDDCF08950E94A2240E94AA24E0EE18
:10487000F0E0808181608083E8EDF0E080818F77D7
:10488000808319BCA7EDB0E08C918E7F8C938081E2
:104890008F7E80831092500408950F931F93CF93BF
:1048A000DF930E94A2240E94AA24C8EDD0E0888150
:1048B0008F77888388818068888388818F7D8883CB
:1048C00019BC1092510410924D0410924F04109292
:1048D0004E0400EE10E0F80180818B7F8083888198
:1048E0008160888342E060E080E00E94AC23E1EEDA
:1048F000F0E080818E7F8083E2EEF0E08081816055
:104900008083808188608083F80180818E7F8083AE
:10491000888180618883DF91CF911F910F910895E5
:10492000E8EDF0E080818F7E8083E7EDF0E080812C
:104930008160808384E082BF81E0809350040E9484
:104940004D240895E8EDF0E080818E7F8083109201
:10495000E20008951092DA001092E10008951F928B
:104960000F920FB60F9211242F933F934F935F93A3
:104970006F937F938F939F93AF93BF93EF93FF9327
:104980008091E10082FF0BC08091E20082FF07C0AE
:104990008091E1008B7F8093E1000E941A27809133
:1049A000DA0080FF1FC08091D80080FF1BC080917B
:1049B000DA008E7F8093DA008091D90080FF0DC0ED
:1049C00080E189BD82E189BD09B400FEFDCF81E0AF
:1049D000809351040E94A02005C019BC109251047C
:1049E0000E94AE208091E10080FF19C08091E2001A
:1049F00080FF15C08091E2008E7F8093E20080915D
:104A0000E20080618093E2008091D8008062809310
:104A1000D80019BC85E0809351040E94B420809195
:104A2000E10084FF30C08091E20084FF2CC080E16F
:104A300089BD82E189BD09B400FEFDCF8091D80017
:104A40008F7D8093D8008091E1008F7E8093E1007C
:104A50008091E2008F7E8093E2008091E20081608D
:104A60008093E20080914D04882311F084E007C018
:104A70008091E30087FD02C081E001C083E0809364
:104A800051040E94BD208091E10083FF29C08091E4
:104A9000E20083FF25C08091E100877F8093E100E1
:104AA00082E08093510410924D048091E1008E7F4A
:104AB0008093E1008091E2008E7F8093E2008091FC
:104AC000E20080618093E20042E060E080E00E94CA
:104AD000AC238091F00088608093F0000E94B120A8
:104AE000FF91EF91BF91AF919F918F917F916F91C6
:104AF0005F914F913F912F910F900FBE0F901F909C
:104B000018951F920F920FB60F9211242F933F9377
:104B10004F935F936F937F938F939F93AF93BF93C5
:104B2000CF93DF93EF93FF93C091E900CF70809113
:104B3000EC00D82FD17080FDD0E81092E900809170
:104B4000F000877F8093F00078940E94C525109232
:104B5000E9008091F00088608093F000CD2BCF7049
:104B6000C093E900FF91EF91DF91CF91BF91AF9199
:104B70009F918F917F916F915F914F913F912F9175
:104B80000F900FBE0F901F901895AAE2B0E0EBECCB
:104B9000F5E20C945227E2E5F4E08091F100819374
:104BA00024E0EA35F207C9F70E94E7208091E80087
:104BB00083FF2EC18091520490915304492F50E0FD
:104BC0004A30510508F024C1FA01E852FF4F0C9415
:104BD0003627803821F0823809F01AC108C0809148
:104BE0004E0490914F04992389F082600FC0809108
:104BF00056048F70873008F00BC18093E9008091D4
:104C0000EB0085FB882780F91092E9009091E8007D
:104C1000977F9093E8008093F1001092F100D1C04B
:104C2000282F2D7F09F0F4C0882319F0823061F01D
:104C3000EFC080915404813009F0EAC0933009F04C
:104C400080E080934F042EC08091540481112AC0CB
:104C5000809156048F702FEF280F263008F0D8C0AF
:104C60008093E9002091EB0020FF1CC0933021F4D9
:104C70008091EB00806214C09091EB009061909362
:104C8000EB0021E030E0A90102C0440F551F8A95D6
:104C9000E2F74093EA001092EA008091EB0088600E
:104CA0008093EB001092E9008091E800877F809369
:104CB000E8000E94E123ACC08111AAC01091540405
:104CC0001F778091E3008078812B8093E3008091AF
:104CD000E800877F8093E8000E94E1238091E8004C
:104CE00080FFFCCF8091E30080688093E300111186
:104CF00002C082E001C083E08093510489C08058E3
:104D0000823008F085C080915404909155048C3D08
:104D100053E0950779F583E08A838AE289834FB768
:104D2000F894DE01139620E03EE051E2E32FF0E03C
:104D300050935700E49120FF03C0E295EF703F5F6E
:104D4000EF708E2F90E0EA3010F0C79601C0C09649
:104D50008D939D932F5F243149F74FBF8091E800D9
:104D6000877F8093E8006AE270E0CE0101960E949E
:104D7000ED2216C06091560470915704AE014F5F4A
:104D80005F4F0E94EF21BC01892B09F441C0909133
:104D9000E800977F9093E80089819A810E944B23D5
:104DA0008091E8008B778093E80032C0803881F5ED
:104DB0008091E800877F8093E80080914D04809384
:104DC000F1008091E8008E7772CF811121C080912F
:104DD00054049091550499270297D4F48091E800E7
:104DE000877F8093E8008091540480934D040E9453
:104DF000E12380914D04811106C08091E30087FD7D
:104E000002C081E001C084E0809351040E94C82068
:104E10008091E80083FF0AC08091E800877F80933B
:104E2000E8008091EB0080628093EB00AA96E3E0BB
:104E30000C946E270895CF93809151048823A1F09C
:104E4000C091E900CF709091EC00892F817090FDA6
:104E500080E8C82B1092E9008091E80083FD0E9451
:104E6000C525CF70C093E900CF910895EE0FFF1FC5
:104E70000590F491E02D09946927962769277827F2
:104E80008727782708952F923F924F925F926F92D3
:104E90007F928F929F92AF92BF92CF92DF92EF92CA
:104EA000FF920F931F93CF93DF93CDB7DEB7CA1B4B
:104EB000DB0B0FB6F894DEBF0FBECDBF09942A8876
:104EC000398848885F846E847D848C849B84AA841E
:104ED000B984C884DF80EE80FD800C811B81AA81AB
:104EE000B981CE0FD11D0FB6F894DEBF0FBECDBF76
:104EF000ED010895FB01DC0104C08D910190801942
:104F000021F441505040C8F7881B990B0895FB01CC
:104F1000DC0102C001900D9241505040D8F7089535
:104F2000F999FECF92BD81BDF89A992780B5089571
:104F3000A8E1B0E042E050E00C94D427DC01A40FDB
:104F4000B51F4150504048F0CB01840F951F2E9162
:104F50000E94AF2741505040D0F70895262FF9996D
:104F6000FECF92BD81BDF89A019700B4021639F0C8
:104F70001FBA20BD0FB6F894FA9AF99A0FBE089599
:104F80000396272F0E94AF270E94AE27252F0E944D
:104F9000AF27242F0C94AF270196272F0E94AF270D
:104FA0000C94AE27DC01CB01FC01F999FECF06C0C1
:104FB000F2BDE1BDF89A319600B40D9241505040D7
:084FC000B8F70895F894FFCF43
:104FC800420400000000003A04000000000034041D
:104FD80000000000002E040000000000280400006B
:104FE800000000220400000000001C040000000073
:104FF8000016040000000000100400000000000873
:1050080004000000000002040000000000FA030091
:1050180000000000F2030000000000EC03000000A4
:105028000000E4030000000000DA030000000000B4
:10503800D2030000000000CC030000000000C203FF
:105048000000000000B8030000000000B2030000E8
:10505800000000AC030000000000A60300000000F0
:1050680000A00300000000009A0300000000009464
:105078000300000000008C0300000000008403000F
:10508800000000007E03000000000078030000001C
:105098000000720300000000006C03000000000024
:1050A80066030000000000600300000000005603D3
:1050B80000000000004C0300000000004603000050
:1050C800000000400300000000003A030000000058
:1050D80000340300000000002E0300000000002838
:1050E800030000000000220300000000001C030071
:1050F80000000000160300000000000C0300000080
:10510800000002030000000000F0020000000000A0
:10511800DE020000000000CC020000000000C40213
:105128000000000000BC020000000000B402000003
:10513800000000AC020000000000A6020000000011
:1051480000A00200000000009A0200000000009485
:105158000200000000009B030103020123205320EA
:10516800262027204C2001E200E900EA00B500B61D
:1051780000B700CD008301CC008A0192019401217F
:1051880002230224022502260227022A02B300B4BF
:10519800006F0070009F01CB019F02A002818283F3
:1051A800E200E900EA00B500B600B700CD008301CF
:1051B800CC008A01920194012102230224022502D3
:1051C800260227022A02B300B4006F0070009F0174
:1051D800CB019F02A002818283F7F6F5F4363233C1
:1051E80031442232EF059B05BD0540055905790577
:00000001FF
